:020000040800F2
:10000000380C0020290200083102000833020008E1
:10001000350200083702000839020008000000001D
:100020000000000000000000000000003B0200088B
:100030003D020008000000003F0200089D03000888
:10004000430200084302000843020008430200087C
:10005000430200084302000843020008430200086C
:10006000430200084302000843020008430200085C
:10007000430200084302000843020008430200084C
:10008000430200084302000843020008430200083C
:10009000430200084302000843020008430200082C
:1000A000430200084302000843020008430200081C
:1000B000430200084302000843020008430200080C
:1000C00043020008430200084302000843020008FC
:1000D00043020008430200084302000843020008EC
:1000E00043020008430200084302000843020008DC
:1000F00043020008430200084302000843020008CC
:100100000000000043020008430200084302000808
:1001100043020008430200084302000843020008AB
:10012000430200084302000843020008430200089B
:100130004302000800000000000000004302000825
:10014000430200084302000843020008430200087B
:100150004302000843020008430200084506000865
:10016000430200084302000843020008430200085B
:100170004302000843020008430200080000000098
:10018000430200084302000800F002F800F03CF8C7
:100190000AA090E8000C82448344AAF10107DA45E2
:1001A00001D100F031F8AFF2090EBAE80F0013F0F8
:1001B000010F18BFFB1A43F0010318478027000006
:1001C000A0270000103A24BF78C878C1FAD8520797
:1001D00024BF30C830C144BF04680C6070470000C1
:1001E0000023002400250026103A28BF78C1FBD840
:1001F000520728BF30C148BF0B6070471FB502F0DF
:1002000067FA1FBD10B510BD00F07AF81146FFF770
:10021000F5FF00F01DFE00F098F803B4FFF7F2FFC1
:1002200003BC00F09FF800000948804709480047D8
:10023000FEE7FEE7FEE7FEE7FEE7FEE7FEE7FEE796
:10024000FEE7FEE704480549054A064B70470000F3
:10025000B50400088901000838040020380C00208B
:1002600038080020380800204FF000020429C0F0B0
:10027000128010F0030C00F01B80CCF1040CBCF1D8
:10028000020F18BF00F8012BA8BF20F8022BA1EB2A
:100290000C0100F00DB85FEAC17C24BF00F8012B0F
:1002A00000F8012B48BF00F8012B70474FF0000207
:1002B00000B5134694469646203922BFA0E80C505C
:1002C000A0E80C50B1F12001BFF4F7AF090728BF37
:1002D000A0E80C5048BF0CC05DF804EB890028BFB3
:1002E00040F8042B08BF704748BF20F8022B11F0DC
:1002F000804F18BF00F8012B704770477047704758
:10030000754600F02BF8AE4605006946534620F0CE
:100310000700854618B020B5FFF794FFBDE82040E0
:100320004FF000064FF000074FF000084FF0000BB1
:1003300021F00701AC46ACE8C009ACE8C009ACE864
:10034000C009ACE8C0098D46704710B50446AFF34C
:1003500000802046BDE81040FFF75FBF00487047AF
:10036000D803002001491820ABBEFEE7260002009A
:100370007047000010B5002807DA0A07140E054A76
:1003800000F00F031B1FD45403E00A07130E024AA8
:10039000135410BD18ED00E000E400E010B500F0CB
:1003A00065FA10BD2DE9FF470FF2E80ADAE900C847
:1003B000DAE9029ACDE900C8CDE9029ADFF8E4C093
:1003C000DCF800C0CCF3810727B1012F09D0022F40
:1003D00043D10DE0DFF8D0C0DFF8D080C8F800C00E
:1003E00042E0DFF8CCC0DFF8C480C8F800C03BE0D2
:1003F000DFF8B0C0ACF1040CDCF800C00CF03F0139
:10040000DFF8A0C0ACF1040CDCF800C0CCF388121B
:10041000DFF890C0ACF1040CDCF800C0CCF3014C68
:100420000CF1010C4FEA4C04DFF878C0ACF1040C7D
:10043000DCF800C00CF48003B3F5800F01D11C4838
:1004400000E01948B0FBF1FC0CFB02FCBCFBF4FC27
:10045000DFF85880C8F800C006E0DFF84CC0DFF8CD
:100460004C80C8F800C000BF00BFDFF838C0DCF81F
:1004700000C0CCF303151DF80560DFF830C0DCF8D0
:1004800000C02CFA06FCDFF82480C8F800C0BDE8E4
:10049000FF870000000000000000000001020304CC
:1004A00006070809083802400024F4005400002020
:1004B00040787D011CB55F48006840F470005D49DC
:1004C00008605D48006840F001005B49086000BFBB
:1004D0005948006800F002000028F9D0564808305A
:1004E000006800F00C0008286ED100BF00200190C9
:1004F00002E00198401C019001985028F9D34E4821
:10050000083000680090009820F0F00000900098FB
:1005100040F08000009048490831009808600020B1
:10052000019002E00198401C019001985028F9D3F5
:100530004148083000680090009820F0F0000090DA
:10054000009840F0900000903B4908310098086006
:100550000020019002E00198401C01900198502871
:10056000F9D33548083000680090009820F0F0007A
:100570000090009840F0A00000902F4908310098AA
:1005800008600020019002E00198401C0190019851
:100590005028F9D32848083000680090009820F0CF
:1005A000F0000090009840F0B0000090224908311F
:1005B000009808600020019002E00198401C019022
:1005C00001985028F9D300BFC82000F03CF81A4821
:1005D0000830006820F00300174908310860164809
:1005E000006816490840144908600846006820F46D
:1005F00080200860002010490831086000BF0E48C4
:100600000830006800200028F9D10D480A49091D6A
:100610000860002008490C31086001F0FFFE4FF02F
:100620000060044980390860BFF34F8FBFF36F8FBC
:100630001CBD000088ED00E000380240FFFFF6FE20
:1006400010300024704708B50021009102E00099A5
:10065000491C009100EB8001009AB2EB410FF6D3E8
:1006600008BD000047F2305000F0D8F830B900F073
:10067000ABFB0A2000F0F0F800F054F800BF1521A1
:10068000244800F035FC0446022C02D1214800F039
:10069000C3FE6421204801F015F9054625B91D491E
:1006A0001D4800F08BFC02E0032D00D1E7E7152187
:1006B000184800F01DFC0446042C07D100F0B4FBE0
:1006C000642000F0C9F800F02DF821E0032C1FD0C1
:1006D000E32C01D0E22C1BD101F0CCFE06460F48E2
:1006E0000068301AB0F5FA7F11D90C4806600C4842
:1006F000007808B9012000E0002009490870084688
:10070000007810B100F09AFB01E000F08DFB00BF13
:10071000B5E70000640200205C000020000000201B
:100720000400002070B51548046845682E46601C1A
:1007300008B1681C10B900E000BFFDE772B64FF0C9
:10074000FF300F49086000200860401E091D086046
:1007500000200860401E0A49103908600020086027
:100760004FF0E0210861486188610448054908604C
:1007700000BF84F3088800BFB04770BD00000108C7
:100780002038024008ED00E008B541F21C0001F0FD
:1007900029FC01F039FA00BF4FF4803001F028FA4B
:1007A0000028F9D04FF4003001F038FA00BF4FF4C0
:1007B000003001F01DFA0028F9D001F0FBFA1020FA
:1007C00001F050FB102001F05FFB08200223D02233
:1007D0000D210090C00401F03BFC012801D000BFB6
:1007E000FEE7182001F03EFB182001F04DFB002031
:1007F00001F02AFA4FF4A05001F032FA4FF4004011
:1008000001F03AFA052000F057FA022001F062FCEC
:1008100000BF01F06BFC0828FBD108BD2DE9F041B9
:1008200004460025642711E064210A4801F04AF8D3
:1008300006462EB9074800F0F4FF0120BDE8F0811C
:10084000032E01D10120F9E7643500BFA542EBD3A7
:100850000020F3E75C0000200349086000BF024964
:1008600009680029FBD170470C0000200648006889
:1008700020B105480068401E03490860034800682D
:10088000401C0249086070470C0000201000002046
:1008900010B5044603E04FF47A7000F037F8201EDC
:1008A000A4F10104F7D110BD10B11749096801B9CD
:1008B000704724E0B0F1807F02D36FF07F4200E008
:1008C000024611464A1E4FF0E0235A6100229A6107
:1008D0001A46126942F001021A6100BF4FF0E0228D
:1008E000126902F48032002AF8D04FF0E022126937
:1008F00022F001024FF0E0231A61401A00BF0028E5
:10090000D8D100BFD4E70000580000202DE9F04105
:10091000074610480068A7FB0040054611E06FF04D
:100920007F410020091BA84102D26FF07F4000E008
:10093000204606463046FFF7B7FFA41B65F10005C9
:1009400000BF002184EA010069400843E7D1BDE807
:10095000F0810000580000200146B1F1006F04D37F
:100960000348814201D2012070470020FCE70000CB
:10097000000008082DE9F041044614B90020BDE844
:10098000F081B4F5E02F01D90220F8E71A4D28468E
:100990002618AE4201D20220F1E72846FFF7DCFF1D
:1009A00018B1701EFFF7D8FF08B90220E7E71FE073
:1009B000284600F08FF807460FB90220DFE700F065
:1009C0003FF940F2D31000F0C5F8B86800F0E2F843
:1009D0008046B8F1000F05D000F0C2F8404600F0A4
:1009E00099F8CCE700F0BCF8D7E90001451800BF42
:1009F000B542DDD30020C2E70000010810B500F0C9
:100A00001FF900F09DF804460CB1204610BD40F2DD
:100A1000D31000F09FF80020F8E710B500F090F830
:100A200000F09EF810BD00002DE9F84F04460F4677
:100A3000154607B115B90120BDE8F88F04F0030091
:100A400010B905F0030008B10120F5E7B5F5002F56
:100A500001D90220F0E76019A0F10108A04501D2F8
:100A60000220E9E72046FFF777FF18B14046FFF77D
:100A700073FF08B90220DFE71548844201D2042041
:100A8000DAE7FFF7BBFF06461EB1FFF7C6FF3046A9
:100A9000D2E7A1464FF0000A12E007EB0A00D0F8B7
:100AA00000B05946484600F0DDF80090009800F08C
:100AB00031F8064606B105E009F104090AF1040A15
:100AC000AA45EAD300BFFFF7A8FF3046B4E700000D
:100AD0000000010870B504462046FFF73DFF08B945
:100AE000002070BD00210EE001EB4103084D05EB35
:100AF0008300D0E900355A190368A34202D8944212
:100B000000D2EEE7491C0829EED30020E9E70000F7
:100B1000DC280008014608290BD2DFE801F00406B2
:100B20000D0C0B080E0F002070470320FCE704207B
:100B3000FAE700BF00BF00BF00BF00BF0620F3E719
:100B400010B56FF0304000F015F804462046FFF76E
:100B5000E1FF10BD01490860704700000C3C0240F5
:100B60000348006840F000400149086070470000F9
:100B7000103C024010B50346012400BF00F03AF8D3
:100B800004465B1E012C01D1002BF7D103B90724C9
:100B9000204610BD30B5044600256FF03040FFF709
:100BA000E9FF05460DBB1248006820F0F800104927
:100BB00008600846006844F0020108430C490860D8
:100BC0000846006840F4803008606FF03040FFF75E
:100BD000D1FF05460648006820F00200044908607D
:100BE0000846006820F0F8000860284630BD000084
:100BF000103C02400020114A116801F480320AB111
:100C0000012019E001F480720AB1022014E001F021
:100C100080020AB103200FE001F040020AB1042073
:100C20000AE001F010020AB1052005E001F002021D
:100C30000AB1062000E00020704700000C3C024092
:100C40000548006800F0004028B1044802490C390A
:100C50000860034808607047103C02402301674564
:100C6000AB89EFCD70B504460D4600266FF03040DD
:100C7000FFF780FF0646DEB90E48006820F440709A
:100C80000C4908600846006840F400700860084697
:100C9000006840F00100086025606FF03040FFF709
:100CA00069FF06460348006820F00100014908601A
:100CB000304670BD103C0240044A116821F00F011B
:100CC00041EA0002014B1A6070470000003C0240FC
:100CD000F0B503461C6A5D6A00200DE001268640DF
:100CE00016403EB187000F26BE40B443860001FA8D
:100CF00006F63443461CB0B20828EFD3082011E0B2
:100D00000126864016405EB1A0F10806B7000F2606
:100D1000BE40B543A0F10806B60001FA06F6354319
:100D2000461CB0B21028EBD31C625D62F0BD81623C
:100D3000704781617047F0B504460D46164621683C
:100D4000E268002019E0012787401F409FB14FEA69
:100D5000400C032707FA0CF7B943470005FA07F7D9
:100D600039434FEA400C032707FA0CF7BA43470010
:100D700006FA07F73A43471CB8B21028E3D32160BC
:100D8000E260F0BDF0B50C461546012C03D1466873
:100D90001E43466002E046689E434660826800212A
:100DA0000DE001268E401E403EB14F000326BE409E
:100DB000B2434E0005FA06F632434E1CB1B210297A
:100DC000EFD38260F0BD000010B500BF41F21C00FF
:100DD00001F008F940F6124001F004F900F0FEFEBF
:100DE00000BF00200349086000BF00F0EDFE00BF17
:100DF00010BD00005028004010B540F6014001F041
:100E0000F1F84FF40063002201210648FFF793FF39
:100E10004FF40063022200210248FFF7B3FF00F005
:100E200003F810BD0004024010B54FF40061024801
:100E3000FFF77DFF10BD00000004024010B54FF425
:100E400000610248FFF775FF10BD0000000402407A
:100E5000FFF730FBFFF798FCFFF7A4FA01F0E2FA86
:100E600001F0A8F900BF41F21C0001F0BBF840F608
:100E7000124001F0B7F81A48006845F6A5218842EB
:100E800001D1012000E0002010B9FFF74BFC05E084
:100E9000FFF79AFFFFF7B0FFFFF7D0FF01211148DE
:100EA00000F018FC104800F063F8FFF7BDFF4FF4A6
:100EB000E020FFF75FFD48B9FFF7C0FF01200A49B6
:100EC0000880002088600948486107E0FFF7ACFF10
:100ED000E320054908800120A1F89800FFF7C2FB34
:100EE000502800405C00002064020020000001083F
:100EF00030B502460AB9002030BDA1F1140009281E
:100F00001DD2DFE800F00507090C0F1215171900B4
:100F10000020F1E71088EFE7908880B2ECE7506896
:100F2000000CE9E7108980B2E6E79068000CE3E77F
:100F30009089E1E7108ADFE7B2F89800DCE71E2924
:100F400013DB5E2911DAA1F11E004FF6FF7404EAEB
:100F50004003581C802807D202F11800C55C5C1CB5
:100F6000005D45EA0020C7E700BF0020C4E700009D
:100F700010B5044604B910BD002020806060A06058
:100F8000A081E0812082012060820B486061002006
:100F9000A4F89800C4F89C004FF6FF70A4F8A000D5
:100FA0000020C4F8A400C4F8A800802104F11800AF
:100FB000FFF77CF900BFDEE7000001082DE9F047EC
:100FC000BEB004460F4624B11FB1B4F80201042894
:100FD00002DA3EB0BDE8F087A6780020A4F804024B
:100FE000032E04D0062E56D0102E7DD1A3E02179F9
:100FF000E07841EA002AA179607941EA0025002DD4
:1010000043DD7D2D41DC2178B4F80422501CA4F886
:10101000040204F582708154B4F80412481CA4F848
:10102000040204F5827046546806010EB4F80422E6
:10103000501CA4F8040204F5827081544FF000089B
:101040001DE00AEB080081B23846FFF751FF8146E8
:101050004FEA2921B4F80422501CA4F8040204F534
:1010600082708154B4F80422501CA4F8040204F5E0
:10107000827000F8029008F101001FFA80F8A8457C
:10108000DFDB204600F0B3FC04E0032231462046BB
:1010900000F084FCCBE02179E07841EA0025A179D9
:1010A000607941EA002842462946384600F0C2F8F5
:1010B000D0BB2178B4F80422501CA4F8040204F533
:1010C00082708154B4F80412481CA4F8040204F598
:1010D000827046542912B4F80422501CA4F8040269
:1010E00004F58270815400E09BE0B4F80422501CA7
:1010F000A4F8040204F5827085544FEA2821B4F85C
:101100000422501CA4F8040204F582708154B4F83F
:101110000422501CA4F8040204F5827000F8028036
:10112000204600F064FC05E0FFE70222314620463D
:1011300000F034FC7BE02179E07841EA0028A179D5
:10114000607941EA002594F80790002D63DD7B2D3E
:1011500061DCB9EB450F5ED1B4F8021109F1090069
:10116000814258DB00200DE0072202EB4002D1B2A1
:10117000621C4B1CD35C525C43EA02222DF8102007
:10118000411C88B2A842EFDB2B466A4641463846EE
:1011900000F0A8F9C0BB2178B4F80422501CA4F8D0
:1011A000040204F582708154B4F80412481CA4F8B7
:1011B000040204F5827046544FEA2821B4F8042250
:1011C000501CA4F8040204F582708154B4F804227F
:1011D000501CA4F8040204F5827000F80280291261
:1011E000B4F80422501CA4F8040204F5827081545F
:1011F000B4F80422501CA4F8040204F5827085544B
:10120000204600F0F4FB05E0FFE7022231462046CD
:1012100000F0C4FB04E003223146204600F0BEFB90
:1012200005E001223146204600F0B8FB00BF00BFB8
:1012300000BFCEE62DE9F04704468846154614B9AE
:101240000120BDE8F087A8F11400082878D2DFE873
:1012500000F004DBB6C7DBDBD7D9032D61D004DC9B
:10126000012D07D0022D6CD112E0042D6AD0FF2D84
:10127000F9D187E0012020800020A06065486061EE
:1012800000202082012060820020A4F8980094E0D1
:101290002088012844D1606828B9E12020800720F7
:1012A000A4F8980089E0208A618A884205D0E1206C
:1012B00020800520A4F898007FE0D4E90101A0EB8C
:1012C00001094FF0800AD14501D2484600E050465E
:1012D000064626B3F01C20F00307B74208D9304673
:1012E00004E0FF2204F118010A54401CB842F8D36C
:1012F0003A4604F118016069FFF796FB48B9A06807
:101300003044A060606938446061608A401C60823B
:1013100004E0E32020800220A4F8980000BF00BF72
:101320004BE02088012826D1D4E90110884201D160
:10133000606840B9E12020800620A4F898003CE0D5
:1013400062E039E018E0022020800020C4F89C0010
:101350004FF6FF70A4F8A000A068800AC0EB001050
:1013600042F2107101EB400601F084F8C4F8A400C9
:10137000C4F8A86000BF20E02088032801D1042021
:1013800020801AE0002020806060A060A081E081C1
:101390002082012060821F4860610020A4F898002C
:1013A000C4F89C004FF6FF70A4F8A0000020C4F819
:1013B000A400C4F8A80000E000BF00BF26E06068F9
:1013C0006FF30F00284360606068B0F5E02F06D926
:1013D00000206060E12020800820A4F8980015E03B
:1013E000606865F31F4060606068B0F5E02F06D963
:1013F00000206060E12020800820A4F8980005E02B
:10140000A58103E0258201E001201AE700BF00204A
:1014100017E7000000000108F0B5A1B0044614B1C0
:101420002088022801D021B0F0BDD4F8A80080B1F6
:1014300001F020F80546D4F8A400281AD4F8A81022
:10144000884205D9E22020800420A4F89800EAE729
:1014500000BFA168D4F89C0088422ED2D4F89C101A
:10146000A068471AB7F5805F02D94FF4805000E0BA
:10147000384606461EE0802E01D9802000E0304626
:101480000546002007E0164AD4F89C101144095C78
:1014900001AA1154401CA842F5D3AAB29C34A088DA
:1014A00001A900F0A5F8A0802068284444F89C0910
:1014B000761B00BF002EDED110E0B4F8A000E08162
:1014C000E089A189884201D0A08910B90320208039
:1014D00004E0E22020800320A4F8980000BFA2E7E7
:1014E00000000108F0B504461D4604B10AB9012008
:1014F000F0BD1E2927DB5E2925DAA1F11E004FF67B
:10150000FF7606EA4003002014E012F8107003EBA7
:10151000400C04F1180606F80C7032F810604FEA1F
:10152000262C03EB4006761C04F1180707F806C0CA
:10153000461CB0B2A84204DA03EB4006761C802EAB
:10154000E3D30020D4E70120D2E770B50346501C56
:1015500000EBD075C5F34F04002016E0012505EB24
:10156000400595420ADA012505EB40055D5D13F85B
:10157000106045EA062521F8105004E013F81050D9
:101580002D0221F81050451CA8B2A042E6DB70BD28
:1015900030B5034600200CE033F81040241201F867
:1015A000104013F81040012505EB40054C55441C34
:1015B000A0B29042F0DB30BD70B502460C46FF256C
:1015C000FF2309E012F8010B80EA03010648405CA2
:1015D00080EA05030548455C201EA4F10106B4B26B
:1015E000F0D143EA052070BDDA260008DA270008AA
:1015F000F0B503460C461D12DEB200200AE0275C5F
:1016000087EA0601064F7F5C87EA0506054F7D5C89
:10161000471CB8B29042F2DB46EA0520F0BD00005C
:10162000DA260008DA27000830B5A1B00546042DF7
:1016300035D006DC012D09D0022D0ED0032D34D17A
:1016400027E0052D2CD0FF2D2FD12AE001201949AC
:10165000488500200886488628E01648408D18B145
:101660001448408D012813D1402201A911483C3073
:1016700000F0E3F90F48008E0E49498E40EA01441C
:1016800080340C490C86200C48860120488500BF18
:101690000CE00220074948850420488506E005E063
:1016A00004E000200349488500E000BF00BF21B0EE
:1016B00030BD00001003002070B50446142C05D185
:1016C0000348058D2846FFF7AFFF00BF70BD00003F
:1016D0001003002070B504460D4604B970BDC82142
:1016E0001348FEF7C1FD25700020A4F80201A4F8FC
:1016F00004024FF48071601CFEF7B6FD4FF4807158
:1017000004F58270FEF7B0FD0A48046008480580C1
:101710004FF4906006494880012088800020C880EE
:101720004FF48070088100204885088500BFD5E708
:1017300010030020080000202DE9F84F81460C46D8
:101740001546042D01DABDE8F88F207899F80010CD
:10175000884202D0207800B1F5E7A81E81B2204669
:10176000FFF72AFF0646A81E215C681E205C41EA9E
:10177000002A564500D0E6E76778032F04D0062FED
:1017800013D0102F44D121E0082D0DDBE078A17893
:1017900040EA01286079217940EA012B5A46414606
:1017A000484600F04DF800BF38E0082D0DDBE0782A
:1017B000A17840EA01286079217940EA012B5A4654
:1017C0004146484600F0A6F900BF27E0092D1EDB80
:1017D000E078A17840EA012000906079217940EA20
:1017E000012894F806B00BF10900A84209DCBBEB14
:1017F000480F06D1E31D42464846009900F032F9F1
:1018000004E003223946484600F0C8F800BF05E06E
:1018100001223946484600F0C1F800BF00BF00BFB2
:1018200091E710B5044614B1B4F8020100B910BD37
:10183000B4F80221611C2046FFF77EFF00BFF6E7E7
:1018400070B504460E4615467019642805DD02225F
:101850000321204600F0A2F870BD0020A4F8040285
:101860002178B4F80422501CA4F8040204F5827014
:1018700081540321B4F80422501CA4F8040204F596
:10188000827081546806010EB4F80422501CA4F83A
:10189000040204F582708154094901EB46002A468E
:1018A00004F20711FFF774FEB4F8040200EB4500E0
:1018B000A4F80402204600F09AF800BFCCE700002C
:1018C000100300202DE9F84F0446884614B9012082
:1018D000BDE8F88F002000F005FD4FF47A7008FB9A
:1018E00000F900254FF0050B00260020A4F80201A6
:1018F0004A460121684600F071FC012801D002200F
:10190000E6E79DF800202846691C8DB2611C0A5448
:10191000002617E04FF47A720121684600F05EFC61
:10192000012808D19DF800202846691C8DB2611C51
:101930000A54002606E0761C052E00D304E00120A0
:10194000FEF7A6FFFF2DE5DD00BFA4F80251B4F8B5
:101950000201042801DA0120BAE7B4F80201801E6E
:10196000611C0A5CB4F80201401E085C42EA002ACD
:10197000B4F80201801E81B2601CFFF71DFE07460D
:10198000BA4501D00320A3E760782178884203D0CC
:10199000607808B104209BE7002099E770B5044601
:1019A0000D4616460CB9012070BD0020A4F80402B3
:1019B0002178B4F80422501CA4F8040204F58270C3
:1019C000815445F08001B4F80422501CA4F80402AC
:1019D00004F582708154B4F80412481CA4F804027F
:1019E00004F582704654204600F001F8DCE770B53B
:1019F000044614B1B4F8040208B9012070BDB4F86B
:101A0000041204F58270FFF7D7FD0546B4F80422EE
:101A1000501CA4F8040204F5827085542912B4F80D
:101A20000422501CA4F8040204F582708154B4F816
:101A3000041200F007FC0020E0E730B50346002068
:101A40000CE013F8104001F8104033F81040241255
:101A5000012505EB40054C55441CA0B29042F0DB3B
:101A600030BD00002DE9F04104460E4615461F46E4
:101A70007019642806DD022210212046FFF78EFF30
:101A8000BDE8F0814FF6FF7000EA4502204800EB08
:101A900046013846FFF759FD0020A4F804022178DA
:101AA000B4F80422501CA4F8040204F58270815496
:101AB0001021B4F80422501CA4F8040204F582702A
:101AC00081543112B4F80422501CA4F8040204F525
:101AD00082708154B4F80422501CA4F8040204F566
:101AE000827086542912B4F80422501CA4F804020F
:101AF00004F582708154B4F80422501CA4F8040246
:101B000004F5827085542046FFF771FF00BFB7E7E8
:101B10001003002070B504460D461646642D05DB03
:101B2000022206212046FFF739FF70BD042D05D1A2
:101B3000022206212046FFF731FFF6E7214820F870
:101B40001560142D02D12846FFF7B6FD0020A4F839
:101B500004022178B4F80422501CA4F8040204F50D
:101B6000827081540621B4F80422501CA4F80402A7
:101B700004F5827081542912B4F80422501CA4F890
:101B8000040204F582708154B4F80422501CA4F8B5
:101B9000040204F5827085543112B4F80422501CFA
:101BA000A4F8040204F582708154B4F80422501C95
:101BB000A4F8040204F5827086542046FFF717FF4C
:101BC00000BFB2E7100300200348006820F48070D3
:101BD0000149086070470000007000400348006839
:101BE00040F48070014908607047000000700040B8
:101BF000014604484068084008B1012070470020B1
:101C0000FCE70000007000400348006840F48030AA
:101C100001490860704700000070004000B50246AE
:101C200000BF4FF48030FFF7E3FF0128F9D10548EA
:101C3000006820F40030034908600846006810433B
:101C4000086000BD00700040044A116821F0F001F6
:101C500041EA0002014B1A60704700000838024058
:101C6000044A116821F4E05141EA0002014B1A6074
:101C70007047000008380240044A116821F46041AE
:101C800041EA0002014B1A60704700000838024028
:101C90002DE9F04F8CB0064600200A903EA090E857
:101CA000004CC068CDE905BECDF810A007900FF23A
:101CB000EC0ADAE9000ACDE9020A0FF2E00ADAE9F1
:101CC000000ACDE9000A38480068C0F381000B9093
:101CD0000B9820B1012804D0022828D103E0334911
:101CE00027E0334925E03048001F006800F03F0737
:101CF0002D48001F0068C0F3881C2B48001F006897
:101D0000C0F30140401C4FEA40092748001F00680B
:101D100000F48008B8F5800F01D1254B00E0234B7B
:101D2000B3FBF7F000FB0CF0B0FBF9F101E01F4949
:101D300000BF00BF1C480068C0F3031404A8055D81
:101D400021FA05F218480068C0F3822402A8055D54
:101D500022FA05F0099014480068C0F342341DF8D7
:101D6000045022FA05F0089036B1012E06D0022E5A
:101D700006D0032E0AD106E00A9108E00A9206E096
:101D800009980A9003E008980A9000E000BF00BF9D
:101D90000A980CB0BDE8F08F0000000000000000C1
:101DA0000102030406070809083802400024F40071
:101DB00040787D0100B51E48006840F001001C49D4
:101DC0000860002000F060F819480830006820F032
:101DD0000300174908310860154800681549084094
:101DE000134908600846006820F480200860104805
:101DF0000830006800F443700D49083108600E484F
:101E0000091F08600C4810380949843108600A48E5
:101E1000091D0860002006490C31086004488C3018
:101E200000680649084002498C31086000BD000086
:101E300000380240FFFFF6EA10300024FFFFFCFEEE
:101E40000146074A02EB9110D0F8000801F01F0389
:101E500001229A40104008B1012070470020FCE7A1
:101E600000300240074A02EB9011D1F8001800F050
:101E70001F0301229A401143024B03EB9012C2F858
:101E80000018704700300240F0B5064600240027D5
:101E900000251C2E7DD007DCB6B3102E10D0182ED6
:101EA00067D01A2E76D176E0B6F5E05F19D0B6F598
:101EB000E85F4CD0A6F5405010380028F2D134E04D
:101EC00004E01120FFF7BCFF0546641C1DB94FF666
:101ED000FF708442F5D11120FFF7B2FF00B1012756
:101EE0007AE005E041F60140FFF7AAFF0546641CD1
:101EF0001DB96FF070408442F4D141F60140FFF704
:101F00009FFF00B1012767E0FFE704E00120FFF732
:101F100097FF0546641C15B9B4F5A06FF6D10120F2
:101F2000FFF78EFF00B1012756E005E043F21100F4
:101F3000FFF786FF0546641C15B929488442F5D190
:101F400043F21100FFF77CFF00B1012744E005E0F8
:101F500041F60150FFF774FF0546641C15B920488F
:101F60008442F5D141F60150FFF76AFF00B1012725
:101F700032E004E01920FFF763FF0546641C15B941
:101F800017488442F6D11920FFF75AFF00B1012704
:101F900022E010E01FE004E01B20FFF751FF0546A0
:101FA000641C15B90E488442F6D11B20FFF748FF88
:101FB00000B1012710E004E01D20FFF741FF0546B6
:101FC000641C15B906488442F6D11D20FFF738FF7E
:101FD00000B1012700E000BF00BF3846F0BD00009F
:101FE000FFFF0F00074A02EB9011D1F8001800F034
:101FF0001F0301229A401143024B03EB9012C2F8D7
:102000000018704700300240074A02EB9011D1F8E7
:10201000001800F01F0301229A409143024B03EB8A
:102020009012C2F80018704700300240074A02EBD5
:102030009011D1F8001800F01F0301229A401143BB
:10204000024B03EB9012C2F80018704700300240B8
:10205000F0B50646059C00251D48076807F00040BE
:10206000B0F1004F07D107F08040B0F1804F01D1AF
:10207000ED1D00E06D1D022926D33F2924D805F16E
:102080004000904220D8B2F5FA7F1DD8022B05D02F
:10209000042B03D0062B01D0082B15D1022C13D30F
:1020A0000F2C11D841EA82104FF0010CCCEB530CED
:1020B00040EA0C40304340EA0460DFF814C0ACF161
:1020C0007C0CCCF8000001E00020F0BD0120FCE712
:1020D00080380240044A116821F0030141EA0002FD
:1020E000014B1A607047000008380240024800683F
:1020F00000F00C00704700000838024010B504469C
:1021000004B910BD208AFFF76DFF208CFFF76AFF2E
:10211000208EFFF767FFA088FFF764FF01220221EE
:102120006369E068FEF707FE022200216369E06848
:10213000FEF728FED4E90521E068FEF7C9FD01227B
:102140000221636AE069FEF7F6FDD4E90921E0693E
:10215000FEF7BEFD00220121636BE06AFEF7EBFD96
:1021600002220021636BE06AFEF70CFE616BE06AFD
:10217000FEF7DDFD206800F001FAA168206800F09C
:102180007FF90021206800F09BFA0021206800F010
:1021900087FA0021206800F073FA0421206800F01B
:1021A00077FA0821206800F083FA206800F054FADA
:1021B00000BFA6E710B5084890F83C0000B110BD7C
:1021C0000548FFF79BFF0120034981F83C000020F0
:1021D00000F088F800BFF2E7140000202DE9F04776
:1021E00005460C46914625B11CB1154890F83C00B7
:1021F00018B94FF0FF30BDE8F087264644F6206757
:102200001AE0B84609E0B8F10000A8F1010801D1D0
:10221000A01BF0E70120FEF779FB094908680521BA
:1022200000F01FFA0028EED00549086800F09CF97C
:1022300005F8010B761E00BF002EE2D12046DAE73A
:102240001400002070B504460D4624B11DB11B4892
:1022500090F83C0000B970BD0121184800F030F83A
:102260001648008F18B11549088FFEF74FFB00265E
:102270000DE0A15D114A106800F07BF900BF0F4925
:102280000868072100F0EDF90028F8D0761CAE426E
:10229000EFD300BF09490868062100F0E2F90028E1
:1022A000F8D00021054800F00BF80448408F18B121
:1022B0000249488FFEF72AFB00BFCCE7140000203C
:1022C00070B504460D4604B970BD25B1616BE06A76
:1022D000FEF72FFD03E0616BE06AFEF728FD00BF0B
:1022E000F2E7000010B50446074890F83C0000B93A
:1022F00010BD012C01D1012000E000200146024860
:10230000FFF7DEFF00BFF3E71400002008B5002050
:1023100000213F4A126842F480323D4B1A6000BFF0
:10232000401C3B4A126802F4003119B94FF6FF72A3
:102330009042F5D1364A126802F4003232B900BF39
:10234000334A126802F40032002AF9D0304A40328F
:10235000126842F080522E4B40331A602D4A1268A8
:1023600042F440422B4B1A60294A08321268284B2B
:1023700008331A601A46126842F400421A601A467C
:10238000126842F4A0521A60234A1B1F1A601A1FD7
:10239000126842F080721B1F1A6000BF1C4A12684C
:1023A00002F00072002AF9D01A4A126842F4803210
:1023B000184B1A6000BF174A526802F48032002A94
:1023C000F9D0144A126842F40032124B1A6000BF6E
:1023D000104A526802F40032002AF9D00C4A08323E
:1023E00012680092009A22F003020092009A42F0D2
:1023F00002020092064B0833009A1A6000BF044A9A
:102400000832126802F00802002AF8D008BD000065
:1024100000380240007000401964400910B5FFF711
:1024200075FF10BD10B5124800684FF47A71B0FB0B
:10243000F1F4601EB0F1807F01D301200FE0601E37
:102440004FF0E02148610F214FF0FF30FDF792FF80
:1024500000204FF0E021886107200861002008B1CA
:1024600000BFFEE70021481EFDF784FF10BD0000FD
:102470005400002001480068704700001000002050
:102480002DE9F04704460D460027B846B946002618
:102490003349601A8C4235D00CDC32482044E8B114
:1024A000B0F5806F1FD0B0F5006F21D0B0F5406F50
:1024B00032D122E0B0F5806F29D0B0F5184F03D0AB
:1024C000B0F51C4F28D104E00320FFF7E1FB0746DD
:1024D00023E00320FFF7DCFB07461EE00220FFF7A6
:1024E000D7FB074619E00220FFF7D2FB074614E0AE
:1024F0000220FFF7CDFB07460FE00220FFF7C8FBE5
:1025000007460AE00220FFF7C3FB074605E002206A
:10251000FFF7BEFB074600E000BF00BFE06800F425
:10252000004070B1780000EB5500B0FBF5F64FF6B7
:10253000F07006EA0008C6F3420948EA0900A06004
:102540000CE007EB5500B0FBF5F64FF6F07006EA2D
:10255000000806F00F0948EA0900A060BDE8F0870E
:102560000078004000BCFFBF01464868C0F3080087
:102570007047C1F3080242607047000010B504467E
:102580003349601A8C424DD00CDC32482044E0B113
:10259000B0F5806F22D0B0F5006F31D0B0F5406F4C
:1025A00052D136E0B0F5806F45D0B0F5184F03D06A
:1025B000B0F51C4F48D11AE040F60410FFF736FD85
:1025C00040F60410FFF720FD3FE040F61100FFF752
:1025D0002DFD40F61100FFF717FD36E040F6120022
:1025E000FFF724FD40F61200FFF70EFD2DE040F648
:1025F0000510FFF71BFD40F60510FFF705FD24E071
:1026000040F61300FFF712FD40F61300FFF7FCFC45
:102610001BE040F61400FFF709FD40F61400FFF739
:10262000F3FC12E040F61E00FFF700FD40F61E002E
:10263000FFF7EAFC09E040F61F00FFF7F7FC40F661
:102640001F00FFF7E1FC00E000BF00BF10BD00006D
:102650000078004000BCFFBFC16841F40051C16078
:10266000704710B5024602EB9110006801F01F049C
:102670000123A340184008B1012010BD0020FCE751
:10268000C26822F4C062C260C2680A43C260704776
:102690000A460021C16821F004011143C16070475E
:1026A000026922F44052026102690A4302617047E2
:1026B0000A460021C16821F008011143C16070473A
:1026C000C26822F48052C260C2680A43C260704786
:1026D0004FF04070E1EE100A704700C1814001C028
:1026E000804101C0804100C1814001C0804100C1E2
:1026F000814000C1814001C0804101C0804100C1D2
:10270000814000C1814001C0804100C1814001C0C1
:10271000804101C0804100C1814001C0804100C1B1
:10272000814000C1814001C0804100C1814001C0A1
:10273000804101C0804100C1814000C1814001C091
:10274000804101C0804100C1814001C0804100C181
:10275000814000C1814001C0804101C0804100C171
:10276000814000C1814001C0804100C1814001C061
:10277000804101C0804100C1814000C1814001C051
:10278000804101C0804100C1814001C0804100C141
:10279000814000C1814001C0804100C1814001C031
:1027A000804101C0804100C1814001C0804100C121
:1027B000814000C1814001C0804101C0804100C111
:1027C000814000C1814001C0804100C1814001C001
:1027D000804101C0804100C1814000C0C101C303EC
:1027E00002C2C60607C705C5C404CC0C0DCD0FCF69
:1027F000CE0E0ACACB0BC90908C8D81819D91BDBD9
:10280000DA1A1EDEDF1FDD1D1CDC14D4D515D71728
:1028100016D6D21213D311D1D010F03031F133F3D8
:10282000F23236F6F737F53534F43CFCFD3DFF3F28
:102830003EFEFA3A3BFB39F9F83828E8E929EB2B58
:102840002AEAEE2E2FEF2DEDEC2CE42425E527E7E8
:10285000E62622E2E323E12120E0A06061A163A358
:10286000A26266A6A767A56564A46CACAD6DAF6FE8
:102870006EAEAA6A6BAB69A9A86878B8B979BB7B58
:102880007ABABE7E7FBF7DBDBC7CB47475B577B7A8
:10289000B67672B2B373B17170B0509091519353D8
:1028A000529296565797559594549C5C5D9D5F9FA8
:1028B0009E5E5A9A9B5B99595898884849894B8BD8
:1028C0008A4A4E8E8F4F8D4D4C8C44848545874768
:1028D0004686824243834181804000000000000818
:1028E0000040000000000000004000080040000020
:1028F00008000000008000080040000010000000F8
:1029000000C000080040000018000000000001089E
:10291000000001002000000000000208000002008A
:102920002800000000000408000002003000000041
:102930000000060800000200380000005C290008C2
:10294000000000205C000000C4010008B829000855
:102950005C000020DC0B0000E0010008000000002B
:102960000000000000000000000000000000000067
:10297000001401400511000000C2010000080240DF
:10298000020C0000400000000800000000080240A7
:10299000020C000080000000080000000008024057
:1029A000020C00000002000064006400000000004F
:0829B00000C2EB0B0000000067
:040000050800018965
:00000001FF
