:020000040800F2
:10000000F01600209D010008A5010008A7010008C6
:10001000A9010008AB010008AD01000800000000C4
:10002000000000000000000000000000AF01000818
:10003000B101000800000000B3010008F902000847
:10004000B7010008B7010008B7010008B7010008B0
:10005000B7010008B7010008B7010008B7010008A0
:10006000B7010008B7010008B7010008B701000890
:10007000B7010008B7010008B7010008B701000880
:10008000B7010008B7010008B7010008B701000870
:10009000B7010008B7010008B7010008B701000860
:1000A000B7010008B7010008B7010008B701000850
:1000B000B7010008B7010008B7010008B701000840
:1000C000B7010008B7010008B7010008B701000830
:1000D000B7010008B7010008B7010008B701000820
:1000E000B7010008B7010008B7010008B701000810
:1000F000B7010008B7010008B7010008B701000800
:1001000000000000B7010008B7010008B7010008AF
:10011000B7010008B7010008B7010008B7010008DF
:10012000B7010008B7010008B7010008B7010008CF
:10013000B70100080000000000000000B70100083F
:10014000B7010008B7010008B7010008B7010008AF
:10015000B7010008B7010008B7010008B70100089F
:10016000B7010008B7010008B7010008B70100088F
:10017000B7010008B7010008B7010008000000003F
:10018000B7010008B7010008DFF80CD000F06EF8E6
:100190000048004771260008F016002006488047F6
:1001A00006480047FEE7FEE7FEE7FEE7FEE7FEE75C
:1001B000FEE7FEE7FEE7FEE71104000889010008FC
:1001C00040EA01039B0703D009E008C9121F08C0D9
:1001D000042AFAD203E011F8013B00F8013B521E59
:1001E000F9D27047D2B201E000F8012B491EFBD2D0
:1001F00070470022F6E710B513460A460446194632
:10020000FFF7F0FF204610BD2DE9F05F0546002006
:1002100092469B4688460646814640241BE0284677
:1002200041464746224600F042F853465A46C01A15
:10023000914110D311461846224600F029F82D1A94
:1002400067EB01084F4622460120002100F020F80C
:1002500017EB00094E41201EA4F10104DFDC4846E3
:1002600031462A464346BDE8F09F0000064C074D44
:1002700006E0E06840F0010394E807009847103476
:10028000AC42F6D3FFF784FF2C4C00084C4C00081E
:10029000202A04DB203A00FA02F100207047914046
:1002A000C2F1200320FA03F3194390407047202A3B
:1002B00004DB203A21FA02F00021704721FA02F310
:1002C000D040C2F120029140084319467047000017
:1002D00010B5002807DA0A07140E054A00F00F03CC
:1002E0001B1FD45403E00A07130E024A135410BD17
:1002F00018ED00E000E400E010B500F03FFD10BD97
:100300002DE9FF470FF2E80ADAE900C8DAE9029AB4
:10031000CDE900C8CDE9029ADFF8E4C0DCF800C0FE
:10032000CCF3810727B1012F09D0022F43D10DE073
:10033000DFF8D0C0DFF8D080C8F800C042E0DFF8B6
:10034000CCC0DFF8C480C8F800C03BE0DFF8B0C024
:10035000ACF1040CDCF800C00CF03F01DFF8A0C0E9
:10036000ACF1040CDCF800C0CCF38812DFF890C0CC
:10037000ACF1040CDCF800C0CCF3014C0CF1010C26
:100380004FEA4C04DFF878C0ACF1040CDCF800C094
:100390000CF48003B3F5800F01D11C4800E019482C
:1003A000B0FBF1FC0CFB02FCBCFBF4FCDFF858805A
:1003B000C8F800C006E0DFF84CC0DFF84C80C8F891
:1003C00000C000BF00BFDFF838C0DCF800C0CCF3CD
:1003D00003151DF80560DFF830C0DCF800C02CFA0A
:1003E00006FCDFF82480C8F800C0BDE8FF870000E5
:1003F00000000000000000000102030406070809D5
:10040000083802400024F4004800002040787D01B4
:100410001CB55F48006840F470005D4908605D48A5
:10042000006840F001005B49086000BF594800685F
:1004300000F002000028F9D056480830006800F0AB
:100440000C0008286ED100BF0020019002E0019846
:10045000401C019001985028F9D34E48083000689C
:100460000090009820F0F0000090009840F080008C
:10047000009048490831009808600020019002E08F
:100480000198401C019001985028F9D34148083048
:1004900000680090009820F0F0000090009840F074
:1004A000900000903B4908310098086000200190BE
:1004B00002E00198401C019001985028F9D335487A
:1004C000083000680090009820F0F000009000983C
:1004D00040F0A00000902F490831009808600020EB
:1004E000019002E00198401C019001985028F9D336
:1004F0002848083000680090009820F0F000009034
:10050000009840F0B000009022490831009808603F
:100510000020019002E00198401C019001985028B1
:10052000F9D300BFC82000F071F91A4808300068FC
:1005300020F0030017490831086016480068164982
:100540000840144908600846006820F480200860CC
:10055000002010490831086000BF0E4808300068CC
:1005600000200028F9D10D480A49091D0860002023
:1005700008490C31086004F073F84FF0006004493A
:1005800080390860BFF34F8FBFF36F8F1CBD000031
:1005900088ED00E000380240FFFFF6FE1030002436
:1005A0000FB4054B10B503A9044A029800F018F8DF
:1005B00010BC5DF814FB00002D2300084C00002047
:1005C00002E008C8121F08C1002AFAD1704770471C
:1005D000002001E001C1121F002AFBD1704700007A
:1005E0002DE9FF4F8BB09A460F460446002606E0E1
:1005F00025280BD052460D999047641C761C207814
:100600000028F5D10FB03046BDE8F08F0025A9468F
:1006100001227D4900E0054314F8013F203B02FA26
:1006200003F00842F7D120782E2817D114F8010FD3
:1006300045F004052A280ED06FF02F022078A0F193
:10064000300109290AD809EB890102EB410100EBCD
:100650000109641CF2E757F8049B641C20786C289D
:100660000DD004DC4C2812D06A2811D104E0742883
:100670000DD07A280CD10AE045F4001507E0617826
:1006800045F48015814202D1641C05F58015641C77
:10069000207869283ED006DC0028B3D063280BD030
:1006A000642804D136E0732810D075285CD05246F7
:1006B0000D999047761CA5E017F8040B8DF8000003
:1006C00000208DF80100E846012003E057F8048B74
:1006D0004FF0FF3069074FF0000501D40AE06D1CB0
:1006E0004D450DDA8542FADB18F805100029F6D1E0
:1006F00006E06D1C8542FCDB18F805100029F8D1D6
:100700002E4404E018F8010B52460D9990476D1ED7
:10071000F8D277E000200A90C5F302504FF00A0BA0
:1007200002280CD001CFC117021E71F100020CDAB1
:100730000023D0EB030063EB01012D2208E0FF1D35
:1007400027F00707F7E80201EEE72A0504D52B2278
:100750008DF82420012203E0EA070FD02022F7E7DA
:100760000DF12008089218E000200A90C5F302500D
:100770004FF00A0B022803D001CF00210022EFE73F
:10078000FF1D27F00707F7E80201F7E75A460A9B23
:10079000FFF73AFD303208F8012D50EA0102F5D199
:1007A000ADEB080000F1200B680701D44FF0010900
:1007B000D94502DDA9EB0B0000E0002081460025B1
:1007C00006E009A85246405D0D9990476D1C761CC5
:1007D00008988542F5DB04E0302052460D99904799
:1007E000761CB9F10001A9F10109F5DC05E018F862
:1007F000010B52460D999047761CBBF10001ABF1FD
:10080000010BF4DC641CFAE60928010008B500219C
:10081000009102E00099491C009100EB8001009AD0
:10082000B2EB410FF6D308BD10B503F09BFA08B93F
:1008300000BFFEE703F0B6FA08B900BFFEE703F019
:10084000D3FA04460CB100BFFEE70B49086803F079
:100850008DFA08B900BFFEE70749084803F0DCFA43
:10086000044634B905480078072802D100F008F89A
:1008700001E000BFFEE710BD000000205000002096
:1008800070B51548046845682E46601C08B1681CA0
:1008900010B900E000BFFDE772B64FF0FF300F491E
:1008A000086000200860401E091D086000200860E4
:1008B000401E0A4910390860002008604FF0E0210E
:1008C00008614861886104480549086000BF84F3F5
:1008D000088800BFB04770BD000001082038024002
:1008E00008ED00E008B541F21C0002F0A5FB01F0A4
:1008F000A5FF00BF4FF4803001F094FF0028F9D02D
:100900004FF4003001F0A4FF00BF4FF4003001F0BD
:1009100089FF0028F9D002F077FA102002F0CCFA13
:10092000102002F0DBFA08200223D0220D210090D3
:10093000C00402F0B7FB012801D000BFFEE7182079
:1009400002F0BAFA182002F0C9FA002002F094F975
:100950004FF4A05002F09CF94FF4004002F0A4F9CB
:10096000052001F087FC022002F0DEFB00BF02F050
:10097000E7FB0828FBD108BD70B504460D460020F2
:10098000E070401EE0622946204601F01DFF08B1DC
:10099000042070BD04F22E2001F063FE4AF65521BA
:1009A000884201D00320F4E794F83000E92807D00A
:1009B00094F83000EB2803D094F83000E82811D1E7
:1009C000032209A104F1660001F0D6FE08B9002057
:1009D000DFE7052205A104F1820001F0CDFE08B990
:1009E0000020D6E70220D4E7464154004641543364
:1009F00032000000024600E0521C107810B110785E
:100A00008842F9D1107870470246891E5069801ECD
:100A1000884201D8002070475389906A03FB010087
:100A2000F9E7000038B51D240B48009002E000985B
:100A3000401E0090802003F0A5FC10B9009800280B
:100A4000F5D1009810B91324204638BD034803F0AF
:100A500093FC2046F9E70000A0860100FF07C000D4
:100A600010B5024600200AE012F8014B84EA202368
:100A7000DBB2054C34F8133083EA002398B20B1E26
:100A8000A1F10101F0D110BD1C4A00082DE9F04789
:100A900082468846DAF80040B8F1000F06D1E768D0
:100AA00017B16069B84215D8012713E04146504696
:100AB00001F05CFC0546022D02D20120BDE8F08762
:100AC000681C08B92846F9E76069A84201D9284698
:100AD000F4E74746206908B90020EFE700264745BC
:100AE00018D17E1C6069B04200D8022631465046BB
:100AF00001F03CFC0546012D01D0681C08B92846D0
:100B0000DCE73DB1E568022D03D36069A84200D956
:100B10002F460026E6B93E4600BF761C6069B0420B
:100B200004D80226BE4201D90020C7E7314650460C
:100B300001F01CFC054605B909E0012D01D0681C37
:100B400008B92846BAE7BE42E7D10020B6E700BFA1
:100B50004FF0FF323146204601F090FE8146B9F158
:100B6000000F08D1B8F1000F05D0324641462046AB
:100B700001F084FE8146B9F1000F0DD1E660D4E9A1
:100B80000410801E814202D82069401E2061207915
:100B900040F00100207107E0B9F1010F02D14FF0E0
:100BA000FF3000E001200646304687E72DE9F35F7D
:100BB0008946D9F80080009800F120050B222021F9
:100BC000284601F0F8FD0020074606464FF0080BC6
:100BD00000BF3046761C18F80040202C00DC50E0A6
:100BE0002F2C01D05C2C0AD100E0761C18F80600EE
:100BF0002F28FAD018F806005C28F6D041E02E2CF9
:100C000001D05F450BD3BBF10B0F01D02E2C02D0CE
:100C10000620BDE8FC9F08274FF00B0BD9E7802C7E
:100C200003DB04F07F0021490C5C204600F048F80B
:100C3000A8B13046761C18F800A0504600F046F8DF
:100C400018B1ABF10100B84201D80620E1E73846FF
:100C50007F1C2C5438467F1C05F800A010E021466C
:100C600013A0FFF7C7FE08B10620D2E7612C04DB12
:100C70007A2C02DCA4F12000C4B238467F1C2C542C
:100C8000A7E700BF08EB0600C9F800000FB906206F
:100C9000BFE72878E52801D105202870202C01DC49
:100CA000042000E00020E8720020B2E79C49000820
:100CB000222A2B2C3A3B3C3D3E3F5B5D7C7F000073
:100CC000014609B1002070470020FCE7014609B148
:100CD000002070470020FCE710B54FF4406002F0A0
:100CE000ABF94FF4406002F0A7F941F2041002F0B2
:100CF000A3F94FF40073012202211E4801F04AFCBF
:100D00004FF40073022200211A4801F06AFC4FF4EC
:100D100000720721174801F0C0FB4FF480630122E5
:100D20000221144801F036FC4FF48062072111487B
:100D300001F0B3FB104803F039FD4FF4E1310E48E8
:100D400003F0BCFC00210C4803F0D2FD00210A484E
:100D500003F0BEFD0021084803F0AAFD0421064867
:100D600003F0AEFD0821044803F0BAFD024803F089
:100D70008BFD10BD000002400010014006480068D5
:100D800020B105480068401E034908600348006818
:100D9000401C0249086070470C0000201000002031
:100DA0002DE9F04104460E46D4F80080002120468B
:100DB00000F00FF90546EDB9002700BF4046A169D4
:100DC00001F002FD054605B113E0E0690078E52871
:100DD00002D0E069007820B9781C0746B04201D102
:100DE00007E000270121204600F070F80546002D9D
:100DF000E4D000BF042D00D107252846BDE8F081CE
:100E00002DE9F04704468946204603F07BFB10B1EC
:100E10000120BDE8F08749462046FFF7F5FD06466C
:100E2000E6624FF40072002104F1300001F0C3FCCF
:100E300004F130080127002500E03D446089A84204
:100E400007D9721960783B46414600F0DFF9002867
:100E5000F3D06089A84201D00120DAE70020D8E76A
:100E60002DE9F041044627680021204600F0B1F842
:100E7000054615B12846BDE8F08100BF3846A16996
:100E800001F0A2FC054605B11DE0E06906780EB947
:100E9000042518E0E069C07A00F03F00A071E06925
:100EA000C07A00F0080038B90B2204F12001E06993
:100EB00001F062FC00B906E00021204600F006F8CF
:100EC0000546002DDAD000BF2846D4E72DE9F041D1
:100ED000044688462768206900F12006B6F5001F01
:100EE00001D30020A061A06910B90420BDE8F08101
:100EF000C6F30800002845D1A069401CA0616069C4
:100F000038B93889B0EB561F3CD80020A0610420C6
:100F1000ECE77889401E00EA562098BB20466169BC
:100F200001F024FA0546012D01D80220DEE7681CF5
:100F300008B90120DAE77869A8421DD8B8F1000F96
:100F400003D10020A0610420D0E720466169FFF7AB
:100F50009DFD05460DB90720C8E7012D01D10220EE
:100F6000C4E7681C08B90120C0E729463846FFF7E6
:100F700047FF08B10120B9E7656129463846FFF708
:100F800043FDA0612661C6F3080107F13000084463
:100F9000E0610020AAE770B50446266801212046DA
:100FA000FFF7FEFE054695B93046A16901F00CFC3D
:100FB000054665B920220021E06901F0FCFB0B2207
:100FC00004F12001E06901F0E9FB0120F0702846FE
:100FD00070BD2DE9F04104460D462668B5F5001FA9
:100FE00002D205F01F0010B10220BDE8F08125619A
:100FF000A7681FB93078032800DB776A47B93089C2
:10100000B0EB551F01D80220EFE7706AA0611CE029
:1010100070894FEA402811E03946204601F0A6F9D0
:101020000746781C08B90120DFE7022F02D3706958
:10103000B84201D80220D8E7A5EB08054545EBD218
:1010400039463046FFF7E0FCA0616761A06908B946
:101050000220CAE7A06900EB5520A061C5F3080192
:1010600006F130000844E0610020BEE730B593B0DF
:10107000054615B1012013B030BD02F0F1FB28B9CF
:1010800003201949087008460078F4E702F0D8FFF9
:1010900004461D2C05D0012013490870084600782D
:1010A000E9E701A802F0E8FB04461D2C05D0012069
:1010B0000D49087008460078DDE7BDF8480002F0E9
:1010C000C9FD04461D2C05D00120074908700846BB
:1010D0000078D0E70448007820F003000249087047
:1010E00008460078C7E700003C00002070B50546C0
:1010F0000E4614460DB1042070BD1648007800F06D
:10110000010008B10320F7E702F0AAFB38B9114843
:10111000007840F003000F4908700320ECE736B177
:10112000012E06D0022E0AD0032E11D10CE0002091
:10113000E2E702F041FB400020600020DCE74FF4D2
:10114000007020800020D7E7012020600020D3E736
:101150000420D1E73C0000202DE9F047ADF5007DEB
:101160000746884691461D4607B925B904200DF566
:10117000007DBDE8F0871748007800F0010008B155
:101180000320F4E702F06CFB38B91248007840F015
:101190000300104908700320E9E7002416E009EB7A
:1011A00004004FEA402A4FF400725146684602F0AC
:1011B0001DF806461D2E01D00120D8E708EB44207B
:1011C0004FF400726946FEF7FBFF641CAC42E6D3A5
:1011D0000020CCE73C00002010B504460CB10120F3
:1011E00010BD02F03DFB30B90748007840F0030025
:1011F0000549087005E00448007820F00200024923
:10120000087001480078EBE73C0000202DE9F0472A
:10121000ADF5007D0746884691461D4607B925B9BC
:1012200004200DF5007DBDE8F0871748007800F038
:10123000010008B10320F4E702F012FB38B91248AC
:10124000007840F00300104908700320E9E700240B
:1012500016E009EB04004FEA402A08EB44214FF462
:1012600000726846FEF7ACFF4FF4007251466846C4
:1012700002F0D4F806461D2E01D00120D1E7641CEF
:10128000AC42E6D30020CCE73C00002010B501EBD7
:101290004102D30000F11002D25822F0010301EB09
:1012A0004102D40000F11002135110BD10B501EB42
:1012B0004102D30000F11002D25842F0010301EBC9
:1012C0004102D40000F11002135110BD30B5134695
:1012D00001EB4104E50000F11004625922F0606264
:1012E00042EA436201EB4104E50000F1100462515F
:1012F00030BD10B501EB4102D30000F11002D2580D
:1013000022F0010301EB4102D40000F1100213515D
:10131000002301EB4102D40000F11002135101EB54
:101320004102D40000F11402135101EB4102D40038
:1013300000F11802135101EB4102D40000F11C022C
:10134000135101EB4102D40000F12002135121237B
:1013500001EB4102D40000F12402135104290CDAFC
:1013600001EB41025300C1F3400203EB82033D2233
:101370009A4083681A4382600DE00A1FD1B201EBE4
:1013800041025300C1F3400203EB82033D229A4025
:10139000C3681A43C26010BD10B504290CDA01EB12
:1013A00041035C00C1F3400304EB830302FA03F33F
:1013B0008468234383600DE00B1FD9B201EB410326
:1013C0005C00C1F3400304EB830302FA03F3C46837
:1013D0002343C36010BD10B5034604290FDA01EBA7
:1013E00041004400C1F3400004EB800402FA04F021
:1013F0001C68204008B1012010BD0020FCE7081F38
:10140000C1B201EB41004400C1F3400004EB800491
:1014100002FA04F05C68204008B10120ECE70020EB
:10142000EAE730B572B901EB4103DC0000F11003CB
:101430001B5923F0200401EB4103DD0000F11003F0
:101440005C510DE001EB4103DC0000F110031B597E
:1014500043F0200401EB4103DD0000F110035C5177
:1014600030BD000070B501EB4104E50000F124043B
:101470006459156A45F004052C4301EB4105EE0063
:1014800000F12405AC5101EB4104E60000F1180421
:101490001568A55101EB4104E60000F11C04D56874
:1014A000A55101EB4104E60000F11404D56AA551F1
:1014B00001EB4104E50000F110046359414C234065
:1014C000156954682C43156B2C43956A2C43956918
:1014D0002C43D5692C43234301EB4104E50000F183
:1014E00010046351946874B901EB4104E50000F104
:1014F0001004645944F4007501EB4104E60000F166
:101500001004A5511FE09468012C0ED101EB410499
:10151000E50000F11004645924F4007501EB410466
:10152000E60000F11004A5510DE001EB4104E500D7
:1015300000F11004645944F4004501EB4104E60055
:1015400000F11004A551546974B901EB4104E500A0
:1015500000F11004645944F4806501EB4104E60095
:1015600000F11004A5510DE001EB4104E50000F18C
:101570001004645924F4806501EB4104E60000F195
:101580001004A551546A74B901EB4104E50000F15F
:101590001004645944F4807501EB4104E60000F145
:1015A0001004A5510DE001EB4104E50000F1100429
:1015B000645924F4807501EB4104E60000F1100445
:1015C000A55170BD3F871CFE30B58DB004460D4659
:1015D000012203212748FFF7DFFE042203212548CB
:1015E000FFF7DAFE082203212248FFF7D5FE10227A
:1015F00003212048FFF7D0FE202203211D48FFF7DA
:10160000CBFE03211B48FFF741FE03211948FFF7DA
:1016100070FE19480090039400200A900B9001205E
:101620000290002005904FF48050019080000490BB
:101630004FF440300C904FF400100790800006905B
:1016400003200890012009906A4603210948FFF70A
:1016500009FF012203210748FFF7E3FE04220321CB
:101660000448FFF733FE03210248FFF71FFE0DB0C9
:1016700030BD000000640240802C014030B58DB0C8
:1016800004460D46012203212748FFF785FE042268
:1016900003212548FFF780FE082203212248FFF797
:1016A0007BFE102203212048FFF776FE2022032133
:1016B0001D48FFF771FE03211B48FFF7E7FD0321DB
:1016C0001948FFF716FE19480090039440200A902D
:1016D00000200B9001200290002005904FF48050D4
:1016E0000190800004904FF440300C904FF40010B3
:1016F00007908000069001200990032008906A4618
:1017000003210948FFF7AEFE012203210648FFF737
:1017100088FE042203210448FFF7D8FD0321024874
:10172000FFF7C4FD0DB030BD00640240802C0140C5
:101730000A48006840F080700849086000200849A5
:1017400048600846006840F00100086005480068ED
:101750000549B0FBF1F0054908607047FCED00E079
:10176000001000E04800002040420F00140000205C
:1017700038B50546284600F0CBF904463CB9694621
:10178000284603F0BDF804460CB900202860204626
:1017900038BD0000F7B582B016460398019001A845
:1017A00000F054FE0546002D02DA0B2005B0F0BD16
:1017B0000C4850F825400CB100202070029810B160
:1017C0000020029908700749029841F825000EB9D7
:1017D0000020EBE7002202A903A800F0D5F9074694
:1017E0003846E3E7400000202DE9F74F8EB004466D
:1017F00016461CB9092011B0BDE8F08F06F03F066F
:10180000324602A90FA800F0BFF90546002D7DD190
:101810000298039003A80F9900F038FD05462DB9F2
:101820009DF8370000F0800000B1062506F01C008E
:1018300000284DD045B1042D03D103A8FFF7ABFB21
:10184000054646F008060AE09DF8120000F0110077
:1018500008B1072503E006F0040000B10825002DBB
:1018600047D106F00800002843D00A99029800F0FA
:10187000D9FE81460A9901F10E004A4902F0E8FDBD
:1018800020200A99C87200220A99029802F0CEFD1F
:101890000A9901F11C00002102F0DAFD01200299F1
:1018A000C870B9F1000F24D00298C06A01900022DC
:1018B000494603A801F04CFC0546D5B9DDE9011005
:1018C00000F082FF0546A9F101000299C86010E00E
:1018D0007DB99DF8120000F0100008B1042508E061
:1018E00006F0020028B19DF8120000F0010000B1DE
:1018F00007254DB906F0080008B146F040060298E9
:10190000C06A20620A986062002D00E041E044D184
:101910000A99029800F086FEA0600A9901F11C0065
:1019200000F093FEE060029820600298C088A080DA
:10193000267400206074E061606106F0200040B30E
:10194000E06830B3E0686061029840894FEA402A5D
:10195000A768D4F80C800CE03946204600F006FD5C
:101960000746012F00D80225781C00B90125A8EBF5
:101970000A080DB9D045EFD8A76155B9C8F30800DA
:1019800038B139460298FFF73FF8B0F1000B01D1AA
:10199000022502E00BEB5820E0610DB10020206031
:1019A000284628E70000215A2DE9FF4F85B004465C
:1019B00015469A46DDF818B00020CAF8000003A9C1
:1019C000204602F09DFF0490049810B9607C0490BA
:1019D00018B1049809B0BDE8F08F207C00F0010038
:1019E00008B90720F6E76169E068401A019001989C
:1019F000854200D9019D85E0A08AC0F30800002837
:101A00005BD103984089401E616900EA5129B9F110
:101A1000000F17D1606910B9A068029004E0204659
:101A2000A16900F0A3FC02900298022802D20220D1
:101A30006074CFE70298401C10B901206074C9E7B8
:101A40000298A061A1690398FEF7DEFF064616B969
:101A500002206074BEE74E444FEA5528B8F1000FEB
:101A60002AD009EB080003994989884203D90398D1
:101A70004089A0EB09080399487843463246594605
:101A8000FFF76AFB10B101206074A3E70398C078E8
:101A900078B10398C06A801B40450AD20399C96A8D
:101AA000891B0BEB41204FF400720399303100F099
:101AB00075FE4FEA48271BE0E661A08AC0F30800E4
:101AC000C0F50077AF4200D92F46E169039800F0D6
:101AD0007BFE10B1012060747CE7A08AC0F308028D
:101AE0000398303011183A46584600F057FE00BFB0
:101AF000ED1BDAF800003844CAF80000BB44606906
:101B000038446061002D7FF477AF002062E7000069
:101B1000F8B504466946204602F0F2FE064676BB5A
:101B2000207C00F0400050B3164F216A009800F06E
:101B30004BFE06461EBB656AE87A40F02000E8725C
:101B40002946A268206802F071FC05F11C00E168DA
:101B500002F07EFC394605F1160002F079FC002106
:101B600005F1120002F080FC01200099C870009875
:101B700002F080FC0646207C00F0BF002074304656
:101B8000F8BD00000000215A2DE9F74F8AB000216E
:101B90000B9801600A9800F059FC089008980028FA
:101BA00003DA0B200DB0BDE8F08FB549089851F865
:101BB00020400CB90C20F5E70B9804600C9800F05D
:101BC000FE000C90207878B16078FFF705FB814625
:101BD00009F0010040B90C9820B109F0040008B1E7
:101BE0000A20DFE70020DDE7002020700898607001
:101BF0006078FFF73BFA814609F0010008B1032045
:101C0000D0E70C9820B109F0040008B10A20C9E718
:101C1000002739462046FEF7AFFE0546022D01D0CB
:101C20002EDA2DE0002614E04FF4DF7000EB0611F1
:101C300004F13000084409900998007920B109980E
:101C4000083000F002FD00E0002002A941F8260063
:101C5000761C042EE8D3002606B1761E00BF02A82B
:101C600050F8267027B139462046FEF785FE00E081
:101C700003200546022D03DB701C06460428EED324
:101C8000042D01D101208DE7022D01DB0D2089E714
:101C900004F13B0000F0E5FCB0F5007F01D00D2021
:101CA00080E704F1460000F0DCFC8046B8F1000F4C
:101CB00004D104F1540000F0C8FC8046C4F8188038
:101CC0004020005DA070A078012804D0A0780228F0
:101CD00001D00D2066E7A07808FB00F83D20005DEC
:101CE0006081608918B16089411E084008B10D20EB
:101CF00058E704F1410000F0B4FC2081207A00F0A4
:101D00000F0008B10D204DE704F1430000F0A9FCDD
:101D10008346BBF1000F04D104F1500000F095FCA4
:101D2000834604F13E0000F09CFC0190019808B944
:101D30000D2037E701984044218900EB11100790EE
:101D40000798834501D20D202CE70798ABEB0000E4
:101D50006189B0FBF1FABAF1000F01D10D2021E742
:101D600000254848824500D803254FF6F570824586
:101D700000D8022540F6F570824500D801250DB93E
:101D80000D200FE70AF102006061E7610198384415
:101D9000206207983844A062032D13D104F15A0041
:101DA00000F05FFC08B10D20FCE6208908B10D2091
:101DB000F8E604F15C0000F048FC606260698000B5
:101DC000069014E0208908B90D20EBE6206A404413
:101DD0006062022D02D16069400007E0207D00F0C2
:101DE0000100616901EB410100EB51000690A1691E
:101DF000069800F2FF10B1EB502F01D20D20D1E672
:101E00004FF0FF302061E06080202071032D2CD145
:101E100004F1600000F025FC012826D1791C204641
:101E200000F0D2FC08BB0020207104F22E2000F04C
:101E300018FC4AF65521884217D104F1300000F011
:101E400004FC1149884210D104F5057000F0FDFB37
:101E50000E49884209D104F5067000F0F6FB2061B6
:101E600004F5077000F0F1FBE06025700848008879
:101E7000401C80B206490880E080002092E6000005
:101E800040000020F5FFFF0F525261417272416124
:101E9000440000200146B1F1006F04D303488142A1
:101EA00001D2012070470020FCE700000000080874
:101EB0002DE9F041044614B90020BDE8F081B4F5E5
:101EC000E02F01D90220F8E71A4D28462618AE4225
:101ED00001D20220F1E72846FFF7DCFF18B1701E9F
:101EE000FFF7D8FF08B90220E7E71FE0284600F017
:101EF0008FF807460FB90220DFE700F07FF940F2C4
:101F0000D31000F005F9B86800F022F98046B8F166
:101F1000000F05D000F002F9404600F099F8CCE738
:101F200000F0FCF8D7E90001451800BFB542DDD349
:101F30000020C2E70000010810B500F05FF900F0D2
:101F4000DCF804460CB1204610BD40F2D31000F07E
:101F5000DFF80020F8E710B500F0CFF800F0DEF869
:101F600010BD00002DE9F84F04460F46154607B195
:101F700015B90120BDE8F88F04F0030010B905F091
:101F8000030008B10120F5E7B5F5002F01D90220C3
:101F9000F0E76019A0F10108A04501D20220E9E7AD
:101FA0002046FFF777FF18B14046FFF773FF08B9E7
:101FB0000220DFE71548844201D20420DAE7FFF768
:101FC000BBFF06461EB1FFF7C6FF3046D2E7A1466B
:101FD0004FF0000A12E007EB0A00D0F800B05946B3
:101FE000484600F01DF90090009800F031F80646D0
:101FF00006B105E009F104090AF1040AAA45EAD389
:1020000000BFFFF7A8FF3046B4E70000000001085A
:1020100070B504462046FFF73DFF08B9002070BDAB
:1020200000210EE001EB4103084D05EB8300D0E9F0
:1020300000355A190368A34202D8944200D2EEE751
:10204000491C0829EED30020E9E700003C490008BC
:10205000014608290BD2DFE801F004060D0C0B083D
:102060000E0F002070470320FCE70420FAE700BFB2
:1020700000BF00BF00BF00BF0620F3E72DE9F04717
:1020800005460C461CB12846FFF704FF10B9012095
:10209000BDE8F087B4F5002F01D90220F8E7281930
:1020A000461EAE4201D20220F2E73046FFF7F2FEB2
:1020B00008B90220ECE72F464FEA940804F0030920
:1020C000002106E057F82100401C08B10520DFE799
:1020D000491C4145F6D3B9F1000F0CD007EB88023B
:1020E000002105E0505CFF2801D00520D0E7491C05
:1020F0004945F7D300BF0020CAE710B56FF0304064
:1021000000F016F804462046FFF7A2FF10BD0000BD
:1021100001490860704700000C3C02400348006819
:1021200040F000400149086070470000103C024048
:1021300010B50346012400BF00F03AF804465B1EC8
:10214000012C01D1002BF7D103B90724204610BD83
:1021500030B5044600256FF03040FFF7E9FF054633
:102160000DBB1248006820F0F800104908600846CE
:10217000006844F0020108430C4908600846006802
:1021800040F4803008606FF03040FFF7D1FF054623
:102190000648006820F0020004490860084600680C
:1021A00020F0F8000860284630BD0000103C0240D6
:1021B0000020114A116801F480320AB1012019E0AF
:1021C00001F480720AB1022014E001F080020AB129
:1021D00003200FE001F040020AB104200AE001F000
:1021E00010020AB1052005E001F002020AB1062042
:1021F00000E00020704700000C3C024005480068E9
:1022000000F0004028B1044802490C390860034836
:1022100008607047103C024023016745AB89EFCD51
:1022200070B504460D4600266FF03040FFF780FF82
:102230000646DEB90E48006820F440700C4908607C
:102240000846006840F4007008600846006840F0E6
:102250000100086025606FF03040FFF769FF064617
:102260000348006820F0010001490860304670BD55
:10227000103C0240044A116821F00F0141EA0002BB
:10228000014B1A6070470000003C02402DE9F34109
:102290000446276802E00198401C019001980078EC
:1022A0002F28F8D0019800785C28F4D00020A06096
:1022B00001980078202808D280212B200155002188
:1022C0002046FEF786FE05462CE000BF01A9204609
:1022D000FEF76CFC054605B123E02046FEF7C0FD85
:1022E00005462B20065D3DB1042D04D100BF06F04C
:1022F000040000B9052514E006F0040000B110E068
:10230000A07900F0100008B905250AE0208AC0F382
:10231000080207F130001118384600F083F9A06078
:10232000D4E700BF2846BDE8FC81000070B5044634
:102330000D460A2C0AD10D210B4802F033FA00BFDA
:102340000721094802F0A5FA0028F9D0E1B20648B1
:1023500002F028FA00BF0721034802F09AFA002889
:10236000F9D0204670BD0000001001402DE9F04773
:1023700081460C46D9F80050022C02D36869A0426D
:1023800002D84FF001085EE04FF0FF3828780128AE
:1023900004D002282CD0032851D13CE0264606EB7D
:1023A0005606286A00EB5621284600F00DFA00B1C7
:1023B00048E03046761CC0F3080105F13000475C68
:1023C000286A00EB5621284600F0FEF900B139E0FA
:1023D000C6F3080105F13000405C47EA002704F02D
:1023E000010008B1380901E0C7F30B00804629E07D
:1023F000286A00EB1421284600F0E6F900B121E03C
:1024000040F2FF1101EA440205F13001501800F0DA
:1024100028F9804616E0286A00EBD411284600F01F
:10242000D3F900B10EE040F2FF1101EA840205F198
:102430003001501800F009F920F0704802E04FF028
:10244000010800BF00BF4046BDE8F08770B50446F4
:102450004FF0FF3026683146324601B970BD00BFEB
:1024600012F8013B212B01D33A2BF9D13A2B11D190
:1024700001250E78302E08DB0E78392E05DC8E1CF7
:10248000964202D10E78A6F13005012D01DA2846D8
:102490002260E3E7002000BFE0E7F0B503461C6AD6
:1024A0005D6A00200DE00126864016403EB187009F
:1024B0000F26BE40B443860001FA06F63443461C9C
:1024C000B0B20828EFD3082011E00126864016405C
:1024D0005EB1A0F10806B7000F26BE40B543A0F1DB
:1024E0000806B60001FA06F63543461CB0B21028BD
:1024F000EBD31C625D62F0BD10B54FF4F8520C21B5
:102500001E48FFF7CAFF04220C211D48FFF7C5FF34
:102510004FF4706301220221184800F03BF84FF499
:10252000706302220021154800F05BF84FF48053DD
:1025300000220221114800F02DF84FF480530222AE
:1025400000210E4800F04DF80423012202210C481E
:1025500000F020F8042302220021094800F041F88D
:10256000802301220021054800F014F88023002276
:102570001146024800F035F810BD00000008024086
:10258000000C024002461069084008B10120704763
:102590000020FCE7F0B504460D4616462168E268C7
:1025A000002019E0012787401F409FB14FEA400CEF
:1025B000032707FA0CF7B943470005FA07F7394331
:1025C0004FEA400C032707FA0CF7BA43470006FA14
:1025D00007F73A43471CB8B21028E3D32160E26002
:1025E000F0BDF0B50C461546012C03D146681E43DC
:1025F000466002E046689E434660826800210DE026
:1026000001268E401E403EB14F000326BE40B2431D
:102610004E0005FA06F632434E1CB1B21029EFD334
:102620008260F0BD70B505460C4604F11A0000F05A
:1026300018F806462878032805D104F1140000F0A4
:1026400010F846EA0046304670BD0146C8788A78E0
:1026500042EA00204A7842EA00200A7842EA002052
:102660007047014648780A7842EA00207047000027
:10267000FDF7CEFEFEF736F9FDF742FE01F0F4FF5E
:10268000FEF72AFB1BA0FDF78BFF26A0FDF788FFB6
:102690002DA0FDF785FF00BF41F21C0000F0CCFC2F
:1026A00040F6124000F0C8FC3248006845F6A5210B
:1026B000884201D1012000E0002008B9FEF7E0F8CF
:1026C00000BF00BF41F21C0000F0B6FC40F6124013
:1026D00000F0B2FC00F09CF800BF00202549086023
:1026E00000BF00F08BF800BF00BFFEF79DF800BFF1
:1026F000FEE700000D0A3D3D3D3D3D3D3D3D3D3D7C
:102700003D3D3D3D3D3D3D3D3D3D3D3D3D3D3D3DF9
:102710003D3D3D3D3D3D3D3D3D3D3D3D3D3D0D0A4C
:1027200000000000426F6F744C6F6164657220534B
:1027300074617274202855534152543020446562AC
:102740007567290D0A0000003D3D3D3D3D3D3D3D85
:102750003D3D3D3D3D3D3D3D3D3D3D3D3D3D3D3DA9
:102760003D3D3D3D3D3D3D3D3D3D3D3D3D3D3D3D99
:102770000D0A000050280040F0B503461D460C46E7
:10278000002000BF15F8017B14F801CBA7EB0C006B
:10279000561E321E01D00028F4D0F0BD30B50346DD
:1027A0000C463AB100BF14F8015B03F8015B551EFB
:1027B0002A1EF8D130BD10B5034600BF03F8011B37
:1027C000541E221EFAD110BD70B504460D460026D7
:1027D000E06AA84210D0204601F094FE06465EB999
:1027E000607801232A4604F13001FEF7B5FC10B1F0
:1027F0004FF0FF350126E562304670BD03480068A2
:1028000020F48070014908607047000000700040AB
:102810000348006840F48070014908607047000078
:1028200000700040014604484068084008B101209B
:1028300070470020FCE7000000700040034800687B
:1028400040F480300149086070470000007000408B
:1028500000B5024600BF4FF48030FFF7E3FF0128C8
:10286000F9D10548006820F40030034908600846A3
:1028700000681043086000BD007000402DE9F0477B
:1028800004460D4616464FF00209022D74D36069C6
:10289000A84271D92078012804D0022849D0032801
:1028A0000DD15EE02F4607EB5707206A00EB57215A
:1028B0002046FFF789FF8146B9F1000F00D075E08F
:1028C00038467F1CC0F3080104F1300001EB00081A
:1028D00005F0010028B1F1B298F8000061F31F1073
:1028E00000E0304688F800000120E070206A00EB2C
:1028F00057212046FFF768FF8146B9F1000F00D04D
:1029000054E0C7F3080104F1300001EB000805F0C2
:10291000010010B1C6F3071006E098F8000000F0BF
:10292000F000C6F30321084388F800000120E0709E
:102930003CE0206A00EB15212046FFF745FF814669
:10294000B9F1000F00D031E0B1B240F2FF1202EA5B
:10295000450304F13002981801F086FD0120E07073
:1029600024E0206A00EBD5112046FFF72DFF8146B9
:10297000B9F1000F01D019E019E040F2FF1101EAAE
:10298000850204F130015018FFF75FFE66F31B006B
:10299000064640F2FF1101EA850204F130015018A9
:1029A000314601F055FD0120E07000BF00BF4846F0
:1029B000BDE8F0872DE9F04105461D2700240026DB
:1029C0001A48046801E01948046804F0450000282A
:1029D000F9D004F0010030B11127012001F0CCFC46
:1029E0003846BDE8F08104F0040028B11327042024
:1029F00001F0C2FC3846F4E701F028FCA84202D0FE
:102A000008273846EDE70A4801F0B6FC002001F03F
:102A1000E1FC06460748304010B91D273846E0E77C
:102A2000304600F009F807463846DAE7342C014012
:102A3000FF07C00008E0F9FD01461C2001F000423C
:102A40000AB100204EE001F080420AB1012049E0C5
:102A500001F000520AB1022044E001F080520AB1B4
:102A600003203FE001F000620AB104203AE001F0E7
:102A700080620AB1052035E001F080720AB10620BB
:102A800030E001F400020AB107202BE001F48002DB
:102A90000AB1082026E001F400120AB1092021E061
:102AA00001F480120AB10A201CE001F400220AB1EC
:102AB0000B2017E001F480320AB10C2012E001F47F
:102AC00000420AB10D200DE001F480420AB10E204F
:102AD00008E001F400520AB10F2003E001F00802FF
:102AE00002B110207047000070B51D250024104869
:102AF000046801E00E48046804F045000028F9D09D
:102B000004F0010028B11125012001F035FC284610
:102B100070BD04F0040028B11325042001F02CFC42
:102B20002846F5E7034801F027FC2846F0E70000B7
:102B3000342C0140FF07C00070B51D2500240B4850
:102B4000046801E00948046804F045000028F9D051
:102B500004F0040028B11325042001F00DFC2846E0
:102B600070BD034801F008FC2846F9E7342C014009
:102B7000FF07C0002DE9F04107460E464FF01D0843
:102B8000002500242348056801E02248056805F077
:102B900045000028F9D005F0010038B14FF01108C8
:102BA000012001F0E9FB4046BDE8F08105F004009A
:102BB00030B14FF01308042001F0DEFB4046F3E78C
:102BC00001F044FBB84203D04FF008084046EBE761
:102BD000114801F0D1FB002001F0FCFB044604F495
:102BE000604018B9200C30804046DDE704F4004016
:102BF00010B14FF007080AE004F4804010B14FF024
:102C0000080804E004F4005008B14FF00B084046F7
:102C1000CAE70000342C0140FF07C00038B51C256E
:102C20000024134800901348046804E01148046825
:102C30000098401E009004F0450010B9009800284C
:102C4000F4D104F0040008B9009828B91325042031
:102C500001F092FB284638BD04F0400028B11D2544
:102C6000402001F089FB2846F5E72846F3E70000FD
:102C7000A0860100342C0140044A116821F0F001C3
:102C800041EA0002014B1A60704700000838024018
:102C9000044A116821F4E05141EA0002014B1A6034
:102CA0007047000008380240044A116821F460416E
:102CB00041EA0002014B1A607047000008380240E8
:102CC0002DE9F04F8CB0064600200A903EA090E817
:102CD000004CC068CDE905BECDF810A007900FF2FA
:102CE000EC0ADAE9000ACDE9020A0FF2E00ADAE9B1
:102CF000000ACDE9000A38480068C0F381000B9053
:102D00000B9820B1012804D0022828D103E03349D0
:102D100027E0334925E03048001F006800F03F07F6
:102D20002D48001F0068C0F3881C2B48001F006856
:102D3000C0F30140401C4FEA40092748001F0068CB
:102D400000F48008B8F5800F01D1254B00E0234B3B
:102D5000B3FBF7F000FB0CF0B0FBF9F101E01F4909
:102D600000BF00BF1C480068C0F3031404A8055D41
:102D700021FA05F218480068C0F3822402A8055D14
:102D800022FA05F0099014480068C0F342341DF897
:102D9000045022FA05F0089036B1012E06D0022E1A
:102DA00006D0032E0AD106E00A9108E00A9206E056
:102DB00009980A9003E008980A9000E000BF00BF5D
:102DC0000A980CB0BDE8F08F000000000000000081
:102DD0000102030406070809083802400024F40031
:102DE00040787D0110B540F6024000F025F940F62C
:102DF000034000F021F941F20B1000F01DF940F6FC
:102E0000164000F019F910BD00B51E48006840F0EA
:102E100001001C490860002000F060F819480830E3
:102E2000006820F003001749083108601548006861
:102E300015490840134908600846006820F48020BE
:102E4000086010480830006800F443700D490831EC
:102E500008600E48091F08600C4810380949843181
:102E600008600A48091D0860002006490C31086006
:102E700004488C3000680649084002498C310860DB
:102E800000BD000000380240FFFFF6EA10300024C9
:102E9000FFFFFCFE0146074A02EB9110D0F8000844
:102EA00001F01F0301229A40104008B10120704731
:102EB0000020FCE700300240074A02EB9011D1F8F5
:102EC000001800F01F0301229A401143024B03EB4C
:102ED0009012C2F80018704700300240F0B5064664
:102EE0000024002700251C2E7DD007DCB6B3102E51
:102EF00010D0182E67D01A2E76D176E0B6F5E05FA6
:102F000019D0B6F5E85F4CD0A6F54050103800282F
:102F1000F2D134E004E01120FFF7BCFF0546641C49
:102F20001DB94FF6FF708442F5D11120FFF7B2FFB3
:102F300000B101277AE005E041F60140FFF7AAFF62
:102F40000546641C1DB96FF070408442F4D141F60F
:102F50000140FFF79FFF00B1012767E0FFE704E0B2
:102F60000120FFF797FF0546641C15B9B4F5A06F63
:102F7000F6D10120FFF78EFF00B1012756E005E0F2
:102F800043F21100FFF786FF0546641C15B9294876
:102F90008442F5D143F21100FFF77CFF00B1012715
:102FA00044E005E041F60150FFF774FF0546641C5C
:102FB00015B920488442F5D141F60150FFF76AFF68
:102FC00000B1012732E004E01920FFF763FF054656
:102FD000641C15B917488442F6D11920FFF75AFF2F
:102FE00000B1012722E010E01FE004E01B20FFF702
:102FF00051FF0546641C15B90E488442F6D11B20CA
:10300000FFF748FF00B1012710E004E01D20FFF7A3
:1030100041FF0546641C15B906488442F6D11D20BF
:10302000FFF738FF00B1012700E000BF00BF3846BE
:10303000F0BD0000FFFF0F00074A02EB9011D1F82E
:10304000001800F01F0301229A401143024B03EBCA
:103050009012C2F80018704700300240074A02EB95
:103060009011D1F8001800F01F0301229A409143FB
:10307000024B03EB9012C2F8001870470030024078
:10308000074A02EB9011D1F8001800F01F0301224B
:103090009A401143024B03EB9012C2F8001870479C
:1030A00000300240F0B50646059C00251D48076823
:1030B00007F00040B0F1004F07D107F08040B0F1B9
:1030C000804F01D1ED1D00E06D1D022926D33F295F
:1030D00024D805F14000904220D8B2F5FA7F1DD8DF
:1030E000022B05D0042B03D0062B01D0082B15D1C1
:1030F000022C13D30F2C11D841EA82104FF0010C8F
:10310000CCEB530C40EA0C40304340EA0460DFF85B
:1031100014C0ACF17C0CCCF8000001E00020F0BD44
:103120000120FCE780380240044A116821F00301C5
:1031300041EA0002014B1A60704700000838024063
:103140000248006800F00C00704700000838024098
:103150002DE9F04781460E4617464FF00008D9F892
:103160000040022E02D36069B04202D80220BDE8BE
:10317000F08767B100BF4FF0FF3239462046FFF7B6
:103180007DFB8046B8F1000F01D04046EFE700BF5D
:1031900031464846FFF7EAF8054605B922E0012D19
:1031A00001D10220E3E7681C08B90120DFE7002213
:1031B00031462046FFF762FB8046B8F1000F01D090
:1031C0004046D4E7D4E90410801E814206D220692B
:1031D000401C2061207940F0010020712E4660697A
:1031E000B042D5D800BF0020C1E700002DE9F84F5C
:1031F0000746894614461D264FF000084FF0000A86
:103200004FF0000B3D46002000901FB919263046B4
:10321000BDE8F88F1D2078490870002077490860C4
:103220007749086000221146104601F03BF8002162
:10323000084601F05BF801F08BF801F075F800200A
:1032400001F0C8F800F0007030B106263146B12018
:1032500000F0C8FF3046DBE76A480078022802D158
:1032600004024FEA5929601E00EA040A002C1FDDFF
:10327000B4F5006F1CDCBAF1000F19D1204600F044
:1032800065FD834640222146102000F0E5FF002026
:1032900001F0BEF800F0FCFF1020FFF78BFB0646A4
:1032A0001D2E0CD03146B32000F09CFF3046AFE716
:1032B00019263146B22000F095FF3046A8E70020DD
:1032C000514908604E4804605A4601684FF0FF308B
:1032D00000F0E8FF0221002001F008F801F042F8B8
:1032E00040224946112000F0B7FF002001F090F87D
:1032F00000F0CEFF1120FFF75DFB06461D2E01D02A
:10330000304685E741480068012851D111E04FF46B
:10331000004001F037F860B14FF0000805E000F020
:10332000DFFF45F8280008F10108B8F1080FF6D3CF
:10333000203540F22A6001F025F80028E7D002206D
:1033400001F020F828B11226022001F015F83046CD
:103350005EE7082001F016F828B11426082001F0D5
:103360000BF8304654E7202001F00CF828B116265F
:10337000202001F001F830464AE74FF4007001F0D8
:1033800001F830B117264FF4007000F0F5FF304619
:103390003EE703E000F0A4FF28602D1D4FF400106D
:1033A00000F0F0FF0028F5D1194800F0E5FF21E01A
:1033B00016480068E8B940F2293000F0F7FF00F045
:1033C000BDFF21463846FEF7FFF81248009006E0A0
:1033D0000098401E0090009808B91C2018E7202291
:1033E00003210D48FDF7F7FF20B900980028EFD121
:1033F00000E0192630460BE73000002034000020A2
:1034000028000020200000202C00002024000020A4
:10341000FF07C000A0860100006402402DE9F04FC4
:1034200085B081468A4614461D250020049000265A
:10343000834603904F468046029001900090B9F178
:10344000000F08D119252946B02000F0CBFE2846F0
:1034500005B0BDE8F08F00F003FA08B91C20F7E7CB
:103460001D20CB4908700020CA490860CA4908607D
:1034700000221146104600F015FF0021084600F01A
:1034800035FF00F065FF00F04FFF002000F0A2FFC5
:1034900000F0007010B106252846D9E7BF48007833
:1034A000022802D104024FEA5A2A601E00EA040BE5
:1034B000002C1BDDB4F5006F18DCBBF1000F15D13B
:1034C000204600F043FC039040222146102000F0EB
:1034D000C3FE002000F09CFF00F0DAFE1020FFF792
:1034E00069FA05461D2D04D02846B1E7192528465E
:1034F000AEE7AB480088010440220D2000F0ACFE8E
:10350000002000F085FF00F0C3FE0D20FFF752FA07
:1035100005461D2D05D02946B42000F063FE28463F
:1035200096E7002000F056FF01909E4800901EE0B4
:103530000098401E00909A480088010440220D2007
:1035400000F08AFE002000F063FF00F0A1FE0D20D5
:10355000FFF730FA05461D2D05D02946B52000F0AD
:1035600041FE284674E7002000F034FF01900198E6
:1035700000F4807010B900980028D9D1009828B9BB
:103580001C21B62000F02EFE1C2061E7402251468F
:10359000182000F061FE002000F03AFF00F078FEF5
:1035A0001820FFF707FA05461D2D05D02946B7203C
:1035B00000F018FE28464BE700207B49086076485B
:1035C0000460039A01684FF0FF3000F06BFE0021A9
:1035D000084600F08BFE00F0C5FE74480068012824
:1035E00076D134E04FF4804000F0CCFE78B36A48E6
:1035F0000068A0EB080020281DD267480078A0EBE7
:10360000080000F0030008B1012000E0002062493A
:103610000968A1EB080100EB91000290002606E08A
:10362000386800F071FE3F1D08F10408761C02980E
:1036300086420CD2F4E7002604E057F8260000F09A
:1036400063FE761C082EF8D3203708F1200840F2DC
:103650001A6000F097FE0028C4D0022000F092FE0D
:1036600048B11225022000F087FE2946B82000F05C
:10367000B9FD2846ECE6082000F084FE48B1142588
:10368000082000F079FE2946B92000F0ABFD28465D
:10369000DEE6102000F076FE48B11525102000F07F
:1036A0006BFE2946BA2000F09DFD2846D0E64FF477
:1036B000007000F067FEE8B317254FF4007000F0CB
:1036C0005BFE2946BB2000F08DFD2846C0E6FFE7E3
:1036D0003648006878BB40F21A3000F067FE214699
:1036E0004846FDF7CBFF00F029FE2E4800900AE087
:1036F0000098401E0090009828B91C21BC2000F0C2
:1037000071FD1C20A4E6202203212948FDF763FE59
:1037100010B900980028EBD100BF1E48006818B906
:103720001B4800781D28F8D0194800781D2811D0B2
:10373000174801E00EE006E00178BD2000F052FDE0
:103740001348007884E619252946BE2000F04AFD7A
:1037500028467DE6174800F00FFE04A800F08EFA18
:10376000054603E004A800F089FA05461D2D07D19F
:103770009DF810000728F5D09DF810000628F1D01C
:103780001D2D03D02946BF2000F02CFD28465FE602
:1037900030000020340000202800002020000020FD
:1037A00022000020A08601002C0000202400002020
:1037B00000640240FF07C00070B500210023002410
:1037C00000200022244D2D781DB1234D2D78012D90
:1037D0002DD1224DAD88C5F3072101F0030542EA42
:1037E00085221E4D297942EA8102AD68290E42EAFE
:1037F00091121A4DAD68C5F307418D076B0F174D38
:103800002D89C5F3072143EAD113144D6D68C5F323
:10381000074101F00F049D1C012606FA05F5561C10
:1038200005FB06F00125A5406843800A13E00A4D18
:103830002D78022D0FD1094D29798D06AA0A074D41
:10384000AD68290E42EA0122044DAD68C5F3074177
:103850000A43551C680270BD20000020A000002013
:1038600010B580210348FEF78DFE08B9012010BD78
:103870000020FCE70008024030B501461D20002270
:1038800009B9192030BDA84B1B7881F83830A74BF7
:103890001B88A1F84430A64B1B681A0E0A70A44B73
:1038A0001B68C3F3074213024B80A14B1B88C3F371
:1038B00007224B8813434B809D4B1A7813064B60AD
:1038C0009B4B5B681A0E4B6843EA02434B60984B74
:1038D0005B68C3F307424B6843EA02234B60944B97
:1038E0009B88C3F307224B6813434B60904B1A79B4
:1038F0000A729B681A0E4A728D4B9B68C3F307428B
:103900001306CB608A4B1B89C3F30722CB6843EABB
:103910000243CB60864B1A7ACB681343CB60844B4F
:10392000DB681A0ECB681343CB60814BDB68C3F3B3
:10393000074202F00F034FF6FF7404EA03230B82E1
:103940007B4B9B89C3F307220B8A13430B82784B73
:103950001A7B53088B74774B1B681A0E93090B75EF
:10396000744B1B68C3F307424A75724B1B88C3F341
:1039700007228A756F4B1A78CA755B681A0E140194
:103980000C836C4B5B68C3F307420B8B43EA121446
:103990000C8302F00F048C76664B9B88C3F30722DE
:1039A000D409CC76C2F380140C77C2F340144C7760
:1039B000C2F300148C775C4B1B781BB15A4B1B78FD
:1039C000012B44D193071C0D0C625A4B1A790B6AD8
:1039D00043EA82040C62574B9B681A0E0B6A43EA57
:1039E00092140C62C2F3C20424235C5402F0070454
:1039F00025235C544F4B9B68C3F30742540926238D
:103A00005C54C2F3820427235C5493075C0F282381
:103A10005C54484B1B89C3F3072228235B5C43EAB1
:103A2000D21428235C548C7E0123A3400B640B6AC0
:103A30005B1CCB632824645CA41C0125A540CB6BD4
:103A40006B43CB63D1E90F346343CB631DE0364B4B
:103A50001B78022B19D1374B1A7993069C0A0C62FA
:103A6000344B9B681A0E0B6A43EA02240C62314BFA
:103A70009B68C3F307420B6A13430B624FF4007356
:103A80000B640B6A5B1CDB04CB63C2F38014292339
:103A90005C5493065C0E2A235C54264B1A7A2A2324
:103AA0005B5C43EAD2142A235C5402F07F042B238C
:103AB0005C54204BDB681A0ED4092C235C54C2F3EF
:103AC00082042D235C5493071C0F2E235C54194B46
:103AD000DB68C3F307422E235B5C43EA92142E2378
:103AE0005C54C2F340142F235C54124B9B89C3F3E4
:103AF0000722D40930235C54C2F3801431235C5470
:103B0000C2F3401432235C54C2F3001433235C54D8
:103B1000C2F3810481F83440064B1A7B540881F8C3
:103B2000354000BFAEE6000020000020220000204B
:103B3000B0000020A000002038B51D240120009016
:103B400000F03CFC10B91A24204638BD3D480078EE
:103B5000032824D0C0220021022000F07DFB002099
:103B600000F056FC00F094FBFEF7BEFF04461D2C4F
:103B700001D02046E9E7002000F02CFC3249086023
:103B8000012000F027FC30494860022000F022FCB0
:103B90002D498860032000F01DFC2B49C86029488E
:103BA000007858B127480078012807D025480078C8
:103BB000022803D023480078042812D14022002193
:103BC000032000F049FB002000F022FC00F060FB25
:103BD00069460320FEF7CEFF04461D2C01D0204687
:103BE000B3E71848007803282AD0BDF80000174929
:103BF0000880BDF800000104C022092000F02CFB61
:103C0000002000F005FC00F043FBFEF76DFF0446CA
:103C10001D2C01D0204698E7002000F0DBFB0C496A
:103C20000860012000F0D6FB09494860022000F03E
:103C3000D1FB07498860032000F0CCFB0449C86031
:103C4000204682E720000020B00000202200002053
:103C5000A000002070B504461D2521044022072045
:103C600000F0FAFA002000F0D3FB00F011FB07206F
:103C7000FEF7A0FE0546284670BD00007CB5044650
:103C80001D250020019000902C480088010440224E
:103C90000D2000F0E1FA002000F0BAFB00F0F8FA85
:103CA0002748006801906FF07F460CE0FFF7D8FDD1
:103CB00008B913207CBD701E061E01D11320F9E740
:103CC0001F4800680190019800F045000028EDD0E1
:103CD000019800F0010028B11125012000F04CFBF3
:103CE0002846E7E7019800F0040028B113250420D6
:103CF00000F042FB2846DDE700F0A8FA01900198A9
:103D00000D2802D008252846D4E70E4800F034FBE1
:103D1000002000F05FFB00900098C0F3432020706B
:103D200009490098084010B91D252846C2E70098A7
:103D3000FEF782FE05462846BCE700002200002070
:103D4000342C0140FF07C00008E0F9FD01460022C5
:103D500002E04910501CC2B20129FAD1F02000EA59
:103D60000210704710B5FFF77BFD10BD30B58BB06A
:103D7000044604B907A40122214601A8FDF734FD39
:103D800005462DB901A8FDF7F3FC01200BB030BDAD
:103D90000020FBE7303A6669726D776172652E62CA
:103DA000696E000010B592B0FFF75AFD10B90020FF
:103DB00012B010BD00F044F904461D2C01D00020C3
:103DC000F6E76846FFF758FD04461D2C01D0002099
:103DD000EEE7BDF84400FFF73DFF04461D2C01D07F
:103DE0000020E5E70120E3E710B5FFF739FD10B942
:103DF0004FF0FF3010BD012205A10648FDF7CAFCB7
:103E0000044614B16FF00100F4E70020F2E700006F
:103E1000303A0000C00000202DE9F04F8DB004467C
:103E20000D460027002000901CB9401E0DB0BDE8D3
:103E3000F08F50212046FCF7DCF900202070FFF7BE
:103E40000FFD18B901202070C01EEFE7FFF7CCFF6F
:103E500018B102202070401FE8E71DB1286808B1A2
:103E6000286800E059A00C90012202A80C99FDF7E7
:103E7000BBFC8146B9F1000F03D003202070C01FA6
:103E8000D4E705986060606818B16068B0F5F42FF9
:103E900007D902A8FDF76CFC032020706FF0040026
:103EA000C4E76DB1686858B160686968884207D036
:103EB00002A8FDF75DFC032020706FF00500B5E758
:103EC0004FF4F420FDF7F4FF8046B8F1000F09D05D
:103ED00002A8FDF74DFC0520207084F80D806FF0DE
:103EE0000600A3E704202070DFF8F0B04DE04FF4A7
:103EF0008056B8196168884201D96068C61B01AB59
:103F00003246374902A8FDF74FFD8146B9F1000F4F
:103F100002D10198B04209D002A8FDF729FC052082
:103F2000207084F80D906FF007007FE731462C4831
:103F3000FCF796FD0090F01C20F0030AB24507D96B
:103F4000304603E0FF21264A1154401C5045F9D366
:103F5000524623495846FEF705F88046B8F1000F4F
:103F600009D002A8FDF704FC0520207084F80D801C
:103F70006FF008005AE7D3443744A76064207843C1
:103F80006168B0FBF1F0207300BF6068B842AED842
:103F900002A8FDF7EDFB204600F024F820B906202A
:103FA00020706FF0090041E75DB12889002808DD25
:103FB00029890098814204D0062020706FF00A0001
:103FC00034E707202070002030E70000303A6669AF
:103FD000726D776172652E62696E000000000108E3
:103FE000F00200202DE9F04104460CB1606810B9E0
:103FF0000020BDE8F0810F4D2E68B6F1005F02D3BE
:104000000D48864201D90020F3E76F6809488742CE
:1040100002D30A48874201D90020EAE7D4F8048095
:1040200041460448FEF72AF808B10120E1E70020E4
:10403000DFE70000000001080000032000A00808DE
:1040400038B51D24FEF7CEFEFEF756FA00F062F9F1
:104050000020009002E00098401C00900F4900985A
:104060008842F8D300F01CF804461D2C01D02046ED
:1040700038BDFFF761FD04461D2C01D02046F7E74F
:10408000022300221146104600F0BCF8002000F088
:10409000ABF800F081F92046EAE7000020A1070014
:1040A0002DE9F8431D240027002600254FF00008C5
:1040B000762300221146104600F0A4F8002000F0FC
:1040C00093F800F069F9032000F07EF900F0B4F8ED
:1040D0000020009002E00098401C00903E490098AB
:1040E0008842F8D300221146104600F0B5F80020AF
:1040F00000F08EF900F0CCF8FCF794FC04461D2C7F
:1041000002D02046BDE8F88340224FF4D571082044
:1041100000F0A2F8002000F07BF900F0B9F8FEF7FB
:104120007DFD1D2803D101202C49087087074022FE
:104130000021372000F090F8002000F069F900F02D
:10414000A7F83720FEF736FC1D2842D12CE040228C
:104150000021372000F080F8002000F059F900F02D
:1041600097F83720FEF726FC04461D2C01D0204688
:10417000C8E71B4847EA00014022292000F06CF8FC
:10418000002000F045F900F083F8FEF7D5FC044666
:104190001D2C01D02046B5E7002000F01BF9064693
:1041A000012000EAD6786D1CB8F1000F03D14FF65C
:1041B000FF708542CBD34FF6FF70854202D318249F
:1041C00020469FE706F08040061E02D002200349E9
:1041D0000870204696E70000A0860100200000201D
:1041E00000001080704700000549096821F4C051A3
:1041F000034A1160114609680143116070470000CD
:10420000042C014030B504460020094D2868094DB2
:104210002840FF2B04D940F00040A3F58075ABB2D5
:1042200044EA010515431D432843014D286030BD74
:10423000042C014000D9FF7F0348006840F48070DF
:104240000149086070470000042C014001480068E3
:10425000C0B27047102C014030B5034600200B4C13
:10426000246824F48064094D2C602C1F24680024E9
:104270002D1F2C602C462160241D206820F0FF009B
:1042800043EA020420432C1D206030BD0C2C014069
:104290000348006840F480600149086070470000EE
:1042A0000C2C014010B50D4B1B6800230B4C2360F8
:1042B000231D1B6803F07E43241D2360231D1B6800
:1042C00023F0F003241D2360044B18601B1D1960AC
:1042D0001B1D1B681343236010BD0000242C0140EC
:1042E0000148006870470000802C01400246002011
:1042F000044B186820F0060042EA01031843014B02
:10430000186070472C2C014001490860704700007C
:10431000802C014010B540F60B10FEF7B1FE40F6C0
:104320000B10FEF79BFE10BD0348006820F008004C
:1043300001490860704700002C2C014003480068C8
:1043400040F0080001490860704700002C2C014033
:104350000348006820F00100014908607047000030
:104360002C2C01400348006840F00100014908601E
:10437000704700002C2C0140014908607047000084
:10438000382C014001460020024A12680A4002B15E
:1043900001207047342C01400348006820F480401D
:1043A0000149086070470000042C01400249096877
:1043B0000143014A116070473C2C014001480068EC
:1043C00070470000002C0140014908607047000060
:1043D000002C01400146002031B1012907D00229FB
:1043E00009D003290FD10AE0084A10680CE0074AF7
:1043F000121D106808E0054A0832106804E0034AFC
:104400000C32106800E000BF00BF7047142C014060
:104410000549096821F44071034A11601146096891
:1044200001431160704700000C2C014070B5064636
:104430000C461546A9B204F11A0000F015F83078C0
:10444000032804D1290C04F1140000F00DF870BD0C
:1044500000F8011B090A00F8011B090A00F8011BFA
:10446000090A00F8011B704700F8011B091200F847
:10447000011B704770B50446204600F043F805461E
:10448000002D38D1207803282ED1207901282BD176
:104490004202002104F13000FEF78DF94AF6552161
:1044A00004F22E20FFF7E0FF144904F13000FFF77B
:1044B000CFFF134904F50570FFF7CAFF04F5067036
:1044C0002169FFF7C5FF04F50770E168FFF7C0FF3A
:1044D000E069401CE0626078012304F13001E26A87
:1044E000FCF794FE00202071607800221146FCF752
:1044F000FDFD00B10125284670BD0000525261410A
:104500007272416170B504460025E078E8B16078C8
:10451000012304F13001E26AFCF778FEA0B9002023
:10452000E070216AE06A401AA16988420DD2A07841
:1045300002280AD1A369E16ACA186078012304F14C
:104540003001FCF763FE00E00125284670BD000045
:1045500008B5002000213F4A126842F480323D4BEA
:104560001A6000BF401C3B4A126802F4003119B9BE
:104570004FF6FF729042F5D1364A126802F40032CB
:1045800032B900BF334A126802F40032002AF9D06F
:10459000304A4032126842F080522E4B40331A604B
:1045A0002D4A126842F440422B4B1A60294A0832C5
:1045B0001268284B08331A601A46126842F4004207
:1045C0001A601A46126842F4A0521A60234A1B1F4E
:1045D0001A601A1F126842F080721B1F1A6000BF17
:1045E0001C4A126802F00072002AF9D01A4A1268B6
:1045F00042F48032184B1A6000BF174A526802F426
:104600008032002AF9D0144A126842F40032124B68
:104610001A6000BF104A526802F40032002AF9D032
:104620000C4A083212680092009A22F003020092AB
:10463000009A42F002020092064B0833009A1A6078
:1046400000BF044A0832126802F00802002AF8D0BB
:1046500008BD0000003802400070004019544007B7
:1046600010B5FFF775FF10BD10B5FDF761F81248E2
:1046700000684FF47A71B0FBF1F4601EB0F1807FF6
:1046800001D301200FE0601E4FF0E02148610F21AF
:104690004FF0FF30FBF71CFE00204FF0E021886157
:1046A00007200861002008B100BFFEE70021481E76
:1046B000FBF70EFE10BD0000480000202DE9F0477A
:1046C00004460D460027B846B94600263349601A0D
:1046D0008C4235D00CDC32482044E8B1B0F5806F14
:1046E0001FD0B0F5006F21D0B0F5406F32D122E07D
:1046F000B0F5806F29D0B0F5184F03D0B0F51C4F3E
:1047000028D104E00320FEF7DBFA074623E003206C
:10471000FEF7D6FA07461EE00220FEF7D1FA07465A
:1047200019E00220FEF7CCFA074614E00220FEF75B
:10473000C7FA07460FE00220FEF7C2FA07460AE072
:104740000220FEF7BDFA074605E00220FEF7B8FAA0
:10475000074600E000BF00BFE06800F4004070B111
:10476000780000EB5500B0FBF5F64FF6F07006EA66
:104770000008C6F3420948EA0900A0600CE007EB14
:104780005500B0FBF5F64FF6F07006EA000806F0AB
:104790000F0948EA0900A060BDE8F08700780040F2
:1047A00000BCFFBFC1F308024260704710B5044669
:1047B0003349601A8C424DD00CDC32482044E0B1C1
:1047C000B0F5806F22D0B0F5006F31D0B0F5406FFA
:1047D00052D136E0B0F5806F45D0B0F5184F03D018
:1047E000B0F51C4F48D11AE040F60410FEF748FC23
:1047F00040F60410FEF732FC3FE040F61100FEF7F1
:104800003FFC40F61100FEF729FC36E040F61200AE
:10481000FEF736FC40F61200FEF720FC2DE040F6D5
:104820000510FEF72DFC40F60510FEF717FC24E0FE
:1048300040F61300FEF724FC40F61300FEF70EFCD2
:104840001BE040F61400FEF71BFC40F61400FEF7D8
:1048500005FC12E040F61E00FEF712FC40F61E00BA
:10486000FEF7FCFB09E040F61F00FEF709FC40F6EE
:104870001F00FEF7F3FB00E000BF00BF10BD00000B
:104880000078004000BCFFBFC16841F40051C16026
:10489000704710B5024602EB9110006801F01F044A
:1048A0000123A340184008B1012010BD0020FCE7FF
:1048B000C26822F4C062C260C2680A43C260704724
:1048C0000A460021C16821F004011143C16070470C
:1048D000026922F44052026102690A430261704790
:1048E0000A460021C16821F008011143C1607047E8
:1048F000C26822F48052C260C2680A43C260704734
:1049000070B504460D4609268CB1206878B1206840
:10491000007860B1A0882168C988884207D12168E1
:104920004878FCF759FC00F0010000B900260EB9E8
:10493000206800E000202860304670BD00000008BC
:10494000004000000000000000400008004000009F
:104950000800000000800008004000001000000077
:1049600000C000080040000018000000000001081E
:10497000000001002000000000000208000002000A
:1049800028000000000004080000020030000000C1
:10499000000006080000020038000000809A45412F
:1049A0008E418F804545454949498E8F9092924F5F
:1049B000994F555559999A9B9C9D9E9F41494F559A
:1049C000A5A5A6A7A8A9AAABACADAEAFB0B1B2B32E
:1049D000B4B5B6B7B8B9BABBBCBDBEBFC0C1C2C31F
:1049E000C4C5C6C7C8C9CACBCCCDCECFD0D1D2D30F
:1049F000D4D5D6D7D8D9DADBDCDDDEDFE0E1E2E3FF
:104A0000E4E5E6E7E8E9EAEBECEDEEEFF0F1F2F3EE
:104A1000F4F5F6F7F8F9FAFBFCFDFEFF00002110B3
:104A2000422063308440A550C660E7700881299118
:104A30004AA16BB18CC1ADD1CEE1EFF131121002C0
:104A400073325222B5529442F772D6623993188368
:104A50007BB35AA3BDD39CC3FFF3DEE3622443348C
:104A600020040114E664C774A44485546AA54BB5B8
:104A700028850995EEE5CFF5ACC58DD55336722660
:104A800011163006D776F6669556B4465BB77AA708
:104A900019973887DFF7FEE79DD7BCC7C448E558AC
:104AA0008668A7784008611802282338CCC9EDD958
:104AB0008EE9AFF9488969990AA92BB9F55AD44A00
:104AC000B77A966A711A500A333A122AFDDBDCCBA8
:104AD000BFFB9EEB799B588B3BBB1AABA66C877CCC
:104AE000E44CC55C222C033C600C411CAEED8FFDF8
:104AF000ECCDCDDD2AAD0BBD688D499D977EB66EA0
:104B0000D55EF44E133E322E511E700E9FFFBEEF47
:104B1000DDDFFCCF1BBF3AAF599F788F8891A98109
:104B2000CAB1EBA10CD12DC14EF16FE18010A100F3
:104B3000C230E3200450254046706760B9839893E3
:104B4000FBA3DAB33DC31CD37FE35EF3B102901243
:104B5000F322D2323542145277625672EAB5CBA5AF
:104B6000A89589856EF54FE52CD50DC5E234C32493
:104B7000A01481046674476424540544DBA7FAB783
:104B80009987B8975FE77EF71DC73CD7D326F236E3
:104B90009106B01657667676154634564CD96DC9CF
:104BA0000EF92FE9C899E9898AB9ABA94458654833
:104BB00006782768C018E1088238A3287DCB5CDB23
:104BC0003FEB1EFBF98BD89BBBAB9ABB754A545A83
:104BD000376A167AF10AD01AB32A923A2EFD0FEDEF
:104BE0006CDD4DCDAABD8BADE89DC98D267C076CD3
:104BF000645C454CA23C832CE01CC10C1FEF3EFFC3
:104C00005DCF7CDF9BAFBABFD98FF89F176E367E22
:104C1000554E745E932EB23ED10EF01E303A666948
:104C2000726D776172652E62696E00004C4C0008EF
:104C30000000002050000000C00500089C4C000847
:104C400050000020A0160000D00500081C4C0008F1
:104C50000000000000000000000000000000000054
:104C60000000000000000000000000000000000044
:104C70000100000000000000000000001D00000016
:104C80000000000000000000010000000000000023
:0C4C900000000000007A030A0000000091
:040000050800018965
:00000001FF
