:020000040801F1
:10000000481E01205D020108C5260108BD15010832
:10001000C126010843150108D53001080000000081
:100020000000000000000000000000009D01010829
:100030004715010800000000F90101085D2D0108C5
:1000400077020108770201087702010877020108A8
:100050007702010877020108770201087702010898
:100060007702010877020108770201087702010888
:100070007702010877020108770201087702010878
:100080007702010877020108770201087702010868
:100090007702010877020108770201087702010858
:1000A0007702010877020108770201087702010848
:1000B0007702010877020108770201087702010838
:1000C0007702010877020108770201087702010828
:1000D0007702010877020108392F0108692F01080A
:1000E0004B15010877020108770201087702010821
:1000F00077020108770201087702010877020108F8
:1001000000000000C92601087702010877020108F3
:100110007702010877020108192F01087702010808
:1001200077020108770201087702010877020108C7
:1001300077020108000000000000000077020108BB
:1001400077020108770201087702010877020108A7
:10015000770201087702010877020108713001086F
:100160007702010877020108770201087702010887
:1001700077020108770201087702010800000000F9
:100180007702010877020108DFF80CD000F04AFE80
:100190000048004795C50108481E01202C4B1968EE
:1001A0000868B0E8F04F80F30988BFF36F8F4FF015
:1001B000000080F3118870470000000008480068C4
:1001C000006880F308884FF0000080F3148862B65E
:1001D00061B6BFF34F8FBFF36F8F00DF00BF00BF6B
:1001E00008ED00E0DFF80C00016841F470010160E7
:1001F000704700BF88ED00E0EFF30980BFF36F8F19
:10020000134B1A681EF0100F08BF20ED108A20E96A
:10021000F04F106009B44FF0500080F31188BFF325
:100220004F8FBFF36F8F14F04DF94FF0000080F344
:10023000118809BC19680868B0E8F04F1EF0100F6B
:1002400008BFB0EC108A80F30988BFF36F8F704746
:1002500004000020EFF30580704700000648804747
:1002600006480047FEE7FEE7FEE7FEE7FEE7FEE79B
:10027000FEE7FEE7FEE7FEE7912D01088901010890
:100280002DE9F05F0546002092469B4688460646CB
:10029000814640241BE0284641464746224600F05E
:1002A000DAFB53465A46C01A914110D311461846FC
:1002B000224600F0C1FB2D1A67EB01084F4622468B
:1002C0000120002100F0B8FB17EB00094E41201E71
:1002D000A4F10104DFDC484631462A464346BDE826
:1002E000F09F40EA01039B0703D009E008C9121FF1
:1002F00008C0042AFAD203E011F8013B00F8013BE0
:10030000521EF9D27047D2B201E000F8012B491E0B
:10031000FBD270470022F6E710B513460A460446A2
:100320001946FFF7F0FF204610BD30B505462A46B6
:100330000B4612F8010B13F8014B08B1A042F8D09C
:100340001CB1002802D06D1CF1E7284630BDCAB2AE
:10035000401E10F8011F8A4202D00029F9D1002066
:100360007047421C10F8011B0029FBD1801A70470E
:1003700070B50F4D00B92868002412E00A4602E06B
:100380009E4203D0521C1378002BF9D1DAB22243DB
:1003900005D02BB124B1002100F8011B04E0044674
:1003A000401C0678002EE9D12860204670BD000070
:1003B000580200200FB400B58DB010A909900B9021
:1003C00000914FF0FF300A9000200C9005480690F5
:1003D000054807906A4609A80F9900F081FB0DB007
:1003E0005DF814FBFD0A01081B0B01082DE9FF5FF6
:1003F0001D464FF0FF3BD5E9014691465F464FF061
:100400000008A9697F1C01988847296A82468847A5
:100410000028F6D1BAF1FF3F0CD024F4C064002EBE
:1004200019DD600614D5BAF12B0F09D0BAF12D0FE2
:100430000ED103E0584604B0BDE8F09F44F4806458
:10044000A9697F1C01988847761E8246002E02DD2E
:10045000BAF1300F03D0B9F1000F26D032E0A9690C
:10046000761E44F400747F1C019888478246002E53
:1004700005DDBAF1780F06D0BAF1580F03D0B9F103
:10048000000F10D01EE0B9F1000F02D0B9F1100F2B
:1004900018D1A969761E24F400747F1C019888473E
:1004A0008246102002E0082000E00A20814609E090
:1004B00008FB0908A969761E44F400747F1C0198A2
:1004C00088478246002E05DD4946504600F0F3FA83
:1004D0000028EDDAE96901988847A00502D46FF099
:1004E0000100A8E7E00725D1600613D5600502D515
:1004F000C8F1000000E0404629680A1D2A6009682A
:10050000220501D5087015E0220701D5088011E009
:1005100008600FE02868011D29600068210502D5E8
:1005200080F8008006E0210702D5A0F8008001E0F5
:10053000C0F8008038467EE72DE9F04791460F4627
:1005400080460446002614F8015B2DB100F0A6FA9F
:100550000068405DC007F6D12B2D02D02D2D18D09C
:10056000641E4A463946204600F0E8FA27B1396849
:10057000A14201D1C7F8008071054FF002040BD5EC
:100580004042002803DD02F00FFE0460A007BDE832
:10059000F08746F48066E4E70028F8DA02F004FE0B
:1005A00004606FF00040F2E770B5064602F0FCFD13
:1005B000046805460A2200213046FFF7BDFF2C6083
:1005C00070BD2DE9FE4F804681EA0300C00F0C4646
:1005D000009021F0004123F00045B8EB0200A94152
:1005E00005D24046214690461C460B46024623F063
:1005F0000040104347D0270DC7F30A00C3F30A5148
:100600000290401A019040286BDAC3F3130040F4C3
:10061000801B0098924620B10023D2EB030A63EBC3
:100620000B0B01985946C0F14002504600F004FA05
:1006300006460D4650465946019A00F01CFA10EB4A
:1006400008006141002487EA115284EAE7731A43E3
:1006500040D0009A62B3019A012A4FEA075215DC92
:10066000001B61EB02014FF0004202EA0752CDE9A4
:100670000042001C41F5801132462B4600F06BFB16
:1006800003B0BDE8F08F40462146F9E7001B61EB5F
:100690000201001C41F5801300185B412018A2F5EF
:1006A000001747EB030140EAD570B6196D4111E020
:1006B0006D084FEA360645EAC0754FEA0752001B3F
:1006C00061EB0201001C41F5801149084FEA30003E
:1006D0000019514132462B4603B0BDE8F04F00F0FF
:1006E0002BBB0098012240000023D0EB020263EBF9
:1006F000E073009821464FEAE074B8EB000061EB2C
:100700000401E9E783F000435BE781F0004158E72B
:100710002DE9FE4F81EA030404F0004421F000417A
:1007200000944FF0000B23F0004350EA01045ED028
:1007300052EA03045BD0C3F30A54C1F30A552C44B4
:10074000A4F2F3340194A0FB0254C1F3130141F469
:100750008011C3F3130343F4801301FB024400FB35
:10076000034E840A970A44EA815447EA8357A4FB5C
:10077000076802958D0A05FB07854FEA932C04FB59
:100780000C542705029D4FEA065847EA1637B5EB89
:1007900008056EEB070C870E920E47EA811742EAB6
:1007A0008312A7FB0201B6EB0B0164EB00042B0DD7
:1007B00043EA0C335E1844EB1C50DA465146E7FB23
:1007C0000201C5F313044FEA0B3343EA14534FEA13
:1007D0000432019C43EA0603A4F10C040294009C39
:1007E000CDE900B400F0B7FA03B0BDE8F08F002007
:1007F0000146F9E72DE9F04D81EA030404F0004BCE
:1008000021F0004514464FF0000A23F0004150EA61
:10081000050220D054EA01021DD0C5F30A57024652
:10082000C5F31303C1F31300C1F30A5640F4801556
:1008300043F48013A7EB0608101BD64608F2FD38D8
:1008400073EB050002D308F1010801E092185B4147
:10085000B8F1000F03DA00200146BDE8F08D00205A
:100860004FF48011064684460EE0171B73EB050714
:1008700005D3121B63EB050306434CEA010C490840
:100880004FEA300092185B4150EA0107EDD152EA7D
:10089000030012D082EA040083EA0501084305D070
:1008A000101BAB4106D20122002306E000224FF0CC
:1008B000004302E06FF0010253101AEB06004CEB0C
:1008C000085110EB0A0041EB0B01BDE8F04D00F0C0
:1008D00033BA0EB5C10F80EAE0700844CA070021A0
:1008E00040F233438DE80E000A460B4600F033FA1F
:1008F00003B000BD0EB540F2334102910021CDE9B5
:1009000000110A460B4600F026FA03B000BD70B590
:10091000C1F30A5201F000450024C1F3130140F273
:10092000FF3341F480119A4201DA002070BD40F299
:1009300033439A42A2F2334203DC524200F08BF876
:1009400000E090402C43F1D0404270BD00F00042E6
:1009500030F000400AD0C10D01F56071C0F31600FF
:1009600042EA0151C2084007114370470020014686
:100970007047000030B5041E71F1000404DB4FF035
:100980000044404264EB0101141E73F1000405DBD6
:100990001C464FF00043524263EB04038B4208BFF6
:1009A000824230BD30B5041E71F1000404DB4FF00B
:1009B0000044404264EB0101141E73F1000405DBA6
:1009C0001C464FF00043524263EB0403994208BFB8
:1009D000904230BD01F0004330B421F0004150EAB4
:1009E000010206D00A0DA2F56072C1F31301002ABC
:1009F00002DC30BC00207047440F44EAC104C1004F
:100A0000E01830BC00EBC25000F036B930B50B46F0
:100A1000014600202022012409E021FA02F59D422E
:100A200005D303FA02F5491B04FA02F52844151E02
:100A3000A2F10102F1DC30BD202A04DB203A00FAE9
:100A400002F1002070479140C2F1200320FA03F325
:100A5000194390407047202A04DB203A21FA02F023
:100A60000021704721FA02F3D040C2F120029140E8
:100A7000084319467047202A06DBCB17203A41FA73
:100A800002F043EAE07306E041FA02F3D040C2F11B
:100A90002002914008431946704700000048704703
:100AA0003447030810B50446FFF7F8FF0068005DFF
:100AB00000F0010010BD3A2800D2303820F02002AA
:100AC000412A01D3A2F13700884201D34FF0FF3011
:100AD000704700000268114413780160184670479F
:100AE000D16004495161044911620021116111462C
:100AF00000F0AAB9D50A0108A50A0108426842B166
:100B0000016811F8013B23B1521EC0E900121846DA
:100B100070470121C160881E704742685AB1C3689E
:100B2000016843B983688B4205D0491E521CC0E955
:100B30000012002070474FF0FF3070472DE9F05F42
:100B400082460078002715468B460AF10104B94613
:100B5000302801D09DB113E014F8010B012778284B
:100B600003D0582801D045B10AE00DB1102D07D1AE
:100B70000027102514F8010B02E0082500E00A25E3
:100B80000026B0460EE005FB080005FB06F1012734
:100B900001EB10461FFA80F8B6F5803F00D3B94646
:100BA00014F8010B2946FFF786FF0028EBDABBF1AA
:100BB000000F05D00FB1641E00E05446CBF8004092
:100BC000B9F1000F06D002F0EFFA02210160C81E51
:100BD000BDE8F09F48EA0640FAE700000FB40023A2
:100BE00000B589B00CA900910B996FF00042CB6061
:100BF0001E4B06931E4B07930423CDE901321D4A79
:100C0000089202466B46002000F048FB09B05DF8F0
:100C100014FB70B586B006464FF0FF300091CDE969
:100C20000101002015460C4604903246694604A88E
:100C3000FFF7D4FF02460498211825B108B10846F1
:100C400000E020462860049800280DD0002A02DD2C
:100C50000098884208D0081B0094CDE90104324670
:100C6000694604A8FFF7BAFF06B070BDFD0A010887
:100C70001B0B0108A50A01080029A8BF7047401CEA
:100C8000490008BF20F00100704710B4B0FA80FCA2
:100C900000FA0CF050EA010404BF10BC704749B1DF
:100CA000CCF1200421FA04F411FA0CF118BF01214F
:100CB00021430843A3EB0C01CB1D4FEA00614FEA2F
:100CC000102042BF002010BC704700EBC3501044FE
:100CD0000029A4BF10BC7047401C490008BF20F089
:100CE000010010BC7047F0B400F0004221F0004158
:100CF00020F00040CE0DC30DC1F3160141F40001F8
:100D0000C0F316004C42154640F40000761E09E080
:100D100010EB440002D582F0004240428842F7D8EE
:100D200040005B1EB342F9DA18B1F0BC0021FFF7B6
:100D3000ACBF2846F0BC704710B5141E73F1000418
:100D400008DA401C41F1000192185B411A4301D1BD
:100D500020F0010010BD2DE9F04D92469B4611B1E7
:100D6000B1FA81F202E0B0FA80F220329046FFF749
:100D700063FE04460F4640EA0A0041EA0B0153466F
:100D80005A46084313D0114653EA010019D0C8F15E
:100D900040025046FFF75FFE05460E465046594654
:100DA0004246FFF749FE084305D0012004E02046F3
:100DB0003946BDE8F08D0020054346EAE0762C4335
:100DC00037430A986305E40AA0EB08000022FD0AF5
:100DD00044EA47540A3002D500200146E9E70105FC
:100DE00010196941DDE9084500196941BDE8F04D78
:100DF000A2E7C1F30A52C1F3130140F2FF3341F4F9
:100E000080119A4202DA00200146704740F23343D3
:100E10009A42A2F2334202DC5242FFF71CBEFFF7B5
:100E20000BBE0000064C074D06E0E06840F00103F1
:100E300094E8070098471034AC42F6D3FFF7A8F9BE
:100E4000E0480308004903082DE9F34F8BB04FF049
:100E5000000801F10C000C464FF0010B46460DF165
:100E6000080A01906269012101989047051E2DD062
:100E7000252D2CD0216A8847C0B1626901210198D3
:100E80009047216A88470028F7D1411E626901987E
:100E9000904700E0761CA1690B988847216A884733
:100EA0000028F7D1E1690B988847DBE7A1690B9827
:100EB00088470746A84201D1761CD3E7E1690B9821
:100EC00088477F1C02D1B8F1000F6FD046E10027A0
:100ED00062693D463946019890472A2804D16269E3
:100EE0000121019890470125DFF884926269012170
:100EF00001989047A0F130010A290AD24F45E5DC5C
:100F000007EB870100EB4107303FDFD445F01005C8
:100F1000ECE7E90601D46FF000476C280AD04C28B2
:100F200014D0682815D06A280DD074281CD07A28CF
:100F30001AD01DE062690121019890476C2802D007
:100F400045F0040514E045F002050DE045F02005EC
:100F50000AE06269012101989047682802D045F0B3
:100F6000080505E045F40065626901210198904794
:100F7000C4E9015765283DD019DC58287AD00CDC2B
:100F8000452837D004DC252826D0412831D131E04E
:100F900046282FD047282CD12CE05B2877D0612819
:100FA00028D063287CD0642823D15AE0D0E06F2871
:100FB00048D008DC66281DD067281BD0692821D0BE
:100FC0006E2816D127E0702845D0732868D0752880
:100FD00047D078280DD14DE0A1690B988847054688
:100FE00025283FF469AFE1690B9888476D1C3FF4F1
:100FF0006AAFB3E023466A466FF001000B9900F038
:101000004DF99EE045F040006060A80723464FF090
:10101000000236D43EE0E8077FF447AF2068011DA8
:1010200021600068290501D506701BE7290701D555
:10103000068017E7A90703D5F117C0E9006111E79A
:1010400006600FE745F040006060A80723464FF0B8
:10105000080216D41EE040F60E0125EA0100606089
:1010600016E045F040006060A80723464FF00A02F2
:1010700007D40FE045F040006060A80708D523467C
:1010800010226FF001000B99AFF3008059E007E0E8
:10109000234610226FF001000B99FFF7A7F950E0EB
:1010A0004FF000094F464B46632802D05B2806D01C
:1010B00040E0E80601D40120A06001273AE062691F
:1010C0000121019890475E2805D14FF0010962691E
:1010D000494601989047216939B900210A4653468B
:1010E00043F82120491C0829FADBB0B3216969B90A
:1010F000C11700EBD16253110AEB830122F01F02EA
:10110000821A01200B68904003430B606269012141
:10111000019890475D28E8D1B9F1000F09D000206F
:10112000514651F82020D24341F82020401C082885
:10113000F7DB02AB224600976FF001000B99AFF38B
:10114000008000280CDA401C08D1BBF1000F05D04C
:101150004FF0FF300DB0BDE8F08FFFE74046F9E7F4
:10116000E90701D108F1010806444FF0000B79E6C8
:10117000CCCCCC0C2DE9FF4F087883B09946FF28E2
:1011800005D0491C2D2804D00024002008E00020B0
:101190000BE00124F9E700EB800003EB4000491C61
:1011A0000B78FF2BF7D104B140420023029314784F
:1011B00019461D462D2C01D02B2C04D1521C2D2C50
:1011C00013D000240294AA461478FF2C0FD00A25CD
:1011D000A3FB057801FB05814FF0000C03FB0C110C
:1011E000521CE3194AEB0101EEE70124EAE78144CE
:1011F00053EA010002D019F5C87F06DA03980021EE
:10120000C0E9001107B0BDE8F08F0025AE4E2F46B3
:10121000DFF8B882184600F05DF9CDE90001B9F1B8
:10122000000002DAC9F1000400E004460023A74AE6
:101230001AEB030B42EB045A12E0E00707D02A46F0
:10124000334638464146FFF763FA074688462A4642
:10125000334610461946FFF75BFA05460E46641002
:10126000002CEAD1DDE90001B9F1000F5A465346DE
:1012700006DAFFF7BFFA3A464346FFF7BBFA05E046
:10128000FFF746FA3A464346FFF742FA029A0AB196
:1012900081F00041039AC2E90001B3E72DE9FF4F55
:1012A0001F468DB0D7E901464FF0FF382E20454646
:1012B0004FF000090B90B9696D1C0E988847396A88
:1012C000824688470028F6D1BAF1FF3F0AD024F4BD
:1012D000D064002E11DDBAF12B0F08D0BAF12D0F1A
:1012E0000BD102E0404611B08DE744F48064B96947
:1012F0006D1C0E9888478246761E6946600501D5AA
:101300002D2000E02B208DF8000001F1010B0DF1E4
:10131000200809E0B9696D1C0E98884782460F982D
:1013200044F40074761E0560002E02DDBAF1300F21
:10133000F0D00B998A453ED144F0800406E00F9925
:10134000681CA9F1010944F400740860B9696D1CB6
:10135000761E0E98884782463028F0D02BE00B99F5
:101360008A4505D1200603D444F08004761E18E097
:10137000504602F0B5FD08B30DF11301761E44F49A
:1013800000748B4508D2AAF130000BF8010B20063F
:1013900007D5A9F1010003E0200602D409F10100FC
:1013A0008146A00502D50F99681C0860B9696D1CBB
:1013B0000E9888478246002ED1DC53E0002E51DD86
:1013C000BAF1650F02D0BAF1450F4BD1A00549D54E
:1013D000B9696D1C24F44074761E0E9888478246C5
:1013E000002E0CDD2B2804D0BAF12D0F07D144F4C8
:1013F0008074B9696D1C0E9888478246761EE00598
:1014000001D52D2100E02B2108F8011BCDF82C80FF
:1014100021E00DF12901761E44F4007488450CD2B8
:10142000AAF1300010F0FF0088F8000002D10B99FB
:10143000884509D908F1010806E0E00501D52448EE
:1014400001E042F20F708146B9696D1C0E98884721
:1014500082460F980560002E04DD504602F040FDE4
:101460000028D6D1F9690E988847FF208BF8000034
:1014700088F800000020069007904B466A4608A9AD
:1014800006A8FFF777FEA00502D46FF001002AE757
:1014900014F0240F0AD0E00714D1DDE906123868F1
:1014A000031D3B600068C0E900120BE0DDE90601A6
:1014B000FFF790FA0146E00704D13868021D3A6050
:1014C0000068016028460EE7000014400000F03F6D
:1014D000F1D8FFFF0EB540F2334202920022CDE96F
:1014E00000221346FFF737FC03B000BD70B58C181F
:1014F00010F8015B15F0070301D110F8013B2A1128
:1015000006D110F8012B03E010F8016B01F8016B14
:101510005B1EF9D12B0705D40023521E0DD401F810
:10152000013BFAE710F8013BCB1A921C03E013F8D9
:10153000015B01F8015B521EF9D5A142D8D300200E
:1015400070BD00BFFEE700BFFEE710B54FF480405E
:1015500005F062FC68B14FF4804005F057FC0EF0D6
:1015600035FF044614B10FF0F5FB01E00FF0F8FB76
:1015700000BF10BD08B509F0BBF90446002000907B
:1015800000BFBCB164226946204613F045FC012827
:1015900010D19DF8000009F025FC03E09DF8000043
:1015A00009F020FC34B100226946204613F034FCD7
:1015B0000128F3D0022003F0CBF8E2E700BFFEE7FA
:1015C000B8B000BF00BF13F08DFF29900AF072F889
:1015D0004FF47A7012F06AFC10F0CAFE012100206C
:1015E0000BF00EFFFE48018801200BF009FF0121DE
:1015F00003200BF005FF002104200BF001FF40F257
:10160000093109200BF0FCFEFEE300202990142292
:10161000012111F07BFFF348006848B10020034628
:1016200001220F210090EF48006813F055F829902F
:1016300009F0BAFF0AF00AF8EB48006800287DD0EC
:10164000EA48007878BB0120E8490870E64800685D
:1016500090F84C00012826D04A200BF01DFE00B265
:101660000990E1480068806A0590FFF76FF9CDE9BD
:1016700006019DED060B03F0C9F80890DDE90801AD
:1016800088420FD00021089807F0E4FB50B106F023
:101690007FFFD5490860089880B2014607904A202C
:1016A0000BF0AEFE00BF4A200BF0F6FD00B2279013
:1016B000CD480068B0F900102798814207D0012179
:1016C000279807F0C7FB06F063FFC74908600BF0D7
:1016D000DDFD2690C64926980968884209D0C4498C
:1016E000269808600120C349087013F011FFC24911
:1016F0000860C048007800287ED013F009FFBE497A
:101700000968401A50287FD90020BA49087046203D
:101710000BF0C2FD099047200BF0BEFD0890482059
:101720000BF0BAFD079049200BF0B6FD0690DDE9FD
:1017300008100BF023FD8DED050A00E0FEE3DDE966
:1017400006100BF01BFD8DED040A9DED050ADFED83
:10175000AB0AB4EEE00AF1EE10FA54DB9DED050A97
:10176000DFEDA70AB4EEE00AF1EE10FA4BD89DEDDA
:10177000040ADFEDA40AB4EEE00AF1EE10FA42DB4F
:101780009DED040ADFEDA00AB4EEE00AF1EE10FAD6
:1017900039D8DDED040A9DED050A07F067F918B1A7
:1017A00006F0F6FE904908608F48006858B38E48EE
:1017B000006890F84C00012825D04A200BF06CFD01
:1017C00000B203900498FFF7C1F8CDE900019DED48
:1017D000000B03F01BF80290DDE90201884211D0F2
:1017E0000021029807F036FB60B106F0D1FE7E4979
:1017F0000860029880B200E006E0014601904A20AD
:101800000BF0FEFD00BF00BF09F0C8F82590259839
:1018100028B900207D4908707D4908700CE07B489C
:10182000007848B901207949087001217848017091
:1018300013F06EFE7749086075480078002867D07D
:1018400069480068002863D06748006890F84C0039
:1018500001285DD005AA06A908A809F019F8E8B37F
:101860009FED6D0B53EC102B9DED060B51EC100B07
:10187000FFF798F84BD89FED6A0B53EC102B9DEDBA
:10188000060B51EC100BFFF775F840D89DED060BD9
:1018900001F012FF8DED020B9FED630B53EC102B4B
:1018A0009DED020B51EC100BFFF77CF82FD24A2074
:1018B0000BF0F2FC00B204909DED060B02F0A6FFC7
:1018C0000390DDE90301884211D00021039807F05D
:1018D000C1FA60B106F05CFE434900E00BE008602D
:1018E000039880B2014602904A200BF089FD002047
:1018F000474908700BE013F00BFE46490968401A8F
:1019000040F6B831884202D900204149087000BF32
:101910005A200BF0C1FC24905B200BF0BDFC2390FF
:101920009DED240AF8EE400A9FED411A80EE810AEF
:101930008DED220A9DED230AF8EE400A9FED3C1A38
:1019400080EE810A8DED210A9DED220A3948D0ED05
:10195000000A30EE600A8DED090A9DED090A06F0D5
:10196000A9FBDFED350AB4EEE00AF1EE10FA13DC64
:101970009DED210A3148D0ED000A30EE600A8DED70
:10198000090A9DED090A06F095FBDFED2B0AB4EE7E
:10199000E00AF1EE10FA6EDD9DED210ADDED220A7E
:1019A000B4EEE00AF1EE10FA66D29DED220AB5EE31
:1019B000C00AF1EE10FA5FDD9DED210AB5EEC00A16
:1019C000F1EE10FA58DD9DED220AF1EE000AB4EEB8
:1019D000E00AF1EE10FA4FD89DED210A30E0000048
:1019E000A8000020A4000020AC000020F600002089
:1019F000F8000020FC000020000100200000B4C21C
:101A00000000B442000034C300003443F50000205D
:101A1000040100200801002000000000008066C0D2
:101A200000000000008066402D431CEBE2361A3FA8
:101A30000000C842B00000200AD7A33BB400002039
:101A4000F1EE000AB4EEE00AF1EE10FA14D89DEDC2
:101A5000220AFE4880ED000A9DED210AFC4880ED37
:101A6000000ADDED210A9DED220A07F01DF906F0BE
:101A70008FFDF849086025E0F448D0ED000A1FED1D
:101A8000141AB6EE000A00EE810ABCEEC00A10EE8F
:101A9000100A80B2014609905A200BF0B1FCEC48C4
:101AA000D0ED000A1FED1E1AB6EE000A00EE810A04
:101AB000BCEEC00A10EE100A80B2014609905B200D
:101AC0000BF09EFC60200BF0E7FB2090E1480068E3
:101AD000018C2098814215D0209801280ADB20989B
:101AE000A82807DC209806F0A5FF06F051FDD9498B
:101AF000086007E0D7480068008C01460990602024
:101B00000BF07EFC5C200BF0C7FB1F905D200BF000
:101B1000C3FB1E905E200BF0BFFB1D905F200BF0FF
:101B2000BBFB1C90DDE91E100BF028FB8DED1B0AA2
:101B3000DDE91C100BF022FB8DED1A0AC548006888
:101B4000D0ED060A9DED1B0A30EE600A8DED090A04
:101B50009DED090A06F0AEFADFEDBF0AB4EEE00A29
:101B6000F1EE10FA14DCBB480068D0ED070A9DEDD9
:101B70001A0A30EE600A8DED090A9DED090A06F099
:101B800099FADFEDB50AB4EEE00AF1EE10FA57DD8E
:101B90009DED1B0AB5EEC00AF1EE10FA23DB9DEDB8
:101BA0001B0ADFEDAE0AB4EEE00AF1EE10FA1AD22B
:101BB0009DED1A0AB5EEC00AF1EE10FA13DB9DEDA9
:101BC0001A0A5FED710AB4EEE00AF1EE10FA0AD8D3
:101BD000DDED1A0A9DED1B0A06F0ACFF06F0D8FCFD
:101BE0009C4908602CE09B48006890ED060A8DED4A
:101BF000070A08A909A89DED070A0AF05FFFBDF8CA
:101C000024105C200BF0FCFBBDF820105D200BF0D5
:101C1000F7FB9048006890ED070A8DED070A08A9C8
:101C200009A89DED070A0AF049FFBDF824105E20BF
:101C30000BF0E6FBBDF820105F200BF0E1FB00BFCE
:101C400061200BF029FB199062200BF025FB189006
:101C50009DED190AF8EE400A9FED811A80EE810A87
:101C60008DED170A9DED180AF8EE400A9FED7C1ADB
:101C700080EE810A8DED160A9DED170A7948D0EDA8
:101C8000000A30EE600A8DED090A9DED090A06F0A2
:101C900011FADFED750AB4EEE00AF1EE10FA13DC8A
:101CA0009DED160A7148D0ED000A30EE600A8DED08
:101CB000090A9DED090A06F0FDF9DFED6B0AB4EEA5
:101CC000E00AF1EE10FA69DD9DED170AB5EEC00AE3
:101CD000F1EE10FA3CDD9DED170AF7EE000AB4EEC6
:101CE000E00AF1EE10FA33D89DED160AB5EEC00AFF
:101CF000F1EE10FA2CDD9DED160AF7EE000AB4EEB7
:101D0000E00AF1EE10FA23D89DED170ADDED160A70
:101D1000B4EEE00AF1EE10FA1AD29DED170A51481E
:101D200080ED000A9DED160A504880ED000ADDEDB9
:101D3000160A9DED170A0BF0BBFCDDED160A9DEDB2
:101D4000170A06F053FF06F023FC4249086025E01D
:101D50004448D0ED000A9FED421AB6EE000A00EEAC
:101D6000810ABCEEC00A10EE100A80B2014609904A
:101D700061200BF045FB3D48D0ED000A9FED381A7D
:101D8000B6EE000A00EE810ABCEEC00A10EE100AA0
:101D900080B20146099062200BF032FB6D200BF0FF
:101DA0007BFA15906E200BF077FA14906F200BF0F1
:101DB00073FA139070200BF06FFA1290DDE9141093
:101DC0000BF0DCF98DED110ADDE912100BF0D6F9FC
:101DD0008DED100A1F480068D0ED0F0A9DED110A25
:101DE00030EE600A8DED090A9DED090A06F062F9F0
:101DF000DFED190AB4EEE00AF1EE10FA16DC154830
:101E00000068D0ED100A00E0FEE39DED100A30EE10
:101E1000600A8DED090A9DED090A06F04BF9DFED28
:101E20000E0AB4EEE00AF1EE10FA7BDD9DED110A28
:101E3000DFED0F0AB4EEE00AF1EE10FA45DB9DED9E
:101E4000110ADFED0C0AB4EEE00A15E0B000002044
:101E5000B4000020AC000020CDCCCC3D0000B44349
:101E600000007A44B80000206F12033ABC00002042
:101E70000000B4C20000B442F1EE10FA25D89DED86
:101E8000100A5FED050AB4EEE00AF1EE10FA1CDB71
:101E90009DED100A5FED090AB4EEE00AF1EE10FACA
:101EA00013D89DED110ADDED100AB4EEE00AF1EE53
:101EB00010FA0AD2DDED100A9DED110A06F058FF66
:101EC00006F066FBFE4908602CE0FD48006890EDD6
:101ED0000F0A8DED070A08A909A89DED070A0AF067
:101EE000EDFDBDF824106D200BF08AFABDF820102E
:101EF0006E200BF085FAF248006890ED100A8DED27
:101F0000070A08A909A89DED070A0AF0D7FDBDF840
:101F100024106F200BF074FABDF8201070200BF025
:101F20006FFA00BF71200BF0B7F90F9072200BF021
:101F3000B3F90E9073200BF0AFF900E09CE00D9028
:101F400074200BF0A9F90C90DDE90E100BF016F9D6
:101F50008DED0B0ADDE90C100BF010F98DED0A0A7E
:101F6000D7480068D0ED110A9DED0B0A30EE600AEB
:101F70008DED090A9DED090A06F09CF85FED4A0A0D
:101F8000B4EEE00AF1EE10FA14DCCD480068D0EDB2
:101F9000120A9DED0A0A30EE600A8DED090A9DEDE8
:101FA000090A06F087F85FED540AB4EEE00AF1EE94
:101FB00010FA60DD9DED0B0AB5EEC00AF1EE10FAE5
:101FC0002CDB9DED0B0A5FED550AB4EEE00AF1EE55
:101FD00010FA23D89DED0A0AB5EEC00AF1EE10FA08
:101FE0001CDB9DED0A0A5FED5D0AB4EEE00AF1EE3E
:101FF00010FA13D89DED0B0ADDED0A0AB4EEE00AE3
:10200000F1EE10FA0AD2DDED0A0A9DED0B0A06F098
:1020100043FC06F0BDFAAA4908602CE0A848006815
:1020200090ED110A8DED070A08A909A89DED070A90
:102030000AF044FDBDF8241071200BF0E1F9BDF861
:10204000201072200BF0DCF99D48006890ED120A18
:102050008DED070A08A909A89DED070A0AF02EFDD3
:10206000BDF8241073200BF0CBF9BDF820107420BC
:102070000BF0C6F900BF00BF45E0BDF8D40015283D
:102080003FD2DFE800F03E2E32361F0B0F13171B36
:102090003A3E3E3E3E3E3E3E3E3E3B00012007F085
:1020A000FFFF2FE0022007F0FBFF2BE0032007F0EB
:1020B000F7FF27E0042007F0F3FF23E0002007F0FC
:1020C000EFFF1FE09DED370A8DED270A9DED360AE3
:1020D0008DED260ADDED270A9DED260A08F000F8B1
:1020E00010E0012011F0BAF90CE0022011F0B6F96D
:1020F00008E0002011F0B2F904E003E008F00EF867
:1021000000E000BF00BF002235A96E48006812F051
:1021100083FE0128B1D0299800287DD06A48006844
:102120000028FAD02AA803F093FD299800F00100B6
:10213000E8B39DED2D0A8DED270A9DED2C0A8DED5E
:10214000260A9DED2B0A8DED250A9DED2A0A8DEDBF
:10215000240ADDED271A9DED261ADDED250A9DEDF9
:10216000240A09F09DFC9DF8B80000B39DED2A0AF1
:102170005FEDC50A20EE200ABCEEC00A10EE100A80
:1021800080B20146279005200BF03AF99DED2B0A0D
:102190005FEDCD0A20EE200ABCEEC00A10EE100A58
:1021A00080B20146279006200BF02AF900E01FE0DC
:1021B0009DED2C0A5FEDD60A20EE200ABCEEC00A87
:1021C00010EE100A80B20146279007200BF018F994
:1021D0009DED2D0A5FEDDE0A20EE200ABCEEC00A5E
:1021E00010EE100A80B20146279008200BF008F983
:1021F000299800F0020080B39DF8C40070B39DEDF3
:102200002F0A8DED250A26A927A89DED250A0AF09B
:1022100055FCBDF89C1000E0D6E014200BF0F0F85F
:10222000BDF8981015200BF0EBF89DED300A8DED00
:10223000250A26A927A89DED250A0AF03FFCBDF82E
:102240009C1016200BF0DCF8BDF8981017200BF04E
:10225000D7F801201D49087014E027E0FFE71B486C
:10226000007878B9002114200BF0CAF8002115205D
:102270000BF0C6F8002116200BF0C2F80021172041
:102280000BF0BEF89DF8C40038B940F2011009F017
:10229000FBFB01200E49087008E00D48007828B1CA
:1022A000002009F0F1FB002009490870299800F08E
:1022B0000400A8B39DF8D00098B39DED320A09E060
:1022C000AC00002098000020A4000020180100208D
:1022D000190100208DED250A26A927A89DED250AC4
:1022E0000AF0ECFBBDF89C101E200BF089F8BDF83D
:1022F00098101F200BF084F89DED330A8DED250A10
:1023000026A927A89DED250A0AF0D8FBBDF89C1048
:1023100020200BF075F8BDF8981021200BF070F814
:1023200010E0FFE700211E200BF06AF800211F20BB
:102330000BF066F8002120200BF062F8002121202C
:102340000BF05EF8299800F00800E8B30020279011
:1023500008F024FBC8B3279840F00100279021AA79
:1023600022A924A808F094FA80B39DED240B51EC27
:10237000100BFEF72FFB1FA91E9020A89DED1E0A33
:102380000AF09CFBBDF8801046200BF039F8BDF830
:102390007C1047200BF034F89DED220B51EC100B14
:1023A000FEF718FB1FA91E9020A89DED1E0A0AF03B
:1023B00085FBBDF8801048200BF022F8BDF87C109A
:1023C00049200BF01DF802E022E002E000E000BF2F
:1023D00000BF08F059FA26902698A0B126984078B8
:1023E00000F0070025902599279840EA410080B227
:1023F0002790269890F8280024902499279840EA5E
:102400000110279000BF022027990AF0F9FF00BFB2
:1024100013F07EF82890904928980968401A64289B
:1024200046D3012027900FF0ABF808F0B7FA18B1A7
:10243000279840F0020027908848007C18B1279820
:1024400040F00400279025A807F0F2FB18B1279868
:1024500040F0080027908248008818B1279840F083
:10246000100027901AA803F0F3FB9DF8840060B1D8
:102470009DED200A8DED190A9DED190A10F036F92F
:1024800018B1279840F0200027900EF0DBFC18B11F
:10249000279840F040002790002027990AF0B0FFCD
:1024A000012103200AF0ACFF6B492898086000BFA7
:1024B0006C4928980968401AB0F57A7F31D326A86C
:1024C00010F044FE48B3BDF8980001462590642002
:1024D0000AF096FF9DF89A000146259065200AF0C3
:1024E0008FFF9DF89B000146259066200AF088FF2B
:1024F0009DF89C000146259067200AF081FF9DF819
:102500009D000146259068200AF07AFF9DF89E0004
:102510000146259069200AF073FF52492898086007
:1025200000BF514928980968401A42F21071884248
:102530006BD34B48008888B31AA810F007FE70B31D
:1025400047480088ADF870000BF052F8ADF8720003
:1025500008F024FA8DF874004448007A48B14348E2
:1025600090ED000A8DED1E0A90ED010A8DED1F0A17
:1025700007E09FED3F0A8DED1E0A9FED3D0A8DEDB0
:102580001F0A18A807F054FB50B19DED180A8DEDF5
:10259000200A9DED190A8DED210A09E052E050E074
:1025A0009FED330A8DED200A9FED310A8DED210A52
:1025B0002A48007C88B1294890ED000A8DED220A56
:1025C00090ED010A8DED230A90ED030A8DED240AAA
:1025D00090ED020A8DED250A0FE09FED250A8DEDA5
:1025E000220A9FED230A8DED230A9FED210A8DED2E
:1025F000240A9FED1F0A8DED250A0AF0F9FF022833
:1026000013D11648007C01E023E01EE068B127A941
:1026100026A80AF0CFFF80B99FED150A8DED260A96
:102620009FED130A8DED270A07E09FED110A8DED4E
:10263000260A9FED0F0A8DED270A1AA80EF008FC56
:1026400000BF00BF084928980860012002F080F808
:1026500000BFFEF7DABF00000C010020DC03012000
:10266000A8000020100100201401002050030120C8
:102670000000000008B512F04BFF00901DE00F486D
:10268000007C08B9012000E000200446032002F08D
:102690005FF83CB109F0E0FD00BFC821684612F0C8
:1026A000C5FD09E0002009F0C5FD00BF4FF47A71B7
:1026B000684612F0BBFD00BF00BFE0E7DC0301206D
:1026C00000BFFEE700BFFEE710B50EF0CBF910BD6E
:1026D0002DED088B90B012F005FF044607F018FDB1
:1026E0004FF4FA7011F0E2FB22E3F9480078062873
:1026F00012D2DFE800F00312505F81900FF032FD3C
:1027000038B110F0EFFCF34908600120F04908707F
:1027100002E00220EE490870FAE200200F9010F06B
:10272000E1FC04460FAA0AA920460FF0D1FC054699
:10273000B5B1E948006830B100231A460AA9E64855
:10274000006812F0DBF90AA803F026FB0120E34938
:1027500008700020DF4908600220DD49087019E098
:102760009DF83C0040B10020DC490870D949086060
:102770000220D74908700DE0D6480068201AB0F54D
:10278000967F07D90020D5490870D24908600220F9
:10279000CF490870BCE207F001FD38B910F0A2FC87
:1027A000CF4908600320CA49087002E00020C849E8
:1027B0000870ADE2CB4807F06FFA60B1C94890ED00
:1027C000000AC94880ED000A0020C54908600420BD
:1027D000BF4908700FE010F085FCC1490968401A34
:1027E000B0F5967F07D907F01AFA0020BC490860B7
:1027F0000420B74908708BE207F002FD38B910F0E9
:1028000071FCB74908600520B149087002E000205A
:10281000AF4908707CE2B54807F066FAE8B1B34802
:1028200090ED000AB04880ED010A90ED011AF0EE3B
:10283000410A90ED001AB0EE410A012003F054FA6B
:102840000120AB4908700020A54908600120A94972
:10285000087000209E49087021E010F043FCA04958
:102860000968401AB0F5967F19D907F0D8F9002009
:102870009F4908709C4890ED011AF0EE410A90EDD6
:10288000001AB0EE410A012003F02EFA002094490C
:10289000086001209749087000208D49087095480C
:1028A0000078002876D000209249087010F01AFCB9
:1028B000064600200F9000279FED8F0A8DED0E0A2F
:1028C0009FED8D0A8DED0D0A8C480068301AB0F529
:1028D000FA7F3FD389480660B84608F05FF810B128
:1028E0004FF0020807E008F08BF810B14FF0010834
:1028F00001E04FF00008404603F028FA0DA90EA8A9
:102900000FF01CFED0B101200F909DED0D0A0FF0CD
:10291000EDFE07469DED0E0A794880ED000A9DED1B
:102920000D0A80ED010A0120754908723946DDED76
:102930000D0A9DED0E0A03F05BFA0AE000207049D3
:10294000087200210846DFED6C0A9FED6B0A03F068
:102950004FFA00BF02A803F07BF910F0C3FB044656
:102960009DF82400F0B39DED080AF9EE040AB4EED8
:10297000E00AF1EE10FA01D2012000E002208046C8
:1029800060480078804506D05E4880F800805E4848
:1029900004603CE0BBE15C480068A4EB000A4EF632
:1029A0006020824532D357480078012826D1574805
:1029B000007810BB56480078C8B910F093FB8146E8
:1029C00054480068A9EB0000B0F5FA7F0ED307F079
:1029D000A5FB8346BBF1000F07D101204C490870CD
:1029E0004C4800E014E0C0F8009000BF00BF484829
:1029F000007810B101204549087007E0434800788D
:102A000020B10020414908704149087000BF00BF53
:102A10003E480078F0B340480088E0B33F48006883
:102A2000C8B33E48006890ED060AF0EE408A3B4885
:102A3000006890ED070AB0EE409A2B48D0ED000AEE
:102A400070EEE80AB0EE600A05F034FBB0EE408AA2
:102A50002548D0ED010A70EEC90AB0EE600A05F013
:102A600029FBF0EE409A9FED2E0AB4EEC08AF1EEFB
:102A700010FA05DD9FED2B0A30EE480AB0EE408AD1
:102A8000B6EE00AAB6EE000AB4EEC08AF1EE10FA75
:102A900009DC01E051E04FE0B6EE000AF4EEC09A26
:102AA000F1EE10FA47DD10F01DFB80461948006872
:102AB000A8EB0000B0F5FA7F3CD3F0EE490AB0EE87
:102AC000680A07F00DFB78B31248C0F8008031E0C7
:102AD000CB000020D400002094000020C90000207A
:102AE000D8000020EC00002084010020F00000202D
:102AF000CA000020F400002000000000DC000020DC
:102B000050030120C0000020C4000020C8000020A5
:102B1000E8000020E0000020A8000020AC00002019
:102B2000000034430000B443FFE782480068401CC3
:102B30008049086000BF00BFEAE010F0CFFC054606
:102B40007D48008801287CD10F9800287AD0002F7A
:102B500078D04D200AF0A0FB81464E200AF09CFB65
:102B6000824651200AF098FB834652200AF094FBDB
:102B70000190514648460AF001FBB0EE40AA584683
:102B800001990AF0FBFAF0EE40AA9DED0E0A30EE34
:102B90000A0AB0EE408A9DED0D0A30EE2A0AF0EEE8
:102BA000408A05E01FED210A38EE000AB0EE408AA7
:102BB000B5EEC08AF1EE10FAF4D305E01FED270A56
:102BC00038EE400AB0EE408A1FED2A0AB4EEC08A01
:102BD000F1EE10FAF2DAF5EEC08AF1EE10FA03D255
:102BE0001FED3B0AF0EE408A9FED540AF4EEC08AD6
:102BF000F1EE10FA03DD9FED510AF0EE408A5048E5
:102C0000D0ED000A70EEC80AB0EE600A05F052FA84
:102C1000B0EE409A4A48D0ED010A70EEE80AB0EEF4
:102C2000600A05F047FAF0EE409A1FED430AB4EE51
:102C3000C09AF1EE10FA08DD1FED460A30EE490A9F
:102C400001E039E033E0B0EE409AB6EE00BAB6EEFD
:102C5000000AB4EEC09AF1EE10FA06DCB6EE000AF5
:102C6000F4EEC09AF1EE10FA20DD10F03BFA804647
:102C700034480068A8EB0000B0F5FA7F15D3F0EEF9
:102C8000680AB0EE480A07F02BFA48B12D48C0F8A0
:102C90000080F0EE680AB0EE480A0AF0E7FC04E0B3
:102CA00024480068401C2349086000BF00BF6DB382
:102CB000022010F0D3FB29E01F480088022825D10C
:102CC0002148007C58B109F0D1FA2048D0ED000A23
:102CD000B4EEE00AF1EE10FA01D2012000E000208B
:102CE0008046B8F1000F03D0012010F0B7FB0CE0D4
:102CF0001748007848B11748007830B10AF060FDF5
:102D00000020134908701349087000BF00BF00BFBE
:102D100000BF1148007818B10F480078012801D190
:102D200007F018F9002001F013FD0A2011F0BEF899
:102D3000DBE40000E4000020A80000200000B44212
:102D400084010020E0000020DC030120B40000200A
:102D5000C9000020CA000020CB00002010B500BF31
:102D6000502080F31188BFF34F8FBFF36F8F00BFE8
:102D700012F0D4FB18B14FF080500449086000BF36
:102D8000002080F3118800BF10BD000004ED00E0BA
:102D90001CB55C48006840F470005A4908605A4805
:102DA0005849803908605948006840F00100574987
:102DB000086000BF5548006800F002000028F9D004
:102DC00052480830006800F00C0008286ED100BF9F
:102DD0000020019002E00198401C019001985028C9
:102DE000F9D34A48083000680090009820F0F000BD
:102DF0000090009840F0800000904449083100980D
:102E000008600020019002E00198401C01900198A8
:102E10005028F9D33D48083000680090009820F011
:102E2000F0000090009840F0900000903749083181
:102E3000009808600020019002E00198401C019079
:102E400001985028F9D33148083000680090009864
:102E500020F0F0000090009840F0A00000902B4976
:102E60000831009808600020019002E00198401CA1
:102E7000019001985028F9D3244808300068009048
:102E8000009820F0F0000090009840F0B000009012
:102E90001E490831009808600020019002E0019866
:102EA000401C019001985028F9D300BFC82001F0C0
:102EB000C1FB16480830006820F0030013490831B0
:102EC0000860124800681249084010490860084626
:102ED000006820F48020086000200C490831086058
:102EE00000BF0A480830006800200028F9D10948CE
:102EF0000649091D0860002004490C31086010F0E3
:102F0000B7F81CBD88ED00E0000001080038024061
:102F1000FFFFF6FE1030002410B50121054810F027
:102F200086FA28B10121034810F07EFA03F016F862
:102F300010BD00000010004008B500200090684659
:102F400007F0C4FF009858B100BF009838B14FF0A7
:102F5000805004490860BFF34F8FBFF36F8F00BFED
:102F600008BD000004ED00E0F8B5002000903A49EB
:102F70003A4810F019FD002847D00421374810F0D6
:102F8000EAFC364810F040FC0121354803F0B6FE5B
:102F9000C0F1800084B233480588AC4234D0AC42E2
:102FA00010DD2E460BE03048875D6946384609F053
:102FB00097F96946384606F0F9FE701C86B2A642BB
:102FC000F1DB1FE02E460BE02748875D6946384657
:102FD00009F086F96946384606F0E8FE701C86B2AC
:102FE000802EF1DB00260BE01F48875D69463846DE
:102FF00009F076F96946384606F0D8FE701C86B2AC
:10300000A642F1DB1748048000BF0321134810F0EB
:10301000A2FC30B10321114810F083FC0F4810F0DE
:10302000F3FB01210D4810F096FC30B101210B4853
:1030300010F077FC094810F0E7FB009858B100BF8A
:10304000009838B14FF0805008490860BFF34F8FA7
:10305000BFF36F8F00BFF8BD0403040000480040B9
:10306000006002401A0100205C03012004ED00E032
:1030700038B5002000901349134810F095FC90B12A
:103080000421114810F067FC0F4810F0BDFB02212D
:103090000E4803F033FEC0F5807084B269462046C6
:1030A00008F028FD00BF009858B100BF009838B163
:1030B0004FF0805006490860BFF34F8FBFF36F8F0A
:1030C00000BF38BD04030400001401400064024046
:1030D00004ED00E000BFFEE741F2883010F0E6FEAC
:1030E00001F068FB01F056FB28B903E04FF47A7059
:1030F00010F0DCFEFAE70DE012F00AFA0446204672
:1031000001F012FB08B106F0FFF94FF4FA7010F06D
:10311000CDFE00BFF0E700000FB41CB50246002052
:1031200007AC00290BD0491ECDE90021054B6A46AA
:103130002146069800F0DCFE009A002111701CBCAC
:103140005DF814FB1F4601087CB5044600201D46AF
:10315000164600290BD0491ECDE90041044B6A46B2
:103160002946304600F0C4FE009A002111707CBD53
:103170001F4601084100080218BF04200A0E18BFAC
:1031800040F001004FF07F4232EA010108BF40F0F9
:103190000200012808BF05207047014621F00040C9
:1031A000C0F1FF40C00F7047004870475C0200202C
:1031B00010B54FF00E402DED028BB0EE408A18EEA8
:1031C000104A00EB4400B0F1506F4AD84FF0FC4079
:1031D000B0EB440F22D2B0EEC80AF7EE000A30EE90
:1031E000C00AF6EE000A60EE208A18EE900A0FF090
:1031F0007BF801EE100A14F0004F1DBFDFED2D0A21
:103200009FED2D0AB1EE411ADFED2C0A08BF9FEDAC
:103210002C0AF8EE001A21EE218A05E0DFED290ADA
:1032200068EE088AB0EE600A9FED271ADFED271AD4
:1032300030EE080A48EE811A9FED251A08EEA11A11
:10324000DFED241A48EE811A9FED231A08EEA11A29
:1032500068EE281ABDEC028B01EE810A30EE200ADE
:1032600010BD4FF0E440B0EB440F0CD918EE100A3B
:10327000FFF780FF042808BF00F0A2FCB0EE480A68
:10328000BDEC028B10BD4FF07F40B0EB440F07D276
:10329000B0EE480ABDEC028BBDE8104000F082BCE5
:1032A000012000F055FDBDEC028BBDE8104000F0A0
:1032B0007FBC00000000C9BF22AAFDB90000C93FC1
:1032C00022AAFD390000000024FE1C3DC78AD83C1C
:1032D0001E67383D1B93993DAFAA2A3E10EE100A97
:1032E00010B510EE901A4FF0684202EB40032DED3E
:1032F000028BB3F1654F3CBF02EB4102B2F1654F67
:103300007CD200BFC0F3C753C1F3C7529A1A1B2A1D
:1033100009DD10F0004F14BF9FED6E0A9FED6E0A9D
:10332000BDEC028B10BD12F11A0F1BDA11F0004F29
:1033300009D010F0004F0CBF9FED680A9FED680A9E
:10334000BDEC028B10BD80EE208A18EE100AFFF74C
:1033500011FF042808BF00F033FCB0EE480ABDECB2
:10336000028B10BD4200B2EB410F37D910F0004F75
:1033700019BFDFED5C1A9FED5C1ADFED5C1A9FED63
:103380005C1AB0EE602A0A46F1EE400A80F0004175
:10339000B0EE420A10460A1A5200B2F1807F34D2CF
:1033A000484010F0004FDFED532A9FED533A1DBF08
:1033B000BEEE002A71EEE21A31EE431AB6EE002A92
:1033C00004BF71EEA21A31EE031AF0EE402A42EE6B
:1033D000602A40EE020A82EEA02A18E011F0004FA7
:1033E00004BF9FED461AF0EE411AD4D010F0004F02
:1033F0001CBFDFED431A9FED431A00E026E004BF37
:10340000DFED411A9FED411AC5E780EE202A22EE3A
:10341000020ADFED3F0ADFED3F2ABDEC028B40EEF2
:10342000202ADFED3D0A40EE220ADFED3C2A40EE85
:10343000202ADFED3B0A40EE220A22EE000A00EECF
:10344000201A31EE020A30EE210A10BD4FF07F4201
:10345000B2EB400F28BFB2EB410F05D2BDEC028B9F
:10346000BDE8104000F0A1BB40EA01035B0008BFCB
:1034700041F0FF410BD0B2EB400F08BFB2EB410F60
:1034800008D120F0804000EE100A21F0804100EECB
:10349000901A37E7B2EB400F12BF5FEA410240F0EB
:1034A000FF4001F000413FF42DAF4A0092EA400393
:1034B0003FF528AF002AACBF9FED1A1A9FED1A1AEC
:1034C00020EE010A60EE810A10EE100A10EE901A4A
:1034D00018E70000DB0FC9BFDB0FC93FDB0F494016
:1034E000DB0F49C00000C9BF22AAFDB90000C93FD7
:1034F00022AAFD390060ED3EC30ACE37000000006D
:10350000000049C022AA7DBA0000494022AA7D3AA3
:103510002DAD65BD8FB8D53D0FB511BE61C84C3E10
:10352000A8AAAABE0000804F0000802F0000000063
:1035300030B583B0044600F0F5FB9FED090B05465E
:103540008DED000B002221466846FDF762FB284600
:1035500000F0FEFB9DED000B03B030BD000000004D
:10356000000000000000000010EE101A08B5444AE8
:103570006846B2EB410F28D94FF0E640B0EB410F5F
:1035800094BF00204FF0FF3000900098002861DBCE
:1035900060EE000A10F0010F45D010F0020FDFEDD1
:1035A000391A9FED391A00EEE11ADFED381A40EEB4
:1035B000811A21EEA01AF0EE400A40EE010A08BF7F
:1035C000F1EE600AB0EE600A08BD314B21F0004216
:1035D00093423CD911F0004FDFED2E0A20EE201A65
:1035E000DFED2D0A19BF31EE601A71EE200A31EEBF
:1035F000201A71EE600ABDEEE01A11EE100A9FED7E
:10360000271A00F0030000EEC10A9FED251A009072
:1036100000EEC10A9FED231A00EEC10A9FED221AA7
:1036200000EEC10AB1E79FED211A9FED210A10F0CB
:10363000020F00EE810A9FED1F1A00EE801AB7EE0E
:10364000000A00EE810A18BFB1EE400A08BD00F082
:10365000BFFA9AE710EE100A4000B0F17F4F3CBF6E
:10366000B7EE000A08BD07D14FF0010000F070FB73
:10367000BDE8084000F09CBABDE8084000F092BAEE
:10368000B61F927E336D4C39DA82083CA0AA2ABE5E
:10369000490E494683F9223F0000004B0000C93F14
:1036A00000A0FD390020A2331A61342CB93AB2BA15
:1036B000CA9F2A3DDDFFFFBE2DED020B019820F0D1
:1036C000004001909DED000B02B07047000000002B
:1036D0002DE9F0412DED020B9FED3D0B2DED028B01
:1036E0009FED3D8BDDE90254C4F30A50A0F2FF3692
:1036F000142E37DA002E18DA53EC102B9DED020B46
:1037000051EC100BFCF75DFF53EC182BFDF74AF959
:1037100057D2002CA4BF0024254652DA24F00040E2
:10372000284318BF2E4C4CD01AE02E4820FA06F73A
:1037300004EA070028431FD053EC102B9DED020B29
:1037400051EC100BFCF73DFF53EC182BFDF72AF959
:1037500037D2002C03DA4FF48010F0400444BC430D
:1037600000252EE0332E07DCA6F114004FF0FF31C8
:1037700021FA00F73D4206D19DED020BBDEC028B14
:1037800002B0BDE8F08153EC102B9DED020B51EC23
:10379000100BFCF7BAFF53EC182BFDF703F910D20E
:1037A000002C0DDA142E08BF641C09D0C6F13400B9
:1037B000012101FA00F02844A84238BF641C0546E4
:1037C000BD43CDE902549DED020BD7E70000000098
:1037D0009C7500883CE4377E00000000000000007B
:1037E0000000F0BFFFFF0F0010B52DED028BF0EED3
:1037F000408A18EE900AB0EE608A20F00040C0F1D6
:10380000FF40C00F07D118EE100A20F00040C0F1B1
:10381000FF40C00F2BD018EE101A18EE900AFDF7DB
:1038200062FA00EE100A10EE100A6FEAD05010F0A3
:10383000FF0F04BFBDEC028B10BD18EE900A00F024
:10384000004110EE100A00F00040814204BFBDECC0
:10385000028B10BD18EE101A10EE100ABDEC028B90
:1038600061F31E0000EE900A30EE600A10BD18EE03
:10387000900A4FF07F41B1EB400F1CBF18EE100AC9
:103880005FEA4000C7D1012000F062FABDEC028B74
:10389000BDE8104000F08CB900B510EE101A2DED07
:1038A000028B81B0524A6846B2EB410F2ED94FF0DD
:1038B000E640B0EB410F94BF00204FF0FF30009086
:1038C0000098B0EE408A00286ADB10F0010F4BD060
:1038D00068EE080A9FED471A9FED470A00EE810A3D
:1038E0009FED461A10F0020F00EE801AB7EE000AA4
:1038F00000EE810A02BF01B0BDEC028B00BD00BF2B
:1039000001B0B1EE400ABDEC028B00BD3C4B21F092
:103910000042934241D911F0004FDFED3A0A20EE08
:10392000201ADFED390A19BF31EE601A71EE200A54
:1039300031EE201A71EE600ABDEEE01A11EE100AA7
:103940009FED321A00F0030000EEC10A9FED301A1D
:10395000009000EEC10A9FED2F1A00EEC10A9FED04
:103960002E1A00EEC10AABE728EE080A9FED2B1ACB
:10397000DFED2B0A10F0020F40EE410A9FED291AED
:1039800000EE201A61EE000AB0EE480A08EE200AA6
:10399000B6D101B0BDEC028B00BD00F019F98FE784
:1039A00018EE100A4000B0F17F4F0DD218EE100A49
:1039B000FFF7E0FB042808BF00F002F9B0EE480A68
:1039C00001B0BDEC028B00BD09D1012000F0C0F9AF
:1039D00001B0BDEC028B5DF804EB00F0E9B801B07A
:1039E000B0EE480ABDEC028B5DF804EB00F0DAB8EB
:1039F000B61F927EB93AB2BACA9F2A3DDDFFFFBE1A
:103A0000490E494683F9223F0000004B0000C93FA0
:103A100000A0FD390020A2331A61342C336D4C39DB
:103A2000DA82083CA0AA2ABE00B510EE101A2DEDCD
:103A3000028B81B04D4A6846B2EB410F3CD94FF042
:103A4000E640B0EB410F94BF00204FF0FF300090F4
:103A50000098B0EE408A00285FDB28EE080ADFED10
:103A6000440A9FED441A00EE201ADFED430A40EEAF
:103A7000010A9FED421A00EE201ADFED410A10F014
:103A8000010F40EE010A9FED3F1A00EE201A61EE91
:103A9000000AB0EE480A08EE200A02BF01B0BDECF1
:103AA000028B00BDBFEE001A01B0C1EE000ABDECF2
:103AB000028BB0EE600A00BD334B21F0004293420E
:103AC00028D911F0004FDFED310A20EE201ADFED8A
:103AD000300A19BF31EE601A71EE200A31EE201A59
:103AE00071EE600ABDEEE01A11EE100A9FED291A80
:103AF00000F0030000EEC10A9FED271A009000EECF
:103B0000C10A9FED261A00EEC10A9FED251A00EEAC
:103B1000C10A9DE700F05CF89AE718EE100A400031
:103B2000B0F17F4F0DD218EE100AFFF723FB0428E7
:103B300008BF00F045F8B0EE480A01B0BDEC028BBA
:103B400000BD09D1012000F003F901B0BDEC028BEA
:103B50005DF804EB00F02CB801B0B0EE480ABDEC03
:103B6000028B5DF804EB00F01DB80000B61F927EDA
:103B7000BBE9223C0C6D063B8A76CE3CACB5593D88
:103B800035A1083E29AAAA3E490E494683F9223F9B
:103B90000000004B0000C93F00A0FD390020A23307
:103BA0001A61342C30EE000A704730EE200A70475C
:103BB000DFED020A80EEA00A70470000000000005E
:103BC0009FED020A20EE000A70470000000000107E
:103BD0002DE9F0014FF07F42B2EB410F9FBF4FF054
:103BE000FF310160BDE8F00170474FF0004242EA4A
:103BF0000123C1F3C752783A551112F01F0C434C00
:103C0000CCF120067C44C1F3C752A2F178024FEAFE
:103C1000621204EB820254F8254008BFD2E9015633
:103C200012D0556804FA0CF425FA06F73C4397685D
:103C300005FA0CF527FA06F8D26807FA0CFCF240F0
:103C400045EA08054CEA0206A4FB034CA5FB035217
:103C5000A6FB03631D449D4234BF012600261319B1
:103C6000334416B1934202D903E0934201D20122B8
:103C700000E00022624402F1200C9206DC0C42EAD1
:103C8000443200EE102A5B03DFED210AF8EEC01A81
:103C900000EE103A4FEA9C1C11F0004FB8EE400ABB
:103CA000C0F800C020EE201A00EE105ADFED190A0D
:103CB000B8EE400A20EE200A71EE810A70EE800A0A
:103CC00010EE902A02F500626FF30B0200EE902ACC
:103CD00070EEE11A31EEC11ADFED101A30EE411A22
:103CE0009FED0D0A20EE800A01EE210A9FED0C1ACD
:103CF00000EE810A04BFBDE8F0017047CCF18051AD
:103D00000160BDE8F001B1EE400A7047880A020088
:103D1000000000360000802C22AAFD29DB0FC92FED
:103D20000000C92F01480068704700005C020020B5
:103D300002E008C8121F08C1002AFAD17047704774
:103D4000002001E001C1121F002AFBD170470000D2
:103D500001490860704700005C0200202DE9FF5F08
:103D600082B00021DDE90430020DDDF840B00343EC
:103D700018D044F61050A2F2FF32424315141198A5
:103D800001281FD0A5EB0B00401C5FEA000A4FF092
:103D900000064E4FDFF83891B046504615D5CAF1AF
:103DA000000413E0119801244AA3012801D16FEA0D
:103DB0000B010298119AC0E90031C0E9024206B035
:103DC000BDE8F09FCBF10000DFE704460021404A48
:103DD000491842EB0450CDE9001012E0E00707D08B
:103DE00032463B4640464946FCF792FC80468946AF
:103DF00032463B4610461946FCF78AFC06460F46FB
:103E00006410002CEAD1DDE90401DDE90023BAF1F8
:103E1000000F06DAFCF77CFC42464B46FCF778FCC8
:103E200005E0FCF7E7FC42464B46FCF7E3FC0446A2
:103E30000E460022284BFCF7B5FD03D84FF0FF30AB
:103E4000014607E00022254B20463146FCF7B9FB2E
:103E5000FCF7CFFF102409E0002C0ADB0A22002324
:103E6000FCF70EFA039B30321A55641E50EA010229
:103E7000F2D1641C039AC4F111031444119A012A6B
:103E800003D0012208430DD10AE0084304D00020EA
:103E90004FF0110B119072E7A3EB0B056D1E0DE0B7
:103EA0005B4504DD4FF0000205F1010504E003DA93
:103EB0004FF00002A5F10105002AECD002981199FB
:103EC000C0E90231C0E9004579E700000000144074
:103ED0000000F03F300000000000F0430000E03F31
:103EE00030380A2801D201207047002070470000B6
:103EF0002DE9FF4F95B09B468946064600250FE207
:103F0000252877D100242746F84A0121059400E0AE
:103F1000044316F8013F203B01FA03F01042F7D1A9
:103F200030782A2811D06FF02F033078A0F13002BA
:103F3000092A16D8059A44F0020402EB820203EB28
:103F400042021044761C0590EFE759F8042B0592C5
:103F5000002A03DA504244F40054059044F002046D
:103F6000761C30782E2816D116F8010F44F0040480
:103F70002A280DD06FF02F023078A0F13003092BE2
:103F800009D807EB870302EB4303C718761CF3E756
:103F900059F8047B761C30786C280FD006DC4C284E
:103FA00017D068280DD06A2814D104E0742810D0E6
:103FB0007A280FD10DE044F400140AE044F4801490
:103FC00001E044F440147278824202D104F5801476
:103FD000761C761C307866280BD013DC582877D0F6
:103FE00009DC002875D04528F6D04628F4D04728AB
:103FF0001AD19DE118E0632835D0642879D065286E
:1040000012D195E1702873D008DC6728F1D06928B7
:104010006FD06E280DD06F2806D1B5E073282CD054
:10402000752875D0782874D05A46179990476D1C1A
:1040300075E1C4F30250022809D003280DD0D9F845
:10404000001004280DD00D6009F1040967E1D9F8CA
:104050000010EA17C1E90052F6E7D9F800100D8008
:10406000F2E70D70F0E719F8041B8DF8001000203E
:104070008DF80100EA46012003E059F804AB4FF047
:10408000FF3061074FF0000102D40DE008F101019B
:104090008846B9420FDA8045F8DB1AF80810002983
:1040A000F4D108E008F1010188468142FADB1AF8F0
:1040B00008100029F6D105985B46A0EB08072146B9
:1040C0003846179A00F094FA284400EB080507E0F8
:1040D0004DE029E10DE01AF8010B5A461799904777
:1040E000B8F10108F7D25B4621463846179A13E12A
:1040F00042E00A220092C4F302524FF0000A022A60
:1041000008D059F804CB032A4FEAEC710AD00DE02D
:1041100029E02AE009F1070121F00702F2E802C1D3
:10412000914609E00FFA8CFC4FEAEC71042A03D1A6
:104130004FFA8CFC4FEAEC71002907DA0A4600219D
:10414000DCF1000C61EB02012D2202E0220504D516
:104150002B228DF80420012203E0E20701D0202267
:10416000F7E7904659E00A2102E010220DE0102105
:104170004FF0000A00910BE010224FF0000A44F0CB
:1041800004040827009203E008224FF0000A00927E
:10419000C4F30252022A05D059F804CB0021032AA5
:1041A00008D009E009F1070121F00702F2E802C195
:1041B000914605E01FFA8CFC042A01D10CF0FF0C9B
:1041C0004FF00008220728D5702806D0009B83F006
:1041D000100353EA0A0305D00EE040228DF80420B4
:1041E000012208E05CEA010206D030228DF80420AA
:1041F0008DF8050002229046009B83F0080353EAE5
:104200000A030AD15CEA010201D1620705D5302216
:104210008DF804204FF001087F1E582804D034A0E8
:1042200003900EA802900DE036A0F9E753466046D1
:10423000009AFCF725F884460398825C0298401E99
:10424000029002705CEA0100F0D1029806A9081AF7
:1042500000F1200A600702D524F4803400E0012731
:10426000574502DDA7EB0A0000E0002000EB0A0141
:10427000009005984144401A0590E00306D45B463F
:104280002146179A059800F0B3F90544002706E087
:1042900001A85A46C05D179990476D1C7F1C474581
:1042A000F6DBE0030CD55B462146179A059800F033
:1042B0009FF9054404E030205A46179990476D1C39
:1042C0000099481E00900029F5DC08E00298029948
:1042D0005A460078491C0291179990476D1CBAF113
:1042E0000001AAF1010AF1DC65E1000009280100E2
:1042F000303132333435363738396162636465665C
:10430000000000003031323334353637383941421D
:10431000434445460000000000F058F90544761C6F
:10432000307800287FF4ECAD19B02846BDE8F08F56
:10433000620700D4062709F1070222F0070CFCE807
:104340000223E14603F000485FEA080C02D00FF2B6
:10435000702C0DE05FEA045C02D50FF2682C07E0D8
:104360005FEAC47C02D00FF2602C01E0AFF2700C67
:104370004FF0FF3823F00043CDF850C065280CD033
:1043800006DC452809D046281DD047283DD13DE010
:10439000662818D067287ED138E00021112F01DB74
:1043A000112000E0781CCDE9000106A90EA8FFF756
:1043B000D5FCDDE90F010E9A03910021009207F16F
:1043C000010A04914DE04FF000400097CDE9011043
:1043D00006A90EA8FFF7C2FCDDE90F0203920E9BAF
:1043E00011990022DDF80CA00093049211B9791CF8
:1043F00000EB010AB7EB0A0004D4C0F1FF3007F16B
:10440000010A0490AAEB0700019044E0012F00DAB2
:1044100001270021112F01DD112000E03846CDE9F0
:10442000000106A90EA8FFF799FCDDE90F010E9A1D
:104430000391002104910092BA4621070CD40399FC
:10444000514500DA8A46BAF1010F05DD009AAAF15A
:104450000101515C302908D0B84202DA10F1040F92
:1044600006DA0121CDE9011015E0AAF10101E9E721
:10447000002805DC049901440491AAEB000102E044
:10448000411C514500DD8A460499401A401C0190A8
:104490004FF000400290200704D40198504501DB02
:1044A000CDF8048000208DF84F0002980DF14F07E1
:1044B000B0F1004F25D02B200E9002984FF002084B
:1044C00000280CDA404202902D200E9007E00A21CD
:1044D0000298FCF79BFA3031029007F8011DB8F101
:1044E0000001A8F10108F2DC02980028EFD1791E42
:1044F0000E980870307800F0200040F0450007F872
:10450000020D12A8C01B00F107081498007800B132
:10451000012000EB0A01019801EBE071059841448C
:10452000401A401E0590E00306D45B462146179AC8
:10453000059800F05DF805441498007818B15A46C3
:10454000179990476D1CE00324D55B462146179AC6
:10455000059800F04DF805441CE00498002807DB9E
:10456000DDE90301884203DD0098405C179901E012
:10457000179930205A469047049805F10105401CD0
:1045800004900198401E019004D12E205A4617999C
:1045900090476D1CBAF10001AAF1010ADDDC05E0CB
:1045A00017F8010B5A46179990476D1CB8F1000196
:1045B000A8F10108F4DC5B462146179A0598ABE6A2
:1045C0002D0000002B000000200000002DE9F0412C
:1045D000044600251E461746880404D405E03946E3
:1045E0002020B0476D1C641EF9D52846BDE8F08137
:1045F0002DE9F041044600251E469046C80301D52A
:10460000302700E02027880404D505E041463846DD
:10461000B0476D1C641EF9D52846BDE8F0814A6894
:10462000002A06D00A68531C0B6010704868401EB0
:104630004860704708B50021009102E00099491CCC
:10464000009100EB8001009AB2EB410FF6D308BD58
:104650003EB5044614B10D48007808B900203EBDAF
:10466000684609F0FFF908B90020F8E79DF808004E
:10467000074908709DF8080028B12146684601F0F6
:104680001FF90120EBE70020E9E7000040010020CE
:10469000410100200448007820B10448007808B1A6
:1046A000012070470020FCE740010020410100206C
:1046B0000EB509F0FAFA28B900200B4908700B4929
:1046C00008700EBD684609F0CDF920B19DF80800CC
:1046D00008B1012000E000200449087001200249CF
:1046E000087002480078ECE74001002041010020FA
:1046F0003EB5044614B10A48007808B900203EBD12
:104700006946204601F0C4F8684609F0F1FA08B994
:104710000020F4E701200349087000BFEFE7000024
:104720004001002041010020024600210AE0074824
:1047300050F82100101A42F6E063984201D9002097
:104740007047491C0429F2D30120F9E7A019012080
:1047500010B50446042C00DB10BD0FF07FFA10F0FA
:10476000D7FE034941F824000FF0A2FA00BFF3E797
:10477000A019012010B541F61D500AF0FBFD0128DB
:1047800000D100E00020024908700AF041FD10BD90
:104790005102002010B5062140F6C41004F080FE3E
:1047A000012801D0002010BD04F0AEFE04F0B4FEDC
:1047B0000120F8E770B510F0ABFE05460FF04EFA99
:1047C000002403E0044840F82450641C042CF9D36E
:1047D0000FF06EFA70BD0000A019012001460A20FA
:1047E00091FBF0F200FB12100A2291FBF2F240EA78
:1047F0000210C0B27047014601F00F000A1102EB2F
:10480000820200EB4200C0B27047000010B52DEDEF
:10481000068BB0EE409AF0EE609A9FED1D0B53ECC4
:10482000102B51EC190BFBF7E5FF41EC180B9FED3A
:104830001A0B53EC102B51EC180BFCF7B3F80DD8F6
:104840009FED170B53EC102B51EC180BFBF7B9FE37
:1048500041EC1A0BFCF75BF804460CE09FED100BE3
:1048600053EC102B51EC180BFBF74CFF41EC1A0BDF
:10487000FCF74DF8044614F10C0F02DA6FF00B044C
:1048800002E00E2C00DD0E2420B2BDEC068B10BD24
:104890000000000000002E400000000000000000AA
:1048A000000000000000E03FF0B503461546032974
:1048B00004DA01F10C00C1B2581E83B26420B3FBCC
:1048C000F0F700FB1734B3FBF0F2481C00EB800755
:1048D00007EBC0000527B0FBF7F02844204400EBAD
:1048E000940000EB920007FB02000727B0FBF7FCE7
:1048F00007FB1C06B01DB0FBF7FC07FB1C00F0BD5E
:1049000010B502460023002003E0145C6340441C01
:10491000A0B28842F9DB184610BD0000F0B52DEDBD
:10492000048B83B004460E4617460CB106B127B976
:10493000002003B0BDEC048BF0BD9FED550A8DED5A
:10494000020A9FED530A8DED010A01A902A804F0A5
:10495000B7FF08B90020ECE79DED028ADDED018A82
:1049600094F82250012D13D0A5BBD4ED030AB0EE6C
:10497000600A03F0A9FBB0EE409AD4ED040AB0EE51
:10498000600A03F0A1FBB4EEC09AF1EE10FA2BDB43
:10499000D4ED030AB0EE600A03F096FBF0EE409A05
:1049A0009FED3C0AF4EEC09AF1EE10FA02DDB7EE8C
:1049B000000A01E09FED380AB0EE409A94ED030A38
:1049C000B5EEC00AF1EE10FA05DD38EE490AB0EE98
:1049D000408A04E008E038EE090AB0EE408A9DED16
:1049E000010AF0EE408A41E0022D13D0A5BBD4EDC0
:1049F000040AB0EE600A03F067FBB0EE409AD4ED13
:104A0000030AB0EE600A03F05FFBB4EEC09AF1EE69
:104A100010FA2BDDD4ED040AB0EE600A03F054FB6B
:104A2000F0EE409A9FED1B0AF4EEC09AF1EE10FAF8
:104A300002DDB7EE000A01E09FED170AB0EE409AE2
:104A400094ED040AB5EEC00AF1EE10FA05DD38EE79
:104A5000890AF0EE408A04E008E038EEC90AF0EE78
:104A6000408A9DED020AB0EE408A00BFB0EE480ACF
:104A700008F004FDB0EE408AB0EE680A00F094F849
:104A8000F0EE408A86ED008AC7ED008A012050E7EB
:104A900000000000CDCCCC3ECDCCCC3D70B5044662
:104AA0000D460020E070401E60632946204608F055
:104AB000CAFC08B1042070BD04F2362007F098FB50
:104AC0004AF65521884201D00320F4E794F83800D3
:104AD000E92807D094F83800EB2803D094F8380080
:104AE000E82811D1032209A104F16E0007F0F0FEBD
:104AF00008B90020DFE7052205A104F18A0007F0CC
:104B0000E7FE08B90020D6E70220D4E7464154006A
:104B10004641543332000000024600E0521C107837
:104B200010B110788842F9D11078704730B502463C
:104B30000B46002400211CE01A4800EB011000681D
:104B4000A8B1184800EB011000681568A8420FD101
:104B5000144800EB011040689568A84208D111483C
:104B600000EB011080685569A84201D103E00124DF
:104B7000491C0829E0D300BF082906D11CB9022B23
:104B800001D0122030BD0020FCE733B9054800EB0E
:104B900001108089B0F5807F01D11020F2E700205C
:104BA000F0E70000C419012010B52DED048BB0EE24
:104BB000408A03F0EDFC0446B1EE040AF0EE408AB0
:104BC0009FED100AB0EE409A3CB194ED110AF0EE60
:104BD000408A94ED120AB0EE409AB4EEE88AF1EE03
:104BE00010FA04D2B0EE680ABDEC048B10BDB4EE2E
:104BF000C98AF1EE10FA02DDB0EE490AF4E7B0EE30
:104C0000480AF1E70000B44203468B4201DA084645
:104C10007047934201DD1046FAE71846F8E70000B6
:104C2000014600200BE0074A02EB001212688A429C
:104C300004D10022034B03EB00131A60401C082828
:104C4000F1D37047C41901200246891ED069801E25
:104C5000884201D8002070475389106B03FB010084
:104C6000F9E7000038B51D240B48009002E00098D9
:104C7000401E009080200DF0ABF910B9009800287C
:104C8000F5D1009810B91324204638BD03480DF023
:104C900099F92046F9E70000A0860100FF07C0004F
:104CA0002DE9F04780460C4604F11A0007F0A0FAFF
:104CB00010B10020BDE8F087207800F03F00401ED2
:104CC00000EB800101EBC0054FF00109002621E057
:104CD0001849895D081907F08BFA0746B9F1000FEA
:104CE00011D0FF2D0BD2384603F06CFA82462946CC
:104CF0006D1C38F8110003F065FA824501D00020E0
:104D0000D8E7B94605E04FF6FF70874201D0002092
:104D1000D0E7761C0D2EDBD3207800F0400038B1B0
:104D2000B9F1000F04D038F8150008B10020C1E730
:104D30000120BFE7BC5C020800B52DED048B8FB0ED
:104D40000DA80EF003FA20B900200FB0BDEC048BC3
:104D500000BD9DF83800082801D00020F5E79FED40
:104D6000250A8DED0C0A9FED230A8DED0B0A0BA988
:104D70000CA804F0A5FD08B90020E6E7684600F09D
:104D800067FF9DF81C0008B90020DEE7DDED059AFD
:104D9000DDED068A9DED0C0A30EE698A05E09FED97
:104DA000160A38EE400AB0EE408A9FED140AB4EEBF
:104DB000C08AF1EE10FAF2DA05E09FED0F0A38EE44
:104DC000000AB0EE408A9FED0E0AB4EEC08AF1EE02
:104DD00010FAF2D39DED0B0A30EE689AF0EE490A14
:104DE000B0EE480A06F06CFC08B90020ADE70120DF
:104DF000ABE70000000000000000B44300003443B3
:104E0000000034C3354A127C42B9DFED354AC0EDAB
:104E1000004ADFED334AC1ED004A70472F4A92ED58
:104E2000001AD2ED011A92ED032AD2ED022A9FED6B
:104E30002D4A71EE823A32EE813ADFED2A4AF4EEE3
:104E4000E43AF1EE10FA03D2DFED264AF0EE643ACE
:104E5000DFED244AB4EEE43AF1EE10FA03D2DFEDCE
:104E6000214AB0EE643A72EE614A84EEA30A71EE12
:104E7000624AC4EE830AF7EE004AB4EEE40AF1EEA9
:104E800010FA03DDF7EE004AB0EE640AFFEE004AC6
:104E9000B4EEE40AF1EE10FA03D2FFEE004AB0EEEF
:104EA000640AF7EE004AF4EEE40AF1EE10FA03DDCC
:104EB000F7EE004AF0EE640AFFEE004AF4EEE40A70
:104EC000F1EE10FA03D2FFEE004AF0EE640A80ED34
:104ED000000AC1ED000A00BF9FE70000DC030120CB
:104EE000000000006F12833A10B508F0D3FF10BD28
:104EF00010B541F21C000AF04FFA40F612400AF0D9
:104F00004BFA08F0D1FF10BD70B502464FF0FF31EB
:104F100014465025002010E0235C5940002309E08E
:104F200001F001061EB1074E86EA510100E0490872
:104F30005E1CF3B2082BF3DB401CA842ECD3C84341
:104F400070BD00002083B8ED70B504463048D0F83D
:104F50000600451CFF2254212046FBF7D4F92D48BA
:104F6000E41C44F8030C0B20A4F80100C4F803501F
:104F700029480088A4F8070027484068C4F80900B9
:104F800025488068C4F80D002348C068C4F81100A3
:104F900021480069C4F815001F48007D60761E484E
:104FA0008069C4F81A001C48C069C4F81E001A4879
:104FB000008C60841848406A60621748806AA0626A
:104FC0001548C06AE0621448006B20631248406BC9
:104FD00060631148806BA0630F48C06BE0630E48AC
:104FE000006C20640C48406C60640B48806CA064CA
:104FF000E41E094890F84C00012800D100E0002090
:1050000084F84F002046FFF77FFF206570BD000049
:10501000540E0120414C4F53A80E01202DE9F041C0
:10502000044600F069FB10B90120BDE8F081134887
:10503000006848B904200FF0AFFC1049086008462A
:10504000006808B90020F0E714B94FF0FF300AE01B
:105050004FF47A70A4FB006001464FF47A7200238B
:105060003046FBF70DF9054629460448006810F064
:1050700051F8012800D1D8E70020D6E7D001002060
:105080002DE9F04105460C4614B90020BDE8F08139
:10509000002000EB053854222146404604F0C0FAB7
:1050A00006460EB10020F1E720680B49884201D086
:1050B0000020EBE7A08800F09DFB08B90020E5E7A1
:1050C0002046FFF721FF0746206DB84201D101209D
:1050D000DCE70020DAE70000414C4F5310B50446EE
:1050E00041F21C000AF058F940F612400AF054F957
:1050F000024901EB8400D0F8500810BD00200040A8
:1051000070B504460D46FFF7F3FE044901EB840039
:10511000C0F85058FFF7E8FE70BD000000200040C6
:1051200070B504465021FE48FBF7F4F81CB1A08886
:1051300000F060FB90BB0020F9490880B6EE000A41
:10514000084680ED010A9FEDF70A80ED020A9FED07
:10515000F60A80ED060A9FEDF40A80ED070A182092
:1051600008849FEDF20A084680ED090A9FEDEF0AD8
:1051700080ED0A0A9FEDEE0A80ED0B0AB7EE000AF9
:1051800080ED0C0A9FEDEB0A80ED0D0A9FEDEA0A17
:1051900080ED0E0A002081F84C0070BDFFE70B3453
:1051A00034F8010CDE490880D4F801004860D4F8D6
:1051B00005008860D4F80900C860D4F80D000861C3
:1051C000607C0875D4F812008861D4F81600C861B4
:1051D000608B0884E0694862206A8862606AC862FD
:1051E000A06A0863E06A4863206B8863606BC863E9
:1051F000A06B0864E06B4864206C886494F84400F9
:105200000B3C012800D100E00020C54981F84C008A
:10521000A0880B2856D20846D0ED010A9FEDC71A88
:1052200070EEC10AB0EE600A02F053FFDFEDC40A6F
:10523000B4EEE00AF1EE10FA11D2B948D0ED020A4C
:105240009FEDC01A70EEC10AB0EE600A02F041FF95
:10525000DFEDBB0AB4EEE00AF1EE10FA23D3B0485A
:10526000D0ED010A9FEDB81A70EEC10AB0EE600AE7
:1052700002F02FFFDFEDB20AB4EEE00AF1EE10FA11
:1052800013D2A748D0ED020A9FEDB01A70EEC10A02
:10529000B0EE600A02F01DFFDFEDA90AB4EEE00AED
:1052A000F1EE10FA01D2012000E00020054645B1E0
:1052B000B6EE000A9A4880ED010A9FED9A0A80ED49
:1052C000020A00BF964890ED010A10EE101A084637
:1052D000FDF763FF90BB924890ED020A10EE101AA2
:1052E0000846FDF75AFF48BB8D4890ED010AB5EE20
:1052F000C00AF1EE10FA21D990ED010AF1EE000A90
:10530000B4EEE00AF1EE10FA18DC90ED020AB5EE08
:10531000C00AF1EE10FA11D990ED020AF1EE000A7E
:10532000B4EEE00AF1EE10FA08DC90ED020AD0EDDE
:10533000010AB4EEE00AF1EE10FA08DBB6EE000A5C
:10534000774880ED010A9FED770A80ED020A7448E4
:1053500090ED060A10EE101A0846FDF71EFF80B900
:105360006F4890ED060AB5EEC00AF1EE10FA08D3C8
:1053700090ED060ADFED760AB4EEE00AF1EE10FADF
:1053800004DB9FED690A664880ED060A644890EDEB
:10539000070A10EE101A0846FDF7FFFE80B96048B4
:1053A00090ED070AB5EEC00AF1EE10FA08D390EDC1
:1053B000070ADFED5D0AB4EEE00AF1EE10FA04DD53
:1053C0009FED590A564880ED070A5548008C012880
:1053D00003DB5348008CA82802DD182050490884BC
:1053E0004F4890ED090A10EE101A0846FDF7D5FE59
:1053F00090B94B4890ED090ADFED560AB4EEE00A89
:10540000F1EE10FA08D390ED090ADFED470AB4EE89
:10541000E00AF1EE10FA04DD9FED440A404880ED09
:10542000090A3F4890ED0A0A10EE101A0846FDF7E7
:10543000B4FE90B93A4890ED0A0ADFED470AB4EE9F
:10544000E00AF1EE10FA08D390ED0A0ADFED430A04
:10545000B4EEE00AF1EE10FA04DD9FED340A3048B4
:1054600080ED0A0A2E4890ED0B0A10EE101A08463D
:10547000FDF793FEC8B92A4890ED0B0AB5EEC00AB5
:10548000F1EE10FA11D990ED0B0AF6EE000AB4EE27
:10549000E00AF1EE10FA08D390ED0B0AF0EE000AE4
:1054A000B4EEE00AF1EE10FA04DD9FED210A1C488B
:1054B00080ED0B0A1A4890ED0C0A10EE101A0846FF
:1054C000FDF76BFEC8B9164890ED0C0AB5EEC00AA0
:1054D000F1EE10FA11D990ED0C0AF6EE000AB4EED6
:1054E000E00AF1EE10FA08D390ED0C0AF0EE000A93
:1054F000B4EEE00AF1EE10FA04DDB7EE000A084857
:1055000080ED0C0A064890ED0D0A10EE101A0846C0
:10551000FDF743FE18B9024890ED0E0A20E04FE077
:10552000A80E0120CDCCCC3E0000B442000000000B
:10553000E5D0823F0AD7A33CCDCCCC3C9A99593FC9
:105540006F12833A3333333F9A99193FCDCC0C3FD6
:105550000000B4430000B4C2000034C30000344370
:1055600010EE101A0846FDF718FE48BB614890ED92
:105570000D0AB5EEC00AF1EE10FA21D990ED0D0A30
:10558000F7EE000AB4EEE00AF1EE10FA18DC90ED46
:105590000E0AB5EEC00AF1EE10FA11D990ED0E0A1E
:1055A000F7EE000AB4EEE00AF1EE10FA08DC90ED36
:1055B0000D0AD0ED0E0AB4EEE00AF1EE10FA08DBA7
:1055C0001FED240A4B4880ED0D0A1FED250A80EDE2
:1055D0000E0A484890ED0F0A10EE101A0846FDF723
:1055E000DCFDB0BB434890ED100A10EE101A0846DF
:1055F000FDF7D3FD68BB3F4890ED0F0A5FED2B0A26
:10560000B4EEE00AF1EE10FA23D390ED0F0A5FED4D
:105610003A0AB4EEE00AF1EE10FA1ADC90ED100A44
:105620005FED340AB4EEE00AF1EE10FA11D390ED1A
:10563000100A5FED430AB4EEE00AF1EE10FA08DC5E
:1056400090ED0F0AD0ED100AB4EEE00AF1EE10FA78
:1056500008DBB9EE040A274880ED0F0A1FED4E0A59
:1056600080ED100A234890ED110A10EE101A08463A
:10567000FDF793FD90BB1F4890ED120A10EE101A33
:105680000846FDF78AFD48BB1A4890ED110AB5EEB1
:10569000C00AF1EE10FA21D390ED110A5FED5E0A17
:1056A000B4EEE00AF1EE10FA18DC90ED120AB5EE55
:1056B000C00AF1EE10FA11D390ED120A5FED660AFE
:1056C000B4EEE00AF1EE10FA08DC90ED110AD0ED2C
:1056D000120AB4EEE00AF1EE10FA08DBB1EE040AA9
:1056E000044880ED110A1FED700A80ED120A00BF18
:1056F00053E50000A80E012010B50FF0F9FE0128B7
:1057000001D0012010BD0020FCE70246501A0028FD
:1057100001DD012070470020FCE72DE9F04F97B034
:105720000746884617B1B8F1000F03D1002017B023
:10573000BDE8F08F0120FFF7D1FC0446B4F5007FEF
:1057400001D30020F3E71020169000264FF0000A46
:105750004FF0000B002535E06019C0F30800009001
:1057600001A90098FFF78CFC80B12EB1DDF80A008A
:105770005146FFF7CAFF48B1DDF80AA0DDF800B0D6
:10578000542201A94046FAF7ACFD012605B918E0FC
:10579000601BC0F3080901A94846FFF771FC78B106
:1057A0002EB1DDF80A005146FFF7AFFF40B1DDF83A
:1057B0000AA0CB46542201A94046FAF792FD0126E1
:1057C00000BF6D1C102DC7D90EB90020AFE7C7F878
:1057D00000B00120ABE7000010B5FFF78DFF30B13E
:1057E0000348006818B1024800680FF0F0FA10BDD5
:1057F000D001002001460A2903D30B2901D801203A
:1058000070470020FCE7000070B596B01D48007896
:1058100008B902F0C9FE4FF47A70FFF7FFFB10B928
:10582000002016B070BD01A8FFF78EFB1648008857
:10583000401CC0F30805002000EB0536304603F09D
:1058400073FE04461CB1FFF7C7FF0020E9E75422AE
:1058500001A9304603F08CFF04461CB1FFF7BCFFE2
:105860000020DEE708480560542201A90748FAF73E
:1058700038FD054801680120FFF742FCFFF7ACFF47
:105880000120CEE7C8010020CC010020540E0120E9
:1058900070B504460D4620882880A078A870E0786E
:1058A000E870E278A1782088FEF7FEFF2871207961
:1058B00068716079A871A079E8710120287270BDC3
:1058C00002880A8082788A70C278CA7042790A7126
:1058D00082794A71C2798A7170472DE9F047824610
:1058E0008846DAF80040B8F1000F06D1676917B1B1
:1058F000E069B84215D8012713E04146504603F04D
:10590000F4FF0546022D02D20120BDE8F087681C95
:1059100008B92846F9E7E069A84201D92846F4E722
:105920004746A06908B90020EFE70026474518D18F
:105930007E1CE069B04200D802263146504603F092
:10594000D4FF0546012D01D0681C08B92846DCE7C4
:105950003DB16569022D03D3E069A84200D92F4605
:105960000026E6B93E4600BF761CE069B04204D886
:105970000226BE4201D90020C7E73146504603F057
:10598000B4FF054605B909E0012D01D0681C08B92E
:105990002846BAE7BE42E7D10020B6E700BF4FF085
:1059A000FF323146204609F088F88146B9F1000FF0
:1059B00008D1B8F1000F05D032464146204609F023
:1059C0007CF88146B9F1000F0DD16661D4E906106B
:1059D000801E814202D8A069401EA061207940F05B
:1059E0000100207107E0B9F1010F02D14FF0FF3043
:1059F00000E001200646304687E700002DE9F34F1E
:105A000085B08146069800680290D9F80000D0F869
:105A10000CA0002500BF02A80DF072FB83460BF11D
:105A2000010018B9062007B0BDE8F08FBBF5803F34
:105A300005D34FEA1B4228466D1C2AF810201FFA96
:105A40008BF4202C03DB2F2C01D05C2C00D111E037
:105A5000802C06DA214679A0FFF75EF808B106200F
:105A6000E1E7FF2D01D30620DDE728466D1C2AF86B
:105A70001040D0E700BF02E00298401C029002985C
:105A800000782F28F8D0029800785C28F4D002998A
:105A900006980160202C01DA042000E00020064670
:105AA00008E0681E3AF81040202C02D02E2C00D0BE
:105AB00002E06D1E002DF4D100BF00202AF8150071
:105AC0000DB90620AFE7002700E07F1C3AF8170069
:105AD0002028FAD01FB93AF817002E2801D146F035
